:020000040800F2
:10000000D8080020E1430008814000088340000830
:100010008540000887400008894000080000000073
:100020000000000000000000000000008B400008FD
:100030008D400008000000008F400008914000083B
:100040003144000835440008394400083D440008A4
:100050004144000845440008494400084D44000854
:100060005144000855440008594400085D44000804
:100070006144000865440008694400086D440008B4
:100080007144000875440008794400087D44000864
:100090008144000885440008894400088D44000814
:1000A0009144000895440008994400089D440008C4
:1000B000A144000899400008A5440008A94400088C
:1000C000AD440008B1440008B5440008B944000834
:1000D000BD440008A3400008C1440008C54400080E
:1000E000C9440008CD440008D1440008D5440008A4
:1000F000D9440008DD440008E1440008E544000854
:10010000E9440008ED440008F1440008F544000803
:10011000F9440008FD4400080145000805450008B1
:10012000094500080D450008B340000811450008C6
:1001300015450008194500081D450008214500081F
:1001400025450008294500082D45000831450008CF
:100150003545000839450008BD4000083D45000808
:100160004145000845450008494500084D4500083F
:100170005145000855450008594500080000000099
:100180005D4500086145000810B50400002C01D150
:10019000012033E0A0690028FFD194F8390000283D
:1001A00005D1002084F83800200000F013FD242041
:1001B00084F839002068C06830F400502168C860B5
:1001C000200000F04BFB2068006930F4904021686B
:1001D00008612068406930F02A0021684861206881
:1001E000C06850F400502168C8600020E0632020FF
:1001F00084F83900202084F83A00002010BD2DE951
:10020000F84306000C0015001F005FF0000996F887
:10021000390020285FD1002C02D0ADB2002D01D1D1
:10022000012059E096F83800012801D1022053E05E
:10023000012086F838000020F063212086F839007C
:1002400000F0E2FD8146B584F584002086F8380090
:10025000F08C00282FD0F08C401EF084B068B0F5F0
:10026000805F18D100974B4600228021300000F0BB
:10027000F9F9002801D003202EE0A046B8F80000CC
:10028000C005C00D316848603069002801D1A41C48
:10029000DEE7641CDCE700974B460022802130003B
:1002A00000F0E0F9002801D0032015E02078316843
:1002B0004860641CCCE700974B4600224021300088
:1002C00000F0D0F9002801D0032005E0202086F8B6
:1002D0003900002000E00220BDE8F28310B40300E2
:1002E00093F83900202822D1002902D092B2002AA6
:1002F00001D101201CE093F83800012801D102202F
:1003000016E0012083F8380019629A84DA8400200C
:10031000D863212083F83900002083F8380018685A
:10032000C06850F080001C68E060002000E00220FF
:1003300010BC704773B50500140095F83A002028EA
:1003400051D10198002802D0A4B2002C01D1012083
:100350004AE095F83800012801D1022044E001204C
:1003600085F838000198A862AC850020E863222057
:1003700085F83A000FF23D20696BC8630FF27920CF
:10038000696B08640FF28120696BC8640020696B97
:10039000086501A80600A4B2230032682868011D80
:1003A000686B00F0AAFD00200090286800680090AB
:1003B0002868406800900098002085F83800286878
:1003C000C06850F480702968C8602868406950F09F
:1003D0000100296848612868406950F04000296898
:1003E0004861002000E0022076BD38B505000024F9
:1003F00028684069C00910F00100040095F8390030
:10040000212810D1002C0ED02868406930F08000DF
:1004100029684861286B002802D0286B00F0B3FDE2
:10042000280000F056F928684069800910F00100A2
:10043000040095F83A00222810D1002C0ED028682C
:10044000406930F0400029684861686B002802D09C
:10045000686B00F098FD280000F045F9002032BDDF
:100460002DE9F8430600306807683068D0F80C8042
:100470003068D0F814900024002517F00F00040015
:10048000002C08D1B80606D55FEA886003D5300095
:1004900000F08DF98BE0002C77D05FEAC97002D4B0
:1004A00018F4907F71D017F00100C0B2002806D078
:1004B0005FEAC85003D5F06B50F00100F063780795
:1004C00008D519F00100C0B2002803D0F06B50F03D
:1004D0000200F063B80708D519F00100C0B2002887
:1004E00003D0F06B50F00400F06338070BD55FEADF
:1004F000886004D419F00100C0B2002803D0F06B6A
:1005000050F00800F063F06B00283DD0B80605D528
:100510005FEA886002D5300000F049F93068406930
:10052000800910F001000500F06B000701D4002DD8
:1005300025D0300000F0D7F83068406940061AD561
:100540003068406930F0400031684861706B0028C5
:100550000DD00FF2B510716B0865706B00F061FD86
:10056000002811D0706B716B096D88470CE030006A
:1005700000F0F4FE08E0300000F0F0FE04E030008F
:1005800000F0ECFE0020F06311E0380606D55FEACB
:10059000086003D5300000F0C3F808E0780606D5FF
:1005A0005FEA486003D5300000F0F1F8FFE7BDE8EE
:1005B000F183000038B50400A56B20680068C00511
:1005C00016D40020E8852868C06830F48070296857
:1005D000C860286840694008400029684861286868
:1005E000406930F0400029684861202085F83A00D1
:1005F000280000F0B7FF31BD38B50400A56B280016
:1006000000F0B2FF31BD000070B505000024AE6BF4
:1006100030684069C00910F00100040096F8390004
:10062000212806D1002C04D00020F084300000F0F6
:1006300050F830684069800910F00100040096F815
:100640003A00222806D1002C04D00020F08530008A
:1006500000F049F8F06B50F01000F063300000F04B
:100660007DFE70BD2DE9F04105000E001700984693
:10067000069C286800683040B04201D1012000E0AB
:100680000020FFB2B84221D114F1010FF1D0002CAB
:1006900005D000F0B9FBB0EB08008442E9D228682D
:1006A000C06830F4D0702968C86028684069400884
:1006B000400029684861202085F83900202085F80D
:1006C0003A00002085F83800032000E00020BDE853
:1006D000F0810168C96831F0C0010268D160202151
:1006E00080F8391070470168C96831F49071026868
:1006F000D1600168496949084900026851612021B7
:1007000080F83A107047000038B50400A56B00204F
:10071000E8850020E884280000F020FE31BD0000BC
:10072000010091F8390021282FD18868B0F5805F49
:1007300011D1086A02001088C005C00D0B6858600E
:100740000869002803D1086A801C086209E0086A69
:10075000401C086205E0086A431C0B6200780B68C5
:100760005860C88C401EC88480B200280BD108682D
:10077000C06830F080000B68D8600868C06850F02E
:1007800040000B68D860002000E00220704710B5E0
:1007900004002068C06830F040002168C860202054
:1007A00084F83900200000F0E0FE002010BD38B5CC
:1007B000040094F83A0022284ED1A068B0F5805F7A
:1007C00016D1A06A05002069002808D12068406879
:1007D000C005C00D2880A06A801CA0621AE02068B5
:1007E000406800F0FF002880A06A401CA06211E071
:1007F0002069002806D1A06A411CA16221684968CD
:10080000017007E0A06A411CA1622168496811F0EB
:100810007F010170E08D401EE08580B2002819D173
:100820002068C06830F020002168C8602068C06877
:1008300030F480702168C86020684069400840003A
:1008400021684861202084F83A00200000F08AFEE8
:10085000002002E0002000E0022032BD2DE9F0413E
:1008600004002068016931F44051E06801432068C8
:100870000161A1682069014360690143E0690143A6
:1008800088462068C168BF48014058EA01012068D5
:10089000C1602068416931F44071A069014320685A
:1008A0004161E069B0F5004F40F0B6802068B6497C
:1008B000884203D02068B549884256D100F00AFF2B
:1008C00005001920A0FB050162680223A3FB022397
:1008D00000F06AFF6421B0FBF1F61920A0FB0501CE
:1008E00062680223A3FB022300F05EFF07001920C9
:1008F000A0FB050162680223A3FB022300F054FF62
:100900006421B0FBF1F1642000FB1171C8003230AA
:100910006421B0FBF1F0400010F4F87010EB061009
:1009200006001920A0FB050162680223A3FB022335
:1009300000F03AFF07001920A0FB050162680223BE
:10094000A3FB022300F030FF6421B0FBF1F164202F
:1009500000FB1171C80032306421B0FBF1F010F0DF
:10096000070080192168886009E100F0A8FE0500F1
:100970001920A0FB050162680223A3FB022300F0FB
:1009800013FF6421B0FBF1F61920A0FB050162689A
:100990000223A3FB022300F007FF07001920A0FB9E
:1009A000050162680223A3FB022300F0FDFE64211F
:1009B000B0FBF1F1642000FB1171C80032306421FA
:1009C000B0FBF1F0400010F4F87010EB06100600D8
:1009D0001920A0FB050162680223A3FB022300F09B
:1009E000E3FE07001920A0FB050162680223A3FBB8
:1009F000022300F0D9FE6421B0FBF1F1642000FB7A
:100A00001171C80032306421B0FBF1F010F0070022
:100A1000801921688860B2E020685B49884203D071
:100A200020685A49884255D100F054FE050019202B
:100A3000A0FB050162680423A3FB022300F0B4FEBF
:100A40006421B0FBF1F61920A0FB050162680423C4
:100A5000A3FB022300F0A8FE07001920A0FB05015C
:100A600062680423A3FB022300F09EFE6421B0FB16
:100A7000F1F1642000FB1171080132306421B0FBF8
:100A8000F1F010F0F00010EB061006001920A0FBAA
:100A9000050162680423A3FB022300F085FE070022
:100AA0001920A0FB050162680423A3FB022300F0C8
:100AB0007BFE6421B0FBF1F1642000FB11710801A1
:100AC00032306421B0FBF1F010F00F008019216882
:100AD000886054E000F0F3FD05001920A0FB05013B
:100AE00062680423A3FB022300F05EFE6421B0FBD6
:100AF000F1F61920A0FB050162680423A3FB022381
:100B000000F052FE07001920A0FB050162680423D3
:100B1000A3FB022300F048FE6421B0FBF1F1642046
:100B200000FB1171080132306421B0FBF1F010F0CC
:100B3000F00010EB061006001920A0FB050162680A
:100B40000423A3FB022300F02FFE07001920A0FBC3
:100B5000050162680423A3FB022300F025FE642143
:100B6000B0FBF1F1642000FB117108013230642107
:100B7000B0FBF1F010F00F00801921688860BDE82B
:100B8000F0810000F369FFFF0010014000140140F4
:100B900080B59148914908605FF4E1308F49486021
:100BA00000208E49886000208C49C86000208B4955
:100BB00008610C208949486100208849886100202B
:100BC0008649C8618548FFF7DFFA002801D000F0A8
:100BD000CAFC01BD10B586B0040001A8142100F0C4
:100BE0005BFE20687C49884240F0938000200090A2
:100BF0007B48006850F01000794908607848006828
:100C000010F01000009000980020009075480068D7
:100C100050F00100734908607248006810F001004C
:100C2000009000984FF40070019002200290002084
:100C30000390032004900720059001A96A4800F062
:100C40002FFE4FF48060019002200290012003905B
:100C5000032004900720059001A9634800F020FEBE
:100C60006248634908605FF00060614948600020A5
:100C70005F49886000205E49C8604FF480605C492D
:100C8000086100205A4948610020594988614FF4A1
:100C900080705749C8615FF40030554908620020F0
:100CA00053494862524800F0B5F8002801D000F0DE
:100CB0005AFC4F4860634E4884634E484E49086072
:100CC0005FF000604C49486040204B49886000203C
:100CD0004949C8604FF4806047490861002046498F
:100CE000486100204449886100204349C8615FF49D
:100CF00080304149086200203F4948623E4800F088
:100D000089F8002801D000F02EFC3B4820633A48C7
:100D1000846306B010BD11B581B00C004FF6FF73AF
:100D2000012201A92D48FFF76AFA019816BD2DE9A5
:100D3000F04104002948FFF758FB2D48006845683A
:100D4000D5F1FF05EDB229002C4800F0D3FE4FF499
:100D50000073EDB22A0092B229492048FFF74FFAFA
:100D60001CA000F0C7FE264801F0B8FAEDB22E0034
:100D70000027DFF88C803A003100404601F028FB64
:100D800000200500FF221E491448FFF7D3FABDE8F2
:100D9000F08110B582B00400104800680E49884206
:100DA00015D10E4800680068C00610D500200090DC
:100DB0000A48006800680090084800684068009091
:100DC0000098104800F096FE2000FFF7B0FF13BD1A
:100DD000000000000D0A000000100140C4130020B4
:100DE0004438024030380240000002404064024073
:100DF000D8110020B86402403812002010430008C7
:100E0000D8100020B842000801480068704700BFB1
:100E100090140020F8B504000027FFF7F5FF050047
:100E2000002C01D1012067E0606A0028002084F8CE
:100E30003400022084F83500206800684008400033
:100E40002168086020680068C0070BD5FFF7DCFF49
:100E5000401B0628F6D320206065032084F8350067
:100E6000032049E0206800680700DFF848040740D5
:100E70006168A0680143E06801432069014360693B
:100E80000143A0690143E0690143206A01430F4324
:100E9000606A042803D1E16A206B01430F43206894
:100EA0000760206840690700FF08FF00606A074389
:100EB000606A042810D1A06A0743E06A00280BD0BA
:100EC000200000F0FDF9002806D0402060650120D8
:100ED00084F8350001200FE020684761200000F011
:100EE000D0F906003F21E06D8140B16000206065CF
:100EF000012084F835000020F2BD2DE9F8430400FC
:100F00000D0016001F005FF00008D4F8589094F808
:100F10003400012801D1022033E0012084F834009C
:100F200094F83500012825D1022084F835000020EE
:100F300060653B0032002900200000F08BF93F2162
:100F4000E06D8140C9F808102068006850F0160074
:100F500021680860206C002805D02068006850F0E7
:100F60000800216808602068006850F001002168CE
:100F7000086004E0002084F83400022080464046E7
:100F8000C0B2BDE8F28370B50400A56DFFF73CFF69
:100F9000060094F83500022806D080206065002005
:100FA00084F8340001203BE02068006830F016002F
:100FB000216808602068406930F08000216848613D
:100FC000206C002802D1A06C002805D020680068A1
:100FD00030F0080021680860206800684008400080
:100FE0002168086020680068C0070ED5FFF70CFF75
:100FF000801B0628F6D320206065002084F834008A
:10100000032084F8350003200AE03F21E06D814091
:10101000A960002084F83400012084F83500002005
:1010200070BD010091F83500022803D0802048658A
:10103000012009E0052081F83500086800684008B3
:1010400040000A68106000207047F8B504000020D6
:101050000090DFF8640200684FF41651B0FBF1F61F
:10106000A76D386805000821E06D81400D4211D060
:101070002068006840070DD52068006830F0040043
:10108000216808600821E06D8140B960606D50F012
:1010900001006065E06D2900C140C8070BD52068DC
:1010A0004069000607D50121E06D8140B960606D9F
:1010B00050F0020060650421E06D81400D420BD0CC
:1010C00020680068800707D50421E06D8140B96081
:1010D000606D50F0040060651021E06D81400D42AC
:1010E0002DD020680068000729D51021E06D8140CF
:1010F000B96020680068400311D5206800680003CB
:1011000006D4206C00281AD02000216C884716E0F5
:10111000A06C002813D02000A16C88470FE0206845
:101120000068C00505D42068006830F00800216818
:101130000860206C002802D02000216C8847202104
:10114000E06D81400D4260D020680068C0065CD52B
:101150002021E06D8140B96094F83500052828D140
:101160002068006830F01600216808602068406937
:1011700030F0800021684861206C002802D1A06C0A
:10118000002805D02068006830F008002168086059
:101190003F21E06D8140B960002084F834000120D7
:1011A00084F83500206D002802D02000216D88478A
:1011B0004FE020680068400311D5206800680003F4
:1011C00006D4606C002820D02000616C88471CE0A9
:1011D000E06B002819D02000E16B884715E02068FB
:1011E0000068C0050BD42068006830F0100021684A
:1011F0000860002084F83400012084F83500E06B9A
:10120000002802D02000E16B8847606D002820D0C4
:10121000606DC00717D5052084F835002068006888
:1012200040084000216808600098401C00908642F9
:1012300003D320680068C007F6D4002084F8340087
:10124000012084F83500E06C002802D02000E16C19
:101250008847F1BD30B40468246834F480240568FC
:101260002C60046863608468402C04D10468A26028
:101270000468E16003E00468A1600468E26030BCD7
:101280007047017801F0FF0110391822B1FBF2F12B
:101290000A4A525CC265042905D30268920A920286
:1012A000121D826503E00268920A92028265806DD7
:1012B000704700003F8010F03C04002018440008F4
:1012C00010B402000020936A9169002916D1002B06
:1012D00005D0022B03D008D3032B0DD00DE0D16A2B
:1012E000C90101D50121080035E0D16AB1F1C07F03
:1012F00001D1012108002EE02DE02CE09169B1F52B
:10130000005F18D1002B05D0022B03D005D3032B8F
:1013100009D00FE0012108001DE0D16AC90101D503
:101320000121080017E0D16AB1F1C07F01D101218C
:10133000080010E00FE019000029022902D9C91E97
:1013400003D008E00121080005E0D16AC90101D5F8
:1013500001210800FFE7C0B210BC70477047F0B42D
:10136000034618689D681A18586802EB5004C007B5
:1013700021D54D441FE0F0BC03F10C00704712F87A
:10138000017B05F8017B491EF9D1A0B1B60812F81E
:10139000011B06F00306032E08BF12F8016B01EBD8
:1013A00006214942801C294405D011F8016B05F83B
:1013B000016B401EF9D1A242DDD012F8016B16F08C
:1013C000030104BF12F8011BC91C30090F28DAD130
:1013D00012F8010B0F30D6E780B501F02DF800F0C0
:1013E00044F801F049F801F0D9F801F0F9F8FFF7F5
:1013F000CFFB01F067F901F0D5F900F0A9F84FF43F
:10140000806246494648FEF769FF464801F0FEF90A
:10141000A82001F0FDFB42480068C06850F01000B1
:101420003F490968C860FF223F493D48FEF782FFF7
:101430004FF480613D4800F033FB3D49002001F04E
:101440004EFC3C493C4801F019FC3C4908703A48C4
:101450003A49097801443A4801F07AFC642001F0E5
:10146000FFFB384801F0C2FCE2E700B593B006A8E4
:10147000302100F011FA01A8142100F00DFA00202B
:1014800000903148006850F080502F4908602E4885
:10149000006810F0805000900098002000902B48C9
:1014A000006850F48040294908602848006810F41A
:1014B000804000900098092006905FF480300790EB
:1014C00001200B9002200C905FF480000D9008200A
:1014D0000E904FF4A8700F900220109004201190ED
:1014E00006A801F08BFC002801D000F03CF80F208A
:1014F000019002200290002003904FF4A05004902D
:101500004FF480500590052101A800F02FF8002825
:1015100001D000F028F813B000BD00003400002016
:10152000C413002084130020D810002000140240AF
:10153000D80800202000002000000020981400207F
:101540004414002080140020403802400070004005
:1015500080B500220321252001F0CEFE252001F0D8
:10156000DEFE01BD704770477047704770B50400DC
:101570000D00002C01D101209DE05C48006810F0B6
:101580000F00A84209D2594805705848006810F069
:101590000F00A84201D001208DE02078800719D5E6
:1015A0002078400705D55248006850F4E050504973
:1015B00008602078000705D54D48006850F4604069
:1015C0004B4908604A48016831F0F001A0680143C6
:1015D000474801602078C00736D56068012805D1EA
:1015E00044480068800313D4012064E06068022846
:1015F00002D06068032805D13E480068800107D406
:10160000012058E03B480068800701D4012052E0E7
:1016100037480168890889006068014334480160DF
:10162000FFF7F2FB06003248006810F00C0061681A
:10163000B0EB810F08D0FFF7E7FB801B41F2893147
:101640008842F0D3032036E02848006810F00F00ED
:10165000854209D2254805702448006810F00F0023
:10166000A84201D0012026E02078400707D5204875
:10167000016831F4E051E06801431D4801602078C1
:10168000000708D51A48006830F46040216950EA24
:10169000C1001749086000F037F81749144A12686A
:1016A000C2F30312895CC8401449086014480068FA
:1016B00001F050FE002070BD10480068704780B5F2
:1016C000FFF7FAFF0F490A4A1268C2F38222895CC7
:1016D000C84002BD80B5FFF7EFFF0A49044A12680F
:1016E000C2F34232895CC84002BD0000003C0240A7
:1016F0000838024000380240D04300083C04002073
:101700003804002020440008F0B5002400250026FD
:1017100000272148006810F00C00002804D004289D
:1017200005D0082806D032E01C48070031E01C48EC
:1017300007002EE01B48006810F03F000400194825
:10174000006840020CD517480068C0F3881014499F
:10175000A1FB00012200002300F026F805000BE0A9
:1017600010480068C0F388100C49A1FB000122005A
:10177000002300F019F805000A480068C0F3014092
:10178000401C40000600B5FBF6F0070001E00348EE
:1017900007003800F0BD00BF083802400024F40004
:1017A00000127A00043802401B4213D1094236D19C
:1017B0002AB18446B0FBF2F002FB10C2704701F080
:1017C000EFBDFCD30022002370470B000200002174
:1017D00000207047904271EB030CF6D370B5B1FA5C
:1017E00081F4B3FA83F52C1BA340C4F1200532FA2F
:1017F00005F63343A2405FF00046E64002E05B0896
:101800005FEA3202841A71EB030524BF20462946A1
:101810007641F4D302000B003000002170BD012A94
:10182000CFD970B5140C20D0B1FA81F4B2FA82F598
:10183000C4F120046419B4F12006D6D3B2405FF09D
:101840000044F440002502E052085FEA3303C61A60
:1018500071EB020E24BF3046714664416D41F3D3F3
:1018600002000B002000290070BD0C46B1FBF2F114
:1018700002FB11452D0445EA1045B5FBF2F402FBCD
:10188000145580B240EA0545B5FBF2F002FB105258
:1018900040EA044070BD2E00002201F083BD3A00F2
:1018A000F8B400240025002600221300102B80F03D
:1018B000EB8001229A4014000A6822401500A542DC
:1018C00040F0E0804A68012A08D04A68022A05D020
:1018D0004A68112A02D04A68122A19D18268160071
:1018E00003271A00D2B252009740BE43CF681A00B5
:1018F000D2B2520097403E438660426816000122F1
:101900009A4096434A68C2F300129A4016434660D2
:10191000C268160003271A00D2B252009740BE4395
:101920008F681A00D2B2520097403E43C6604A68A0
:10193000022A02D04A68122A18D11A00D20800EBF3
:101940008202126A16000F2713F00702D2B2920029
:101950009740BE430F6913F00702D2B2920097403E
:101960003E431A00D20800EB82021662026816009B
:1019700003271A00D2B252009740BE430F7917F0E6
:1019800003071A00D2B2520097403E4306604A68ED
:10199000D20077D500220092484A126852F4804261
:1019A000464F3A60454A126812F480420092009A0B
:1019B000434A1F00BF0852F8272016000F2713F0D4
:1019C0000302D2B292009740BE433E4A904201D1F8
:1019D000002723E03C4A904201D101271EE03B4A08
:1019E000904201D1022719E0394A904201D10327E0
:1019F00014E0384A904201D104270FE0364A904261
:101A000001D105270AE0354A904201D1062705E0B9
:101A1000334A904201D1072700E00827FFB213F0B4
:101A20000302D2B2920097403E43254A1F00BF08EE
:101A300042F827602B4A12681600AE434A68D20368
:101A400000D52E43274A1660274A12681600AE4377
:101A50004A68920300D52E43234A1660234A12682F
:101A60001600AE434A68D20200D52E431F4A1660C4
:101A70001F4A12681600AE434A68920200D52E43F0
:101A80001B4A16605B1C11E7F1BC7047D2B2002AFA
:101A900002D089B2816102E089B20B048361704790
:101AA000426989B20A4089B28A4203D189B20A04E2
:101AB000826101E089B281617047000044380240D0
:101AC00008380140000002400004024000080240C3
:101AD000000C0240001002400014024000180240B6
:101AE000001C0240003C0140043C0140083C014015
:101AF0000C3C01400EB4C0B5024603A80021019081
:101B0000009101AB0121044878440C3001F06FFCD6
:101B100006BC5DF810FB00BF5928000010B401009E
:101B20000022012300291DD008782B2802D14878F3
:101B3000002817D008782D2802D14878002811D025
:101B40000878302805D14878582802D188780028AC
:101B500008D00878302808D14878782805D18878C6
:101B6000002802D15FF0FF304AE00C0020782D28D9
:101B700002D020782B2807D120782D2802D15FF0C1
:101B8000FF300300641C0CE02078302802D160781C
:101B9000582805D02078302803D16078782800D1E3
:101BA000A41C2078002828D02078302808DB207852
:101BB0003A2805DA2078120152FA80F2303A1AE017
:101BC0002078412808DB2078472805DA20781201A0
:101BD00052FA80F2373A0EE02078612808DB20784C
:101BE000672805DA2078120152FA80F2573A02E0AB
:101BF0007FF0010004E0641CD3E702FB03F2100055
:101C000010BC7047E0B5DFF87407407C0090DFF847
:101C10006C07037CDFF86407C27BDFF86007817B19
:101C2000DFF85C07FFF766FFDFF85007C079009028
:101C3000DFF848078379DFF844074279DFF83C078B
:101C40000179DFF84007FFF755FFDFF83007C0786C
:101C50000090DFF828078378DFF820074278DFF864
:101C60001C070178DFF82007FFF744FFDFF80C07B7
:101C7000407B0290DFF80407007B0190DFF8FC0650
:101C8000C07A0090DFF8F406837ADFF8F006427A33
:101C9000DFF8E806017ADFF8F406FFF72BFFDFF83C
:101CA000F006FFF727FFDFF8EC06FFF723FF07BD7D
:101CB00070B586B004000D0016006078692809D060
:101CC0006078732806D06078672803D060786D2824
:101CD00040F08F8068461821FFF7DEFD60786728A6
:101CE00040D0692804D06D2857D073281DD07EE0DD
:101CF00015F1320001F098FC009015F1360001F06A
:101D000093FC019015F13A0001F08EFC029015F160
:101D10003E0001F089FC03900098B0730198F073C5
:101D2000029830740398707461E015F1100001F0AE
:101D30007BFC009015F1140001F076FC019015F188
:101D4000180001F071FC029015F11C0001F06CFC10
:101D5000039000983071019870710298B0710398E7
:101D6000F07144E0280001F05FFC0090281D01F0B4
:101D70005BFC019015F1080001F056FC029015F192
:101D80000C0001F051FC03900098307001987070C5
:101D90000298B0700398F07029E015F12000FFF769
:101DA000BDFE009015F12300FFF7B8FE019015F17C
:101DB0002600FFF7B3FE029015F12900FFF7AEFEF3
:101DC000039015F12C00FFF7A9FE049015F12F00E8
:101DD000FFF7A4FE05900098307201987072029887
:101DE000B0720398F07204983073059870730120F4
:101DF00000E0002006B070BD2DE9F14FA6B00D0047
:101E000026984078692808D026984078672804D01A
:101E100026984078732840F03881DFF87C050088E8
:101E2000ADF8040019A81421FFF736FD06A800211B
:101E3000016005A80021016004A80021016003A839
:101E40000021016026988078202877D113222698D7
:101E5000C11C19A801F016FC132219A9DFF83C05D2
:101E600001F010FC01A919A801F044FC00900098B1
:101E700000280DD00322009906A801F003FC01A957
:101E8000002001F037FC00900098002810D001E0FD
:101E9000002020E20322009905A801F0F3FB01A92C
:101EA000002001F027FC00900098002810D001E0ED
:101EB000002010E20322009904A801F0E3FB01A92D
:101EC000002001F017FC00900098002810D001E0DD
:101ED000002000E20322009903A801F0D3FB01A92E
:101EE000002001F007FC00900098002804D001E0D9
:101EF0000020F0E10020EEE102A80021016006A828
:101F000001F01CFC8DF8080005A801F017FC8DF805
:101F1000090004A801F012FC8DF80A0003A801F0E2
:101F20000DFC8DF80B009DF90840DFF8741406A82D
:101F300001F01FFC844240F0A68001E00020CAE1CD
:101F40009DF90940DFF8581405A801F012FC8442FD
:101F500040F099809DF90A40DFF8441404A801F08C
:101F600008FC844240F08F809DF90B40DFF830146C
:101F700003A801F0FEFB844240F08580269840785B
:101F8000672858D0692802D073282AD079E0042025
:101F9000089006A8079015F13204089A07992000C6
:101FA00001F0F8FB042405AE15F1360722003100DC
:101FB000380001F0EFFB04270DF1100815F13A0984
:101FC0003A004146484601F0E5FB5FF004090DF197
:101FD0000C0A15F13E0B4A465146584601F0DAFB11
:101FE0004FE00420089006A8079015F11004089A05
:101FF0000799200001F0CEFB042405AE15F114076B
:1020000022003100380001F0C5FB04270DF1100853
:1020100015F118093A004146484601F0BBFB5FF054
:1020200004090DF10C0A15F11C0B4A46514658469D
:1020300001F0B0FB25E00420089006A80790089A5C
:102040000799280001F0A6FB042405AE2F1D2200ED
:102050003100380001F09EFB04270DF1100815F146
:1020600008093A004146484601F094FB5FF0040934
:102070000DF10C0A15F10C0B4A465146584601F079
:1020800089FB012027E1002025E1269840786D2872
:1020900040F02081C3480088ADF800001EA8202130
:1020A000FFF7FAFB0BA8002101600AA800210160DC
:1020B00009A80021016008A80021016007A80021EB
:1020C000016002A80021016026988078202840F055
:1020D00096801D222698C11C1EA801F0D3FA1D2649
:1020E0001EAFDFF8B88232003900404601F052FBE3
:1020F00069461EA801F0FEFA0400002C0CD0022252
:1021000021000BA801F0BEFA6946002001F0F2FAA6
:102110000400002C0FD001E00020DCE002222100AE
:102120000AA801F0AFFA6946002001F0E3FA0400C2
:10213000002C0FD001E00020CDE00222210009A8F0
:1021400001F0A0FA6946002001F0D4FA0400002C46
:102150000FD001E00020BEE00222210008A801F01B
:1021600091FA6946002001F0C5FA0400002C0FD056
:1021700001E00020AFE00222210007A801F082FA6E
:102180006946002001F0B6FA0400002C0FD001E0EF
:102190000020A0E00222210002A801F073FA6946A3
:1021A000002001F0A7FA0400002C04D001E0002078
:1021B00091E000208FE013A81821FFF76DFB0BA81A
:1021C00001F0BCFA13900AA801F0B8FA149009A81B
:1021D00001F0B4FA159008A801F0B0FA169007A81B
:1021E00001F0ACFA179002A801F0A8FA1890139E1B
:1021F0006D490BA801F0BDFA864269D101E00020CB
:1022000069E0149E68490AA801F0B3FA86425FD1DA
:10221000159E654909A801F0ACFA864258D1169E70
:10222000614908A801F0A5FA864251D1179E5E497E
:1022300007A801F09EFA86424AD1189E5A4902A880
:1022400001F097FA864243D1032012900BA8119017
:1022500015F12006129A1199300001F09BFA032023
:1022600010900AA80F9015F12306109A0F993000CC
:1022700001F090FA03200E9009AE15F126070E9A90
:102280003100380001F086FA03270DF1200815F11E
:1022900029093A004146484601F07CFA5FF00309FB
:1022A0000DF11C0A15F12C0B4A465146584601F017
:1022B00071FA5FF0030B02A80D9015F12F000C903E
:1022C0005A460D990C9801F065FA0C98012002E02D
:1022D000002000E0002027B0BDE8F08F30B58BB0C3
:1022E000050068462821FFF7D7FA2D21280001F0C4
:1022F000A5FA0400002C37D02100684600F028FD24
:102300009DF80100672816D0682808D0692812D0E7
:102310006D2810D070281CD073280CD020E04FF40A
:10232000806222492248FDF7D9FF0522214922482F
:1023300001F0CCFA1EE0214801686846FFF75CFD19
:10234000012805D10D4A1D4801686846FFF7B0FC19
:1023500010E0FFF757FC1A4907A0FFF7CBFB09E095
:102360001848FFF7C7FB05E01748FFF7C3FB1748FE
:10237000FFF7C0FB0BB030BD2573000058140020E0
:10238000D8420008F44200082C42000850420008DD
:1023900070410008A84100089618000804140020A5
:1023A000004400089E1800089443000834000020F0
:1023B000C4130020A843000800000A0834040020C9
:1023C0006C140020F040000874420008DC41000852
:1023D00062F30F2262F31F42401810F0030308D08B
:1023E000C91A1FD3DB0748BF00F8012D28BF20F80A
:1023F000022D130030B414461546103928BF20E9C9
:102400003C00FAD8490728BF20E90C0048BF40F833
:10241000042D890028BF20F8022D48BF00F8012DA7
:1024200030BC7047C91818BF00F8012DCB0728BF72
:1024300000F8012D7047760080B50E48006850F412
:1024400000700C4908600B48006850F4806009492E
:1024500008600848006850F480700649086003204E
:1024600000F044FF002000F075FF01F09FFA00200B
:1024700002BD0000003C024000B587B001A8142155
:10248000FFF70AFA002000903F48006850F0100063
:102490003D4908603C48006810F01000009000982A
:1024A000002000903848006850F02000364908604D
:1024B0003548006810F0200000900098002000903F
:1024C0003148006850F080002F4908602E480068AD
:1024D00010F0800000900098002000902A480068CA
:1024E00050F00100284908602748006810F00100FA
:1024F00000900098002000902348006850F00200EF
:10250000214908602048006810F0020000900098FF
:1025100001224FF4C0611D48FFF7B8FA00224FF4C2
:1025200080411B48FFF7B2FA1C2001900020029066
:102530000120039001A91748FFF7B2F94FF4C060DA
:10254000019001200290012003900220049001A933
:102550000E48FFF7A5F9012001900020029002200B
:10256000039001A90C48FFF79BF94FF480400190BC
:1025700001200290012003900220049001A9044848
:10258000FFF78EF907B000BD30380240001402405A
:1025900000040240001002400000024080B500200C
:1025A00000900E48006850F480000C4908600B4809
:1025B000006810F4800000900098002200213A206A
:1025C00000F09AFE3A2000F0AAFE002200214620E8
:1025D00000F092FE462000F0A2FE01BD303802401D
:1025E00000B587B002A81021FFF756F93048D0E9AE
:1025F0000023CDE900232F482F49086042F2CF0085
:102600002D49486000202C49886041F287302A49D2
:10261000C8600020284908610020274988612648B1
:1026200000F0D8F8002801D0FEF79DFF4FF480504D
:10263000029002A9204800F0BAF9002801D0FEF764
:1026400092FF002000900020019069461A4801F096
:10265000D1F9002801D0FEF786FF07B000BD10B504
:1026600082B0040020681349884215D100200090F0
:102670001248006850F00200104908600F480068D6
:1026800010F0020000900098002201211D2000F0AF
:1026900033FE1D2000F043FE13BD10B504000648B4
:1026A000844204D14FF400710548FFF7F9F910BDD9
:1026B00028440008000400408413002040380240F1
:1026C0000014024080B53248324908604FF48270ED
:1026D0003049486000202F49886000202D49C8609B
:1026E00000202C49086100202A4948614FF40070FD
:1026F0002849886128202749C861002025490862A7
:102700000020244948620020224988620A20214989
:10271000C862204801F0C6F9002801D0FEF723FF67
:1027200001BD10B586B0040001A81421FFF7B4F86C
:1027300020681749884229D1002000901648006877
:1027400050F48050144908601348006810F4805019
:1027500000900098002000901048006850F002009F
:102760000E4908600D48006810F0020000900098C3
:102770003820019002200290002003900320049052
:102780000520059001A90648FFF78AF806B010BD9C
:102790000030014098120020443802403038024096
:1027A0000004024080B5094809490860032008492F
:1027B00048604FF4FA6006498860054800F0EEFA78
:1027C000002801D0FEF7CFFE01BD00BF0030004061
:1027D0008014002010B50400002C01D1012014E069
:1027E00094F83D00002805D1002084F83C0020002A
:1027F000FFF735FF022084F83D00211D206800F01E
:102800004DF9012084F83D00002010BD010008684A
:10281000C06850F001000B68D8600868806810F04C
:1028200007000200062A05D00868006850F0010081
:102830000B6818600020704710B50400206800691C
:1028400080071AD52068C068800716D57FF002007F
:1028500021680861012020772068806910F0030F4B
:1028600003D0200001F065F905E0200001F062F9D5
:10287000200001F060F900202077206800694007FF
:102880001AD52068C068400716D57FF0040021687B
:102890000861022020772068806910F4407F03D00F
:1028A000200001F046F905E0200001F043F9200086
:1028B00001F041F9002020772068006900071AD54F
:1028C0002068C068000716D57FF0080021680861FD
:1028D000042020772068C06910F0030F03D0200087
:1028E00001F027F905E0200001F024F9200001F0B3
:1028F00022F90020207720680069C0061AD52068D8
:10290000C068C00616D57FF0100021680861082055
:1029100020772068C06910F4407F03D0200001F0C8
:1029200008F905E0200001F005F9200001F003F9A5
:102930000020207720680069C0070AD52068C06899
:10294000C00706D57FF00100216808612000FFF76D
:10295000A4FE2068006900060AD52068C068000649
:1029600006D57FF0800021680861200001F0E4F8BE
:102970002068006940060AD52068C068400606D570
:102980007FF0400021680861200001F0D6F820683F
:10299000006980060AD52068C068800606D57FF0E9
:1029A000200021680861200001F0C8F810BD70B552
:1029B00004000D0094F83C00012801D102206CE0D5
:1029C000012084F83C00022084F83D0020688068E3
:1029D000060036F0770636F47F4620688660286861
:1029E00000284ED010284CD020284AD0302848D07B
:1029F00040283CD0502826D060282ED0702807D000
:102A0000B0F5805F03D0B0F5005F0FD03EE03DE051
:102A1000EB686A68A968206800F0ECF820688068B4
:102A2000060056F07706206886602FE0EB686A683B
:102A3000A968206800F0DEF82068806850F48040C3
:102A40002168886022E0EA686968206800F0A0F8E0
:102A50005021206800F0C5F818E0EA68696820682D
:102A600000F0AAF86021206800F0BBF80EE0EA68E8
:102A70006968206800F08CF84021206800F0B1F807
:102A800004E02968206800F0ACF8FFE7012084F832
:102A90003D00002084F83C00002070BD0268130057
:102AA000DFF8C020904212D0B0F1804F0FD0DFF895
:102AB000B82090420BD0DFF8B420904207D0DFF866
:102AC000B020904203D0DFF8AC20904203D133F025
:102AD00070034A681343DFF88C2090422AD0B0F18B
:102AE000804F27D0DFF88020904223D0DFF87C2071
:102AF00090421FD0DFF8782090421BD0DFF874207E
:102B0000904217D0DFF87020904213D0DFF86C208D
:102B100090420FD0DFF8682090420BD0DFF864209D
:102B2000904207D0DFF86020904203D0DFF85C20AD
:102B3000904203D133F44073CA68134333F08003E7
:102B40004A69134303608A68C2620A688262054A5E
:102B5000904202D0074A904201D10A6902630122E1
:102B6000426170470000014000040040000800403E
:102B7000000C0040000401400040014000440140BE
:102B80000048014000180040001C004000200040A8
:102B900030B4056A2C00056A6D086D000562856910
:102BA0002B0033F0F00353EA021334F00A040C4311
:102BB0008361046230BC704730B4056A35F010059B
:102BC000056285692B00056A2C0033F4704353EAD3
:102BD000023334F0A00454EA01148361046230BC6F
:102BE00070478268130033F0700351F007021343FB
:102BF0008360704730B485682C0034F47F4452EA17
:102C0000010555EA03252C43846030BC7047000061
:102C1000C0B210490860704770B400240E4D2D6892
:102C20000C4E366806FB00F631000C4E366832005A
:102C30000A4E366833009342FAD0934202D21419F6
:102C4000E41A02E02C19E41A14191A008C42EFD38A
:102C500070BC70478C14002014E000E018E000E025
:102C600038B5040000200500A4B2A54205D24FF4F7
:102C70007A70FFF7D1FF6D1CF6E731BD2DE9F843FF
:102C800004000D00002C01D0002D01D1002024E013
:102C9000200000F053FD0700280000F04FFD8046A3
:102CA00040463900C0B2C9B2884201D3002014E0C6
:102CB00000265FF000092900200000F040FF060018
:102CC000002E01D1002008E05FFA88F806EB08002A
:102CD0008146B9EB04042000C0B2BDE8F28370B5B0
:102CE00086B004000D0068461749122200F052FD1C
:102CF0006946280000F02CF8684600F01FFD01002E
:102D000089B2292904DB002006003000C0B219E096
:102D100028780E4A1278904204D101200600300033
:102D2000C0B20FE02878242804D102200600300029
:102D3000C0B207E02878672804D1032006003000DD
:102D4000C0B2FFE706B070BDBC43000836240008DF
:102D50005FEA000C80EA01039B0715D1830706D0C8
:102D600011F8013B00F8013BB3B18307F8D10A68C1
:102D7000B2F1013323EA020313F0803F02BF40F8AF
:102D8000042B51F8042FF3E711F8013B00F8013B45
:102D900013B111F8013BF9E76046704738B50400FC
:102DA000002C01D1012020E04CF6CC4021680860C5
:102DB00045F2555021680860606821684860A06845
:102DC00021688860FEF720F805002068C0680028A8
:102DD00006D0FEF719F8401B3128F6D3032004E093
:102DE0004AF6AA2021680860002032BD01004AF698
:102DF000AA200A681060002070470000F8B504009F
:102E0000002C01D10120EAE12078C0076FD5DFF85E
:102E1000D003006810F00C0004280BD0DFF8C003CA
:102E2000006810F00C0008280ED1DFF8B803006825
:102E3000400209D5DFF8B0030068800357D5606809
:102E4000002854D10120CAE16068B0F5803F08D164
:102E5000DFF89403006850F48030DFF88C130860CA
:102E600024E06068B0F5A02F10D1DFF87C03006883
:102E700050F48020DFF870130860DFF86C030068FE
:102E800050F48030DFF8601308600FE0DFF858037B
:102E9000006830F48030DFF850130860DFF8480332
:102EA000006830F48020DFF8401308606068002874
:102EB0000ED0FDF7A9FF0500DFF82C0300688003A2
:102EC00015D4FDF7A1FF401B6528F5D3032086E14B
:102ED000FDF79AFF0500DFF810030068800306D5B0
:102EE000FDF792FF401B6528F5D3032077E120789A
:102EF000800754D5DFF8E802006810F00C0F0BD003
:102F0000DFF8DC02006810F00C00082818D1DFF8A8
:102F1000D4020068400213D4DFF8CC0200688007B6
:102F200004D5E068012801D0012058E1AE480068CE
:102F300030F0F800216950EAC100AB4908602EE08A
:102F4000E06800281AD00120A8490860FDF75CFF5E
:102F50000500A5480068800706D4FDF755FF401B13
:102F60000328F6D303203AE19F48006830F0F800C8
:102F7000216950EAC1009C49086010E000209B498B
:102F80000860FDF741FF050097480068800706D5F7
:102F9000FDF73AFF401B0328F6D303201FE12078FA
:102FA000000724D56069002810D0012090490860EE
:102FB000FDF72AFF05008F480068800717D4FDF74A
:102FC00023FF401B0328F6D3032008E10020884993
:102FD0000860FDF719FF050086480068800706D5E0
:102FE000FDF712FF401B0328F6D30320F7E02078FB
:102FF000400740F17F8000277F480068C0000FD461
:10300000002000907C48006850F080507A490860A9
:103010007948006810F08050009000980120070067
:1030200076480068C00513D47448006850F4807076
:1030300072490860FDF7E8FE050070480068C005A9
:1030400006D4FDF7E1FE401B0328F6D30320C6E0BB
:10305000A068012806D16A48006850F0010068495C
:1030600008601BE0A06805280CD16548006850F096
:103070000400634908606248006850F0010060493C
:1030800008600BE05E480068400840005C4908604A
:103090005B48006830F0040059490860A0680028C7
:1030A0000FD0FDF7B1FE050055480068800718D421
:1030B000FDF7AAFE401B41F289318842F4D3032078
:1030C0008DE0FDF7A1FE05004D480068800708D59A
:1030D000FDF79AFE401B41F289318842F4D3032068
:1030E0007DE0FFB2012F05D14348006830F08050E9
:1030F00041490860A069002870D03948006810F084
:103100000C00082846D0A069022832D100203D4991
:103110000860FDF779FE050033480068800106D598
:10312000FDF772FE401B0328F6D3032057E0E16948
:10313000206A0143606A51EA8011A06A801EC003C0
:10314000000C00040143E06A51EA00612548016077
:1031500001202C490860FDF757FE05002248006851
:1031600080013BD4FDF750FE401B0328F6D303201B
:1031700035E0002023490860FDF746FE05001A48A7
:10318000006880012AD5FDF73FFE401B0328F6D3D7
:10319000032024E0A069012801D101201FE011488B
:1031A0000068060016F48000E169884214D116F028
:1031B0003F00216A88420FD147F6C0703040616AF3
:1031C000884209D116F44030A16A884204D116F031
:1031D0007060E16A884201D0012000E00020F2BD69
:1031E00008380240043802400038024000004742DC
:1031F000800E474274380240403802400070004060
:10320000703802406000474210F00703DFF82411D5
:1032100009680A004FF6FF010A40DFF81C1151EA65
:1032200003210A43DFF80C110A607047DFF804013C
:103230000068C0F30220704740B2002809D4012280
:1032400010F01F018A403D4940B203005B0941F87C
:103250002320704710B440B2002804D40A01384B30
:1032600040B21A5407E00A01364B40B210F00F0486
:10327000234403F8042C10BC704770B4030013F00F
:103280000704D4F10706052E01D3042001E0D4F190
:103290000700261D072E01D2002500E0E51E0126AD
:1032A00016FA00F0401E0140A940012010FA05F571
:1032B0006D1E2A401143080070BC704710B5040011
:1032C000601EB0F1807F01D301200EE0601E1E4918
:1032D00008600F215FF0FF30FFF7BCFF00201B49A3
:1032E000086007201A490860002010BD10B50400CE
:1032F0002000FFF789FF10BDF8B504000D0016008F
:103300000027FFF793FF0700320029003800FFF77E
:10331000B4FF0100200040B2FFF79CFFF1BD10B5E3
:103320000400200040B2FFF787FF10BD80B5FFF713
:10333000C5FF02BD0CED00E00000FA0500E100E071
:1033400000E400E018ED00E014E000E018E000E028
:1033500010E000E010B504004FF47A700D490978D0
:10336000B0FBF1F00C490968B1FBF0F0FFF7DEFFAC
:10337000002801D001200CE0102C09D200222100ED
:103380005FF0FF30FFF7B8FF04480460002000E062
:10339000012010BDD00400203C040020380400208F
:1033A0007047000000B500BF1300964694461039E0
:1033B00028BFA0E80C50FAD85FEA417C28BF0CC0B7
:1033C00048BF40F8042BC90728BF20F8022B48BF8C
:1033D00000F8012B00BD70B505461C0008461646D6
:1033E00004D016F8011BA847641EFAD170BD2DE960
:1033F000F04585B080468A4617461D4607E0012302
:103400003A4651464046FFF7E6FF82467F1C387831
:10341000E0B12528F3D17978BF1C252912D058298D
:103420005AD0632915D0642918BF692918D06F298B
:1034300052D0702956D073295BD0752918BF7829CE
:103440004AD0E4E75046C0478246E0E705B0BDE811
:10345000F0852868286050F8041B2860C9B2F1E79D
:103460002868286050F8046B2860002E03D52D21B1
:103470005046C047824664216F2908BF082305D003
:1034800041F02000782814BF0A2310230B2464295C
:10349000304602D1002E48BF4042B0FBF3FC03FB94
:1034A0001C003030641EC0B23A28A4BFA1F1510202
:1034B00010180DF804005FEA0C0001D0002CECDCC1
:1034C0000DEB0406D4F10B045046BDD016F8011BD9
:1034D000C047641EFAD1B7E72868286050F8046B2B
:1034E0002860C9E728682860782150F8046B2860B4
:1034F000C2E72868286050F8046B2860304600F066
:103500001DF9040050469FD016F8011BC047641EE9
:10351000FAD199E72DE9F84F84B00C4615460BB166
:1035200000221A608046464600E0761C307800F0A3
:103530001CFB0028F9D130782D2816BF2B2816F84F
:10354000019B4FF02B09002D48D4012D46D0252D8D
:1035500044DA002D0ADD102D04BF3078302802BF78
:10356000717841F0200178290ED10AE030783028B6
:1035700018BF0A2508D1707840F02000782802D1C1
:103580001025B61C00E00825029600E0761C307875
:103590003028FBD04FF0000A0FF2980137468DF823
:1035A0000010CDF804A009E09DF80010CDF804A0AB
:1035B000401A5FFA80FB05FB0ABA761C307800F0EF
:1035C000DEFA01462A460FF26C0000F0E3FA00280A
:1035D000EAD1029A0199B242504604D10CB1C4F822
:1035E000008000201DE00FF27402F71B525DBF1A2D
:1035F000002F10D406DCB0EB0B0303D3B3FBF5F2C2
:103600008A4208D0AFF30080049808B1012101601C
:103610004FF0FF3003E0B9F12D0F08BF404204B175
:10362000266005B0BDE8F08FFFE700230A220021E5
:1036300070E7000030313233343536373839616263
:10364000636465666768696A6B6C6D6E6F707172D2
:10365000737475767778797A000000000000211580
:10366000110E0D0C0B0B0A0A0909090909080808B3
:1036700008080808070707070707070707070707D6
:103680000700000001B58B071AD1830724D1121F50
:1036900021D351F8043BA3F1013C2CEA030C1CF0AC
:1036A000803C04BF40F8043BF1E79CFA8CFCBCFA78
:1036B0008CF1C1F118018B40CB4040F8043B13E082
:1036C000042A09D311F8013B521E00F8013B5BB1FB
:1036D0008B07F7D1D9E7121D5AB111F8013B521EE1
:1036E00000F8013B03B1F8D111001CBF0022FEF726
:1036F00073FE01BD38B504000D4609D0204600F028
:1037000038F80444207848B90B4A0021116032BDD2
:1037100009480468002CF1D1002032BD294620461A
:1037200000F064FA2118087810B1002201F8012B8A
:103730002046014A116032BD9414002000F10103BB
:10374000810704D010F8011B89B18107FAD1026802
:10375000B2F10131914311F0803F04BF50F8042FC2
:10376000F6E710F8011B11B110F8011BFBE7C01AB6
:10377000704770B4044604E015F8016BB34203D1FE
:10378000641C23781BB10D462A78002AF4D1201A34
:1037900070BC704762B38B0708D0521E11F8013B12
:1037A00000F8013B00F024808B07F6D1830740F03E
:1037B000208000BF103A07D330B4B1E83810103A77
:1037C000A0E83810F9D230BC530724BFB1E8081084
:1037D000A0E8081044BF51F8043B40F8043BD2076E
:1037E00024BF31F8022B20F8022B44BF0B78037062
:1037F0007047121F17D35B0009D151F8043B20F822
:10380000023B1B0C121F20F8023BF6D20BE051F8D2
:10381000043B00F8013B1B0A20F8023B1B0C121F63
:1038200000F8013BF3D238BF121D521E24BF11F81D
:10383000013B00F8013BF8D8704700000278C9B29C
:103840008A421AB11CBF10F8012FF9E718BF0020F7
:10385000704700000068704701004848814201D26B
:10386000002032E04648814201D201202DE0454847
:10387000814201D2022028E04348814201D2032044
:1038800023E04248814201D204201EE040488142A8
:1038900001D2052019E03F48814201D2062014E000
:1038A0003D48814201D207200FE03C48814201D2CD
:1038B00008200AE03A48814201D2092005E039484F
:1038C000814201D20A2000E00B2070472DE9F0432D
:1038D00087B005000E0017000024002000905FF064
:1038E00000095FF00008B5F1006F02D315F0030F77
:1038F00000D03FE000F0D7F9A94615EB87008046DD
:10390000294881451FD2C1451DD24846FFF7A2FF75
:1039100010F1010F10D0002001904846FFF79CFFE6
:1039200003900120049002200590694601A800F050
:10393000A3FA002802D006E019F104094CF2503035
:1039400000F0CCF9DFE74CF2503000F0C7F904008A
:10395000E4B2002C0CD145450AD23268002329007C
:10396000022000F055F9002802D12D1D361DF2E786
:1039700000F0ACF907B0BDE8F0830000004000089B
:103980000080000800C000080000010800000208D4
:1039900000000408000006080000080800000A08EB
:1039A00000000C0800000E080000FF1F81B000207E
:1039B00000900E48006850F480400C4908600B48A5
:1039C000006810F4804000900098002000900848A3
:1039D000006850F08050064908600548006810F003
:1039E00080500090009801B0704700BF44380240FA
:1039F0004038024030B4020092F83C00012801D166
:103A000002203EE0012082F83C00022082F83D00C6
:103A100010684068040010688068030034F0700487
:103A200008680443106844601068174DA8421BD012
:103A30001068B0F1804F17D01068144DA84213D011
:103A40001068134DA8420FD01068124DA8420BD039
:103A50001068114DA84207D01068104DA84203D03D
:103A600010680F4DA84205D133F080034868034326
:103A700010688360012082F83D00002082F83C003D
:103A8000002030BC704700000000014000040040EE
:103A900000080040000C00400004014000400140CC
:103AA0000018004010B50400002C01D101203FE0B7
:103AB000606A00280020A06294F85100002805D117
:103AC000002084F850002000FEF72BFE022084F82E
:103AD00051002068006830F040002168086061688B
:103AE000A0680143E0680143206901436069014324
:103AF000A06910F400700143E0690143206A0143AA
:103B0000A06A014320680160A169090C11F0040159
:103B1000606A0143206841602068C06930F4006039
:103B20002168C86100206065012084F851000020F0
:103B300010BD70477047704770477047704770B549
:103B40000D462C7834B970BD11F8013F1678B34298
:103B500006D0401C2146FFF771FE28B101462A46D7
:103B600012F8013F002BEFD170BD10B5044600F0F4
:103B700083FA01462046096ABDE81040084710B59F
:103B8000044600F079FA01462046896ABDE81040F3
:103B900008470000C9B2830706D0521E22D310F88E
:103BA000013B9942F7D11FE0083A13D302F1040216
:103BB00041EA012141EA014150F8043B121F21BFB3
:103BC0004B40A3F1013C2CEA030C1CF0803FF3D0E6
:103BD000C9B2001F083210F8013B521E28BF91EAFB
:103BE000030FF8D818BF0120401E704770B4044678
:103BF00000E0641C23783BB10D462A78002AF8D0F7
:103C000015F8016BB342F8D1201A70BC7047000060
:103C10002DE9F0410600884614001D000127DFF859
:103C20004002007E012801D102203AE00120DFF8A5
:103C3000301208764CF2503000F050F80700FFB216
:103C4000002F28D1002E05D12100C9B2404600F036
:103C5000B2F813E0012E05D1210089B2404600F0F0
:103C600096F80BE0022E04D12100404600F07BF8CC
:103C700004E022002B00404600F05BF84CF250308C
:103C800000F02CF80700DFF8DC0100684008400075
:103C9000DFF8D01108600020DFF8C4110876380082
:103CA000C0B2BDE8F08100206E49096800290BD53B
:103CB0006E496F4A11606F496D4A11606949096820
:103CC000002901D501210800C0B27047654800688D
:103CD00050F00040634908600020704738B5040088
:103CE000002500205E49C861FDF78EF805005E489A
:103CF0000068C0030BD514F1010FF8D0002C04D0DC
:103D0000FDF782F8401B8442F1D2032010E05648B0
:103D10000068C00702D50120534908605248006876
:103D200010F0F20F03D000F058F8012000E000205E
:103D300032BD10B44B49096831F44071494C2160DF
:103D40004849096851F44071464C21604549096869
:103D500051F00101434C21600260BFF36F8F011DE0
:103D60000B6010BC70473F4A126832F440723D4B02
:103D70001A603C4A126852F400723A4B1A60394A8F
:103D8000126852F00102374B1A6001607047354AE1
:103D9000126832F44072334B1A60324A126852F49D
:103DA0008072304B1A602F4A126852F001022D4B7C
:103DB0001A60018070472B4A126832F44072294B16
:103DC0001A60284A1268274B1A60264A126852F075
:103DD0000102244B1A600170704723480068C00636
:103DE00008D51F48C06950F010001D49C861102057
:103DF0001D4908601C480068800608D51848C0693D
:103E000050F008001649C86120201749086016487C
:103E10000068400608D51248C06950F004001049F7
:103E2000C8614020104908600F480068000608D5A6
:103E30000B48C06950F002000949C86180200A4956
:103E4000086009480068800708D50548C06950F037
:103E500020000349C8610220034908607047000040
:103E600024140020103C02400C3C02402301674512
:103E7000043C0240AB89EFCDF8B505000E000124EB
:103E80000027DFF8BC01007E012801D102204CE0B0
:103E90000120DFF8AC1108764CF25030FFF71EFF1E
:103EA0000400E4B2002C3AD15FF0FF3030602868A3
:103EB000012812D169682869C0B200F037F84CF2C5
:103EC0005030FFF70BFF0400DFF87801006830F096
:103ED0000400DFF8701108601FE0A8680700E968B7
:103EE000A86841188F4218D22969C9B2380000F079
:103EF00033F84CF25030FFF7F1FE0400DFF84401D4
:103F0000006830F0FA00DFF83C110860E4B2002CE1
:103F100001D0376001E07F1CE1E700F057F8002096
:103F2000DFF81C1108762000C0B2F2BD454A1268C5
:103F300032F44072434B1A60424A126852F0040253
:103F4000404B1A603F4A1268C0B2030253F48033F8
:103F50001A433C4B1A60704710B40022C9B20029C2
:103F600002D100231A0010E0C9B2012903D14FF495
:103F700080731A0009E0C9B2022903D14FF400731B
:103F80001A0002E04FF440731A002E4B1B6833F402
:103F900040732C4C23602B4B1B681343294C23602C
:103FA000284B1B6833F0F803264C2360254B1B6815
:103FB000C40054F002042343224C2360214B1B68AD
:103FC00053F480331F4C236010BC70471E480068B8
:103FD000800517D51C48006830F400701A49086045
:103FE0001948006850F400601749086016480068D6
:103FF00030F40060144908601348006850F4007001
:104000001149086010480068400517D50E4800683F
:1040100030F480600C4908600B48006850F4805010
:10402000094908600848006830F480500649086073
:104030000548006850F4806003490860704700003C
:1040400024140020103C0240003C0240FFE74138AD
:104050001A288041C00F7047A0F10901052901D33A
:10406000202801D10120704700207047A0F14101B4
:104070001A2938BF2030704700487047400400209C
:104080007047FEE7FEE7FEE7FEE7704770477047C0
:1040900080B500F021F801BD80B50B48FEF7CCFBE0
:1040A00001BD80B50948FCF7DBF90848FCF771FE53
:1040B00001BD80B50648FCF7C8FF01BD80B50548C5
:1040C000FCF7C3FF01BD000084130020C4130020CF
:1040D000D8110020381200200348006803490978ED
:1040E000401801490860704790140020D004002057
:1040F000547970652077726F6E6720636F6D6D61A4
:104100006E64202C706C6561736520747970652015
:104110002D6820746F2073686F7720746865206342
:104120006F6D6D616E64206C6973742E0000000009
:1041300019E050F8042BD30744BFA9F101039A18E2
:10414000091F0023042942F8043BF9D25FEA817C6D
:10415000134604D54FF0000CA2F800C09B1CC90701
:1041600044BF0021197050F8041B0029E1D17047A9
:104170000D0A205468652061626F7665206973209E
:10418000746865206E6574776F726B20636F6E66FE
:10419000696775726174696F6E20796F7520656EDD
:1041A00074657265642E00000D0A20496620796FDF
:1041B00075206E65656420746F2077726974652060
:1041C000746F20454550524F4D202C20706C656116
:1041D00073652074797065202D77210049662079F8
:1041E0006F75206E65656420736F6D652068656C02
:1041F00070202C20706C6573652074797065202D9B
:104200006800000010B5074979441831064C7C4419
:10421000163404E00A68081D114488470146A1428B
:10422000F8D110BD74000000900000000D0A204776
:1042300061746577617920495020416464726573C7
:10424000733A2025642E25642E25642E25640000F3
:104250000D0A204D414320416464726573733A2016
:1042600025583A25583A25583A25583A25583A2596
:1042700058000000536F6D657468696E672077722F
:104280006F6E672C446920796F7520747970652092
:10429000272D273F200D0A0099FEFFFFC40B0000C9
:1042A000D808002000000000B7D0FFFFBA020000CD
:1042B00030030000000000200D0A20554152543107
:1042C0002049646C652049515220446574656374CB
:1042D0006564200D0A0000000D0A20495020416449
:1042E00064726573733A2025642E25642E25642E2E
:1042F000256400000D0A205375626E6574206D619F
:10430000736B3A2025642E25642E25642E256400C7
:10431000526563656976652044617461286C656ED9
:10432000677468203D202564293A000000F00BF8EE
:10433000002801D0FFF766FF0020AFF30080FDF7F3
:104340004BF800F002F80120704700F001B80000BF
:104350000746384600F002F8FBE7000080B5AFF3EF
:104360000080024A11001820ABBEFBE726000200C5
:1043700038B504460D46284600F006F8A84218BF96
:104380000024204632BD00000149FCF7C4BC00BF38
:1043900088040020313233343536373839304142E1
:1043A000434445460000000053544D333220464CF0
:1043B0004153482054455354000000003A434C5F99
:1043C000726F74656E635F747970653D33000000D1
:1043D00000000000000000000102030406070809B5
:1043E0000148804701480047F14300080D44000898
:1043F0005FF00060014908607047000008ED00E0D0
:10440000313233343536373839300000AFF300807D
:10441000AFF30080FFF78AFF0006101600061016A3
:104420000000000001020304000000000000000082
:10443000FFF7FEBFFFF7FEBFFFF7FEBFFFF7FEBFB0
:10444000FFF7FEBFFFF7FEBFFFF7FEBFFFF7FEBFA0
:10445000FFF7FEBFFFF7FEBFFFF7FEBFFFF7FEBF90
:10446000FFF7FEBFFFF7FEBFFFF7FEBFFFF7FEBF80
:10447000FFF7FEBFFFF7FEBFFFF7FEBFFFF7FEBF70
:10448000FFF7FEBFFFF7FEBFFFF7FEBFFFF7FEBF60
:10449000FFF7FEBFFFF7FEBFFFF7FEBFFFF7FEBF50
:1044A000FFF7FEBFFFF7FEBFFFF7FEBFFFF7FEBF40
:1044B000FFF7FEBFFFF7FEBFFFF7FEBFFFF7FEBF30
:1044C000FFF7FEBFFFF7FEBFFFF7FEBFFFF7FEBF20
:1044D000FFF7FEBFFFF7FEBFFFF7FEBFFFF7FEBF10
:1044E000FFF7FEBFFFF7FEBFFFF7FEBFFFF7FEBF00
:1044F000FFF7FEBFFFF7FEBFFFF7FEBFFFF7FEBFF0
:10450000FFF7FEBFFFF7FEBFFFF7FEBFFFF7FEBFDF
:10451000FFF7FEBFFFF7FEBFFFF7FEBFFFF7FEBFCF
:10452000FFF7FEBFFFF7FEBFFFF7FEBFFFF7FEBFBF
:10453000FFF7FEBFFFF7FEBFFFF7FEBFFFF7FEBFAF
:10454000FFF7FEBFFFF7FEBFFFF7FEBFFFF7FEBF9F
:10455000FFF7FEBFFFF7FEBFFFF7FEBFFFF7FEBF8F
:10456000FFF7FEBF43003005647361666173640446
:10457000E0123A434C5F726F74656E635F747970DA
:10458000653D3330000014120001F001140D0A20C3
:1045900001A0030D0A0D0A2A01B00A2045617379B2
:1045A000205368656C6C2019100D0D0A436F6D6DFA
:1045B000616E64204C6973743A3A232D6864100765
:1045C00053686F77207468652033600C7020696EC3
:1045D000666F726D6174696F6E20841112100A200B
:1045E0006578616D706C653A203E3E372176332DDB
:1045F000693EF00B0865742049502061646472655F
:10460000737333400E69203139322E3136382E31F2
:1046100037382E353942626D4270014D414343F1C6
:104620000844100E6D2039343A37353A43453A3252
:10463000413A31330C414762734710027375626E21
:1046400007F002016D61736B47436C704730047370
:10465000203235352E04400234302E304362674319
:10466000F0051347617465776179D4600367203181
:10467000302E03414722702A34035072696E7452FF
:10468000118DF40B0D776F726B20636F6E66696727
:1046900075725742704422771EF0030A577269748C
:1046A0006544F00708746F20454550524F4D4E1237
:1046B000771AF2FF0001F199012403401300201042
:1046C000C0F4060A24F4006445000801CC10035924
:1046D0004000084D04126D04F10327613C200602DE
:1046E000040101F01200205C21082104211B610853
:0E46F000F8060FCC040020B8040020370201A9
:040000050800440D9E
:00000001FF
