:020000040800F2
:10000000A008002015410008B53E0008B73E0008D2
:10001000B93E0008BB3E0008BD3E000800000000DD
:10002000000000000000000000000000BF3E0008CB
:10003000C13E000800000000C33E0008C53E0008A5
:1000400065410008694100086D41000871410008E0
:1000500075410008794100087D4100088141000890
:1000600085410008894100088D4100089141000840
:1000700095410008994100089D410008A1410008F0
:10008000A5410008A9410008AD410008B1410008A0
:10009000B5410008B9410008BD410008C141000850
:1000A000C5410008C9410008CD410008D141000800
:1000B000D5410008CD3E0008D9410008DD410008C7
:1000C000E1410008E5410008E9410008ED41000870
:1000D000F1410008D73E0008F5410008F941000849
:1000E000FD410008014200080542000809420008DD
:1000F0000D4200081142000815420008194200088C
:100100001D4200082142000825420008294200083B
:100110002D420008314200083542000839420008EB
:100120003D42000841420008E73E00084542000801
:10013000494200084D42000851420008554200085B
:10014000594200085D42000861420008654200080B
:10015000694200086D420008F13E00087142000843
:1001600075420008794200087D420008814200087B
:1001700085420008894200088D4200080000000006
:10018000914200089542000810B50400002C01D1EE
:10019000012033E0A0690028FFD194F8390000283D
:1001A00005D1002084F83800200000F013FD242041
:1001B00084F839002068C06830F400502168C860B5
:1001C000200000F04BFB2068006930F4904021686B
:1001D00008612068406930F02A0021684861206881
:1001E000C06850F400502168C8600020E0632020FF
:1001F00084F83900202084F83A00002010BD2DE951
:10020000F84306000C0015001F005FF0000996F887
:10021000390020285FD1002C02D0ADB2002D01D1D1
:10022000012059E096F83800012801D1022053E05E
:10023000012086F838000020F063212086F839007C
:1002400000F0E2FD8146B584F584002086F8380090
:10025000F08C00282FD0F08C401EF084B068B0F5F0
:10026000805F18D100974B4600228021300000F0BB
:10027000F9F9002801D003202EE0A046B8F80000CC
:10028000C005C00D316848603069002801D1A41C48
:10029000DEE7641CDCE700974B460022802130003B
:1002A00000F0E0F9002801D0032015E02078316843
:1002B0004860641CCCE700974B4600224021300088
:1002C00000F0D0F9002801D0032005E0202086F8B6
:1002D0003900002000E00220BDE8F28310B40300E2
:1002E00093F83900202822D1002902D092B2002AA6
:1002F00001D101201CE093F83800012801D102202F
:1003000016E0012083F8380019629A84DA8400200C
:10031000D863212083F83900002083F8380018685A
:10032000C06850F080001C68E060002000E00220FF
:1003300010BC704773B50500140095F83A002028EA
:1003400051D10198002802D0A4B2002C01D1012083
:100350004AE095F83800012801D1022044E001204C
:1003600085F838000198A862AC850020E863222057
:1003700085F83A000FF23D20696BC8630FF27920CF
:10038000696B08640FF28120696BC8640020696B97
:10039000086501A80600A4B2230032682868011D80
:1003A000686B00F0AAFD00200090286800680090AB
:1003B0002868406800900098002085F83800286878
:1003C000C06850F480702968C8602868406950F09F
:1003D0000100296848612868406950F04000296898
:1003E0004861002000E0022076BD38B505000024F9
:1003F00028684069C00910F00100040095F8390030
:10040000212810D1002C0ED02868406930F08000DF
:1004100029684861286B002802D0286B00F0B3FDE2
:10042000280000F056F928684069800910F00100A2
:10043000040095F83A00222810D1002C0ED028682C
:10044000406930F0400029684861686B002802D09C
:10045000686B00F098FD280000F045F9002032BDDF
:100460002DE9F8430600306807683068D0F80C8042
:100470003068D0F814900024002517F00F00040015
:10048000002C08D1B80606D55FEA886003D5300095
:1004900000F08DF98BE0002C77D05FEAC97002D4B0
:1004A00018F4907F71D017F00100C0B2002806D078
:1004B0005FEAC85003D5F06B50F00100F063780795
:1004C00008D519F00100C0B2002803D0F06B50F03D
:1004D0000200F063B80708D519F00100C0B2002887
:1004E00003D0F06B50F00400F06338070BD55FEADF
:1004F000886004D419F00100C0B2002803D0F06B6A
:1005000050F00800F063F06B00283DD0B80605D528
:100510005FEA886002D5300000F049F93068406930
:10052000800910F001000500F06B000701D4002DD8
:1005300025D0300000F0D7F83068406940061AD561
:100540003068406930F0400031684861706B0028C5
:100550000DD00FF2B510716B0865706B00F061FD86
:10056000002811D0706B716B096D88470CE030006A
:1005700000F0F4FE08E0300000F0F0FE04E030008F
:1005800000F0ECFE0020F06311E0380606D55FEACB
:10059000086003D5300000F0C3F808E0780606D5FF
:1005A0005FEA486003D5300000F0F1F8FFE7BDE8EE
:1005B000F183000038B50400A56B20680068C00511
:1005C00016D40020E8852868C06830F48070296857
:1005D000C860286840694008400029684861286868
:1005E000406930F0400029684861202085F83A00D1
:1005F000280000F09DFF31BD38B50400A56B280030
:1006000000F098FF31BD000070B505000024AE6B0E
:1006100030684069C00910F00100040096F8390004
:10062000212806D1002C04D00020F084300000F0F6
:1006300050F830684069800910F00100040096F815
:100640003A00222806D1002C04D00020F08530008A
:1006500000F049F8F06B50F01000F063300000F04B
:100660007DFE70BD2DE9F04105000E001700984693
:10067000069C286800683040B04201D1012000E0AB
:100680000020FFB2B84221D114F1010FF1D0002CAB
:1006900005D000F0B9FBB0EB08008442E9D228682D
:1006A000C06830F4D0702968C86028684069400884
:1006B000400029684861202085F83900202085F80D
:1006C0003A00002085F83800032000E00020BDE853
:1006D000F0810168C96831F0C0010268D160202151
:1006E00080F8391070470168C96831F49071026868
:1006F000D1600168496949084900026851612021B7
:1007000080F83A107047000038B50400A56B00204F
:10071000E8850020E884280000F020FE31BD0000BC
:10072000010091F8390021282FD18868B0F5805F49
:1007300011D1086A02001088C005C00D0B6858600E
:100740000869002803D1086A801C086209E0086A69
:10075000401C086205E0086A431C0B6200780B68C5
:100760005860C88C401EC88480B200280BD108682D
:10077000C06830F080000B68D8600868C06850F02E
:1007800040000B68D860002000E00220704710B5E0
:1007900004002068C06830F040002168C860202054
:1007A00084F83900200000F0C6FE002010BD38B5E6
:1007B000040094F83A0022284ED1A068B0F5805F7A
:1007C00016D1A06A05002069002808D12068406879
:1007D000C005C00D2880A06A801CA0621AE02068B5
:1007E000406800F0FF002880A06A401CA06211E071
:1007F0002069002806D1A06A411CA16221684968CD
:10080000017007E0A06A411CA1622168496811F0EB
:100810007F010170E08D401EE08580B2002819D173
:100820002068C06830F020002168C8602068C06877
:1008300030F480702168C86020684069400840003A
:1008400021684861202084F83A00200000F070FE02
:10085000002002E0002000E0022032BD2DE9F0413E
:1008600004002068016931F44051E06801432068C8
:100870000161A1682069014360690143E0690143A6
:1008800088462068C168BF48014058EA01012068D5
:10089000C1602068416931F44071A069014320685A
:1008A0004161E069B0F5004F40F0B6802068B6497C
:1008B000884203D02068B549884256D100F0F0FE46
:1008C00005001920A0FB050162680223A3FB022397
:1008D00000F050FF6421B0FBF1F61920A0FB0501E8
:1008E00062680223A3FB022300F044FF07001920E3
:1008F000A0FB050162680223A3FB022300F03AFF7C
:100900006421B0FBF1F1642000FB1171C8003230AA
:100910006421B0FBF1F0400010F4F87010EB061009
:1009200006001920A0FB050162680223A3FB022335
:1009300000F020FF07001920A0FB050162680223D8
:10094000A3FB022300F016FF6421B0FBF1F1642049
:1009500000FB1171C80032306421B0FBF1F010F0DF
:10096000070080192168886009E100F08EFE05000B
:100970001920A0FB050162680223A3FB022300F0FB
:10098000F9FE6421B0FBF1F61920A0FB05016268B5
:100990000223A3FB022300F0EDFE07001920A0FBB9
:1009A000050162680223A3FB022300F0E3FE642139
:1009B000B0FBF1F1642000FB1171C80032306421FA
:1009C000B0FBF1F0400010F4F87010EB06100600D8
:1009D0001920A0FB050162680223A3FB022300F09B
:1009E000C9FE07001920A0FB050162680223A3FBD2
:1009F000022300F0BFFE6421B0FBF1F1642000FB94
:100A00001171C80032306421B0FBF1F010F0070022
:100A1000801921688860B2E020685B49884203D071
:100A200020685A49884255D100F03AFE0500192045
:100A3000A0FB050162680423A3FB022300F09AFED9
:100A40006421B0FBF1F61920A0FB050162680423C4
:100A5000A3FB022300F08EFE07001920A0FB050176
:100A600062680423A3FB022300F084FE6421B0FB30
:100A7000F1F1642000FB1171080132306421B0FBF8
:100A8000F1F010F0F00010EB061006001920A0FBAA
:100A9000050162680423A3FB022300F06BFE07003C
:100AA0001920A0FB050162680423A3FB022300F0C8
:100AB00061FE6421B0FBF1F1642000FB11710801BB
:100AC00032306421B0FBF1F010F00F008019216882
:100AD000886054E000F0D9FD05001920A0FB050155
:100AE00062680423A3FB022300F044FE6421B0FBF0
:100AF000F1F61920A0FB050162680423A3FB022381
:100B000000F038FE07001920A0FB050162680423ED
:100B1000A3FB022300F02EFE6421B0FBF1F1642060
:100B200000FB1171080132306421B0FBF1F010F0CC
:100B3000F00010EB061006001920A0FB050162680A
:100B40000423A3FB022300F015FE07001920A0FBDD
:100B5000050162680423A3FB022300F00BFE64215D
:100B6000B0FBF1F1642000FB117108013230642107
:100B7000B0FBF1F010F00F00801921688860BDE82B
:100B8000F0810000F369FFFF0010014000140140F4
:100B900080B59148914908605FF4E1308F49486021
:100BA00000208E49886000208C49C86000208B4955
:100BB00008610C208949486100208849886100202B
:100BC0008649C8618548FFF7DFFA002801D000F0A8
:100BD000B0FC01BD10B586B0040001A8142100F0DE
:100BE00041FE20687C49884240F0938000200090BC
:100BF0007B48006850F01000794908607848006828
:100C000010F01000009000980020009075480068D7
:100C100050F00100734908607248006810F001004C
:100C2000009000984FF40070019002200290002084
:100C30000390032004900720059001A96A4800F062
:100C400015FE4FF480600190022002900120039075
:100C5000032004900720059001A9634800F006FED8
:100C60006248634908605FF00060614948600020A5
:100C70005F49886000205E49C8604FF480605C492D
:100C8000086100205A4948610020594988614FF4A1
:100C900080705749C8615FF40030554908620020F0
:100CA00053494862524800F0B5F8002801D000F0DE
:100CB00040FC4F4860634E4884634E484E4908608C
:100CC0005FF000604C49486040204B49886000203C
:100CD0004949C8604FF4806047490861002046498F
:100CE000486100204449886100204349C8615FF49D
:100CF00080304149086200203F4948623E4800F088
:100D000089F8002801D000F014FC3B4820633A48E1
:100D1000846306B010BD11B581B00C004FF6FF73AF
:100D2000012201A92D48FFF76AFA019816BD2DE9A5
:100D3000F04104002948FFF758FB2D48006845683A
:100D4000D5F1FF05EDB229002C4800F0B9FE4FF4B3
:100D50000073EDB22A0092B229492048FFF74FFAFA
:100D60001CA000F0ADFE264801F048FAEDB22E00BE
:100D70000027DFF88C803A003100404601F0B0FADD
:100D800000200500FF221E491448FFF7D3FABDE8F2
:100D9000F08110B582B00400104800680E49884206
:100DA00015D10E4800680068C00610D500200090DC
:100DB0000A48006800680090084800684068009091
:100DC0000098104800F07CFE2000FFF7B0FF13BD34
:100DD000000000000D0A0000001001408C0B0020F4
:100DE0004438024030380240000002404064024073
:100DF000A0090020B8640240000A00205840000802
:100E0000A00800203840000801480068704700BF73
:100E1000440C0020F8B504000027FFF7F5FF05009B
:100E2000002C01D1012067E0606A0028002084F8CE
:100E30003400022084F83500206800684008400033
:100E40002168086020680068C0070BD5FFF7DCFF49
:100E5000401B0628F6D320206065032084F8350067
:100E6000032049E0206800680700DFF848040740D5
:100E70006168A0680143E06801432069014360693B
:100E80000143A0690143E0690143206A01430F4324
:100E9000606A042803D1E16A206B01430F43206894
:100EA0000760206840690700FF08FF00606A074389
:100EB000606A042810D1A06A0743E06A00280BD0BA
:100EC000200000F0FDF9002806D0402060650120D8
:100ED00084F8350001200FE020684761200000F011
:100EE000D0F906003F21E06D8140B16000206065CF
:100EF000012084F835000020F2BD2DE9F8430400FC
:100F00000D0016001F005FF00008D4F8589094F808
:100F10003400012801D1022033E0012084F834009C
:100F200094F83500012825D1022084F835000020EE
:100F300060653B0032002900200000F08BF93F2162
:100F4000E06D8140C9F808102068006850F0160074
:100F500021680860206C002805D02068006850F0E7
:100F60000800216808602068006850F001002168CE
:100F7000086004E0002084F83400022080464046E7
:100F8000C0B2BDE8F28370B50400A56DFFF73CFF69
:100F9000060094F83500022806D080206065002005
:100FA00084F8340001203BE02068006830F016002F
:100FB000216808602068406930F08000216848613D
:100FC000206C002802D1A06C002805D020680068A1
:100FD00030F0080021680860206800684008400080
:100FE0002168086020680068C0070ED5FFF70CFF75
:100FF000801B0628F6D320206065002084F834008A
:10100000032084F8350003200AE03F21E06D814091
:10101000A960002084F83400012084F83500002005
:1010200070BD010091F83500022803D0802048658A
:10103000012009E0052081F83500086800684008B3
:1010400040000A68106000207047F8B504000020D6
:101050000090DFF8640200684FF41651B0FBF1F61F
:10106000A76D386805000821E06D81400D4211D060
:101070002068006840070DD52068006830F0040043
:10108000216808600821E06D8140B960606D50F012
:1010900001006065E06D2900C140C8070BD52068DC
:1010A0004069000607D50121E06D8140B960606D9F
:1010B00050F0020060650421E06D81400D420BD0CC
:1010C00020680068800707D50421E06D8140B96081
:1010D000606D50F0040060651021E06D81400D42AC
:1010E0002DD020680068000729D51021E06D8140CF
:1010F000B96020680068400311D5206800680003CB
:1011000006D4206C00281AD02000216C884716E0F5
:10111000A06C002813D02000A16C88470FE0206845
:101120000068C00505D42068006830F00800216818
:101130000860206C002802D02000216C8847202104
:10114000E06D81400D4260D020680068C0065CD52B
:101150002021E06D8140B96094F83500052828D140
:101160002068006830F01600216808602068406937
:1011700030F0800021684861206C002802D1A06C0A
:10118000002805D02068006830F008002168086059
:101190003F21E06D8140B960002084F834000120D7
:1011A00084F83500206D002802D02000216D88478A
:1011B0004FE020680068400311D5206800680003F4
:1011C00006D4606C002820D02000616C88471CE0A9
:1011D000E06B002819D02000E16B884715E02068FB
:1011E0000068C0050BD42068006830F0100021684A
:1011F0000860002084F83400012084F83500E06B9A
:10120000002802D02000E16B8847606D002820D0C4
:10121000606DC00717D5052084F835002068006888
:1012200040084000216808600098401C00908642F9
:1012300003D320680068C007F6D4002084F8340087
:10124000012084F83500E06C002802D02000E16C19
:101250008847F1BD30B40468246834F480240568FC
:101260002C60046863608468402C04D10468A26028
:101270000468E16003E00468A1600468E26030BCD7
:101280007047017801F0FF0110391822B1FBF2F12B
:101290000A4A525CC265042905D30268920A920286
:1012A000121D826503E00268920A92028265806DD7
:1012B000704700003F8010F0080400204C410008F7
:1012C00010B402000020936A9169002916D1002B06
:1012D00005D0022B03D008D3032B0DD00DE0D16A2B
:1012E000C90101D50121080035E0D16AB1F1C07F03
:1012F00001D1012108002EE02DE02CE09169B1F52B
:10130000005F18D1002B05D0022B03D005D3032B8F
:1013100009D00FE0012108001DE0D16AC90101D503
:101320000121080017E0D16AB1F1C07F01D101218C
:10133000080010E00FE019000029022902D9C91E97
:1013400003D008E00121080005E0D16AC90101D5F8
:1013500001210800FFE7C0B210BC70477047F0B42D
:10136000034618689D681A18586802EB5004C007B5
:1013700021D54D441FE0F0BC03F10C00704712F87A
:10138000017B05F8017B491EF9D1A0B1B60812F81E
:10139000011B06F00306032E08BF12F8016B01EBD8
:1013A00006214942801C294405D011F8016B05F83B
:1013B000016B401EF9D1A242DDD012F8016B16F08C
:1013C000030104BF12F8011BC91C30090F28DAD130
:1013D00012F8010B0F30D6E780B500F0B5FF00F032
:1013E00034F800F0D1FF01F061F801F081F8FFF767
:1013F000CFFB01F0EFF801F05DF900F08FF84FF44A
:1014000080623E493E48FEF769FF3E4801F086F99A
:10141000A82001F085FB3A480068C06850F0100031
:1014200037490968C860FF2237493548FEF782FF0F
:101430004FF48061354800F019FB4FF4FA7001F069
:1014400097FB334801F0CAFBF2E700B593B006A85A
:10145000302100F007FA01A8142100F003FA00205F
:1014600000902C48006850F080502A4908602948B4
:10147000006810F0805000900098002000902648EE
:10148000006850F48040244908602348006810F444
:10149000804000900098092006905FF4803007900B
:1014A00001200B9002200C905FF480000D9008202A
:1014B0000E904FF4A8700F9002201090042011900D
:1014C00006A801F093FB002801D000F032F80F20AD
:1014D000019002200290002003904FF4A05004904D
:1014E0004FF480500590052101A800F025F8002850
:1014F00001D000F01EF813B000BD00000000002075
:101500008C0B00204C0B0020A0080020001402408F
:10151000340C0020403802400070004080B50022AA
:101520000321252001F0E0FD252001F0F0FD01BDA3
:10153000704770477047704770B504000D00002C6D
:1015400001D101209DE05C48006810F00F00A84226
:1015500009D2594805705848006810F00F00A84299
:1015600001D001208DE02078800719D52078400730
:1015700005D55248006850F4E05050490860207882
:10158000000705D54D48006850F460404B4908609D
:101590004A48016831F0F001A06801434748016002
:1015A0002078C00736D56068012805D14448006816
:1015B000800313D4012064E06068022802D06068D0
:1015C000032805D13E480068800107D4012058E077
:1015D0003B480068800701D4012052E03748016889
:1015E000890889006068014334480160FFF70CFCFA
:1015F00006003248006810F00C006168B0EB810F03
:1016000008D0FFF701FC801B41F289318842F0D3FA
:10161000032036E02848006810F00F00854209D208
:10162000254805702448006810F00F00A84201D03A
:10163000012026E02078400707D52048016831F4D2
:10164000E051E06801431D4801602078000708D59B
:101650001A48006830F46040216950EAC100174917
:10166000086000F037F81749144A1268C2F30312F1
:10167000895CC840144908601448006801F062FDA4
:10168000002070BD10480068704780B5FFF7FAFF72
:101690000F490A4A1268C2F38222895CC84002BD1F
:1016A00080B5FFF7EFFF0A49044A1268C2F34232DD
:1016B000895CC84002BD0000003C0240083802407E
:1016C00000380240044100080804002004040020FF
:1016D00054410008F0B500240025002600272148C9
:1016E000006810F00C00002804D0042805D0082859
:1016F00006D032E01C48070031E01C4807002EE00D
:101700001B48006810F03F000400194800684002C0
:101710000CD517480068C0F388101449A1FB0001DC
:101720002200002300F026F805000BE010480068B6
:10173000C0F388100C49A1FB00012200002300F037
:1017400019F805000A480068C0F30140401C400039
:101750000600B5FBF6F0070001E00348070038007B
:10176000F0BD00BF083802400024F40000127A00E7
:10177000043802401B4213D1094236D12AB18446B3
:10178000B0FBF2F002FB10C2704701F001BDFCD3C8
:101790000022002370470B00020000210020704748
:1017A000904271EB030CF6D370B5B1FA81F4B3FA41
:1017B00083F52C1BA340C4F1200532FA05F6334310
:1017C000A2405FF00046E64002E05B085FEA3202BA
:1017D000841A71EB030524BF204629467641F4D3D1
:1017E00002000B003000002170BD012ACFD970B576
:1017F000140C20D0B1FA81F4B2FA82F5C4F12004BD
:101800006419B4F12006D6D3B2405FF00044F4402E
:10181000002502E052085FEA3303C61A71EB020E9C
:1018200024BF3046714664416D41F3D302000B0082
:101830002000290070BD0C46B1FBF2F102FB1145FE
:101840002D0445EA1045B5FBF2F402FB145580B2B5
:1018500040EA0545B5FBF2F002FB105240EA0440B5
:1018600070BD2E00002201F095BC3A00F8B40024AF
:101870000025002600221300102B80F0EB800122AF
:101880009A4014000A6822401500A54240F0E0800A
:101890004A68012A08D04A68022A05D04A68112AF3
:1018A00002D04A68122A19D18268160003271A004A
:1018B000D2B252009740BE43CF681A00D2B2520053
:1018C00097403E4386604268160001229A40964344
:1018D0004A68C2F300129A4016434660C268160076
:1018E00003271A00D2B252009740BE438F681A00F5
:1018F000D2B2520097403E43C6604A68022A02D0E4
:101900004A68122A18D11A00D20800EB8202126A21
:1019100016000F2713F00702D2B292009740BE4381
:101920000F6913F00702D2B2920097403E431A00AB
:10193000D20800EB820216620268160003271A0022
:10194000D2B252009740BE430F7917F003071A0036
:10195000D2B2520097403E4306604A68D20077D523
:1019600000220092484A126852F48042464F3A6080
:10197000454A126812F480420092009A434A1F00BE
:10198000BF0852F8272016000F2713F00302D2B227
:1019900092009740BE433E4A904201D1002723E087
:1019A0003C4A904201D101271EE03B4A904201D1BE
:1019B000022719E0394A904201D1032714E0384A3E
:1019C000904201D104270FE0364A904201D1052709
:1019D0000AE0354A904201D1062705E0334A904299
:1019E00001D1072700E00827FFB213F00302D2B2AB
:1019F000920097403E43254A1F00BF0842F82760E7
:101A00002B4A12681600AE434A68D20300D52E4313
:101A1000274A1660274A12681600AE434A689203A6
:101A200000D52E43234A1660234A12681600AE439F
:101A30004A68D20200D52E431F4A16601F4A126818
:101A40001600AE434A68920200D52E431B4A166028
:101A50005B1C11E7F1BC7047D2B2002A02D089B2F8
:101A6000816102E089B20B0483617047426989B2E7
:101A70000A4089B28A4203D189B20A04826101E034
:101A800089B2816170470000443802400838014043
:101A9000000002400004024000080240000C024026
:101AA000001002400014024000180240001C0240D6
:101AB000003C0140043C0140083C01400C3C01401A
:101AC0000EB4C0B5024603A800210190009101ABFD
:101AD0000121044878440C3001F081FB06BC5DF81C
:101AE00010FB00BFD525000010B401000022012327
:101AF00000291DD008782B2802D14878002817D05B
:101B000008782D2802D14878002811D0087830288C
:101B100005D14878582802D18878002808D008785C
:101B2000302808D14878782805D18878002802D153
:101B30005FF0FF304AE00C0020782D2802D020789A
:101B40002B2807D120782D2802D15FF0FF30030029
:101B5000641C0CE02078302802D16078582805D029
:101B60002078302803D16078782800D1A41C207810
:101B7000002828D02078302808DB20783A2805DA99
:101B80002078120152FA80F2303A1AE02078412887
:101B900008DB2078472805DA2078120152FA80F213
:101BA000373A0EE02078612808DB2078672805DACC
:101BB0002078120152FA80F2573A02E07FF00100D9
:101BC00004E0641CD3E702FB03F2100010BC704772
:101BD00070B586B004000D0016006078692809D041
:101BE0006078732806D06078672803D060786D2805
:101BF00040F08F8068461821FFF734FE6078672830
:101C000040D0692804D06D2857D073281DD07EE0BD
:101C100015F1320001F000FC009015F1360001F0E2
:101C2000FBFB019015F13A0001F0F6FB029015F173
:101C30003E0001F0F1FB03900098B0730198F0733F
:101C4000029830740398707461E015F1100001F08F
:101C5000E3FB009015F1140001F0DEFB019015F19B
:101C6000180001F0D9FB029015F11C0001F0D4FB23
:101C7000039000983071019870710298B0710398C8
:101C8000F07144E0280001F0C7FB0090281D01F02E
:101C9000C3FB019015F1080001F0BEFB029015F1A5
:101CA0000C0001F0B9FB039000983070019870703F
:101CB0000298B0700398F07029E015F12000FFF74A
:101CC00013FF009015F12300FFF70EFF019015F1AF
:101CD0002600FFF709FF029015F12900FFF704FF26
:101CE000039015F12C00FFF7FFFE049015F12F0073
:101CF000FFF7FAFE05900098307201987072029812
:101D0000B0720398F07204983073059870730120D4
:101D100000E0002006B070BD2DE9F14FA6B00D0027
:101D200026984078692808D026984078672804D0FB
:101D300026984078732840F03881DFF868050088DD
:101D4000ADF8040019A81421FFF78CFD06A80021A6
:101D5000016005A80021016004A80021016003A81A
:101D60000021016026988078202877D113222698B8
:101D7000C11C19A801F07EFB132219A9DFF8280560
:101D800001F078FB01A919A801F0ACFB00900098C4
:101D900000280DD00322009906A801F06BFB01A9D1
:101DA000002001F09FFB00900098002810D001E077
:101DB000002020E20322009905A801F05BFB01A9A5
:101DC000002001F08FFB00900098002810D001E067
:101DD000002010E20322009904A801F04BFB01A9A6
:101DE000002001F07FFB00900098002810D001E057
:101DF000002000E20322009903A801F03BFB01A9A7
:101E0000002001F06FFB00900098002804D001E052
:101E10000020F0E10020EEE102A80021016006A808
:101E200001F084FB8DF8080005A801F07FFB8DF818
:101E3000090004A801F07AFB8DF80A0003A801F05C
:101E400075FB8DF80B009DF90840DFF8601406A8BB
:101E500001F087FB844240F0A68001E00020CAE147
:101E60009DF90940DFF8441405A801F07AFB84428B
:101E700040F099809DF90A40DFF8301404A801F081
:101E800070FB844240F08F809DF90B40DFF81C14FA
:101E900003A801F066FB844240F0858026984078D4
:101EA000672858D0692802D073282AD079E0042006
:101EB000089006A8079015F13204089A07992000A7
:101EC00001F060FB042405AE15F136072200310055
:101ED000380001F057FB04270DF1100815F13A09FD
:101EE0003A004146484601F04DFB5FF004090DF110
:101EF0000C0A15F13E0B4A465146584601F042FB8A
:101F00004FE00420089006A8079015F11004089AE5
:101F10000799200001F036FB042405AE15F11407E3
:101F200022003100380001F02DFB04270DF11008CC
:101F300015F118093A004146484601F023FB5FF0CD
:101F400004090DF10C0A15F11C0B4A46514658467E
:101F500001F018FB25E00420089006A80790089AD5
:101F60000799280001F00EFB042405AE2F1D220066
:101F70003100380001F006FB04270DF1100815F1BF
:101F800008093A004146484601F0FCFA5FF00409AE
:101F90000DF10C0A15F10C0B4A465146584601F05A
:101FA000F1FA012027E1002025E1269840786D28EC
:101FB00040F02081BE480088ADF800001EA8202116
:101FC000FFF750FC0BA8002101600AA80021016066
:101FD00009A80021016008A80021016007A80021CC
:101FE000016002A80021016026988078202840F036
:101FF00096801D222698C11C1EA801F03BFA1D26C2
:102000001EAFDFF8A48232003900404601F0BAFA70
:1020100069461EA801F066FA0400002C0CD00222CA
:1020200021000BA801F026FA6946002001F05AFAB7
:102030000400002C0FD001E00020DCE0022221008F
:102040000AA801F017FA6946002001F04BFA0400D3
:10205000002C0FD001E00020CDE00222210009A8D1
:1020600001F008FA6946002001F03CFA0400002C57
:102070000FD001E00020BEE00222210008A801F0FC
:10208000F9F96946002001F02DFA0400002C0FD068
:1020900001E00020AFE00222210007A801F0EAF9E8
:1020A0006946002001F01EFA0400002C0FD001E068
:1020B0000020A0E00222210002A801F0DBF969461D
:1020C000002001F00FFA0400002C04D001E00020F1
:1020D00091E000208FE013A81821FFF7C3FB0BA8A5
:1020E00001F024FA13900AA801F020FA149009A82C
:1020F00001F01CFA159008A801F018FA169007A82C
:1021000001F014FA179002A801F010FA1890139E2B
:1021100068490BA801F025FA864269D101E0002048
:1021200069E0149E63490AA801F01BFA86425FD158
:10213000159E604909A801F014FA864258D1169EEE
:102140005C4908A801F00DFA864251D1179E594901
:1021500007A801F006FA86424AD1189E554902A8FE
:1021600001F0FFF9864243D1032012900BA8119091
:1021700015F12006129A1199300001F003FA03209C
:1021800010900AA80F9015F12306109A0F993000AD
:1021900001F0F8F903200E9009AE15F126070E9A0A
:1021A0003100380001F0EEF903270DF1200815F198
:1021B00029093A004146484601F0E4F95FF0030975
:1021C0000DF11C0A15F12C0B4A465146584601F0F8
:1021D000D9F95FF0030B02A80D9015F12F000C90B8
:1021E0005A460D990C9801F0CDF90C98012002E0A7
:1021F000002000E0002027B0BDE8F08F30B58BB0A4
:10220000050068462821FFF72DFB2D21280001F04D
:102210000DFA0400002C3AD02100684601F012FAB1
:102220009DF80100672816D0682808D0692812D0C8
:102230006D2810D070281CD073280CD023E04FF4E8
:1022400080621D491D48FEF749F805221C491D48BA
:1022500001F05AFA21E01C4801686846FFF75CFD6E
:10226000012805D1194A184801686846FFF7B0FCF3
:1022700013E005221649134801F0B6FA144908A0E4
:10228000FFF71EFC09E01348FFF71AFC05E01248AF
:10229000FFF716FC1148FFF713FC0BB030BD000030
:1022A0002573000062180008CC0B002034410008A0
:1022B0006A180008DC400008000000208C0B002099
:1022C000F040000800000A08000400200C0C002068
:1022D000200C0020243F0008F43F0008A43F000821
:1022E00062F30F2262F31F42401810F0030308D07C
:1022F000C91A1FD3DB0748BF00F8012D28BF20F8FB
:10230000022D130030B414461546103928BF20E9B9
:102310003C00FAD8490728BF20E90C0048BF40F824
:10232000042D890028BF20F8022D48BF00F8012D98
:1023300030BC7047C91818BF00F8012DCB0728BF63
:1023400000F8012D7047000080B50E48006850F479
:1023500000700C4908600B48006850F4806009491F
:1023600008600848006850F480700649086003203F
:1023700000F0B4FE002000F0E5FE01F047FA002076
:1023800002BD0000003C024000B587B001A8142146
:10239000FFF768FA002000903F48006850F01000F6
:1023A0003D4908603C48006810F01000009000981B
:1023B000002000903848006850F02000364908603E
:1023C0003548006810F02000009000980020009030
:1023D0003148006850F080002F4908602E4800689E
:1023E00010F0800000900098002000902A480068BB
:1023F00050F00100284908602748006810F00100EB
:1024000000900098002000902348006850F00200DF
:10241000214908602048006810F0020000900098F0
:1024200001224FF4C0611D48FFF716FB00224FF454
:1024300080411B48FFF710FB1C20019000200290F8
:102440000120039001A91748FFF710FA4FF4C0606C
:10245000019001200290012003900220049001A924
:102460000E48FFF703FA012001900020029002209D
:10247000039001A90C48FFF7F9F94FF4804001904F
:1024800001200290012003900220049001A9044839
:10249000FFF7ECF907B000BD3038024000140240ED
:1024A00000040240001002400000024080B50020FD
:1024B00000900E48006850F480000C4908600B48FA
:1024C000006810F4800000900098002200213A205B
:1024D00000F00AFE3A2000F01AFE002200214620F9
:1024E00000F002FE462000F012FE01BD303802402E
:1024F00000B587B002A81021FFF7B4F93048D0E941
:102500000023CDE900232F482F49086042F2CF0075
:102510002D49486000202C49886041F287302A49C3
:10252000C8600020284908610020274988612648A2
:1025300000F0D8F8002801D0FEF7FBFF4FF48050E0
:10254000029002A9204800F0BAF9002801D0FEF755
:10255000F0FF002000900020019069461A4801F029
:1025600079F9002801D0FEF7E4FF07B000BD10B5EF
:1025700082B0040020681349884215D100200090E1
:102580001248006850F00200104908600F480068C7
:1025900010F0020000900098002201211D2000F0A0
:1025A000A3FD1D2000F0B3FD13BD10B504000648C7
:1025B000844204D14FF400710548FFF757FA10BD6B
:1025C0005C410008000400404C0B002040380240F1
:1025D0000014024080B53248324908604FF48270DE
:1025E0003049486000202F49886000202D49C8608C
:1025F00000202C49086100202A4948614FF40070EE
:102600002849886128202749C86100202549086297
:102610000020244948620020224988620A2021497A
:10262000C862204801F06EF9002801D0FEF781FF52
:1026300001BD10B586B0040001A81421FFF712F9FE
:1026400020681749884229D1002000901648006868
:1026500050F48050144908601348006810F480500A
:1026600000900098002000901048006850F0020090
:102670000E4908600D48006810F0020000900098B4
:102680003820019002200290002003900320049043
:102690000520059001A90648FFF7E8F806B010BD2F
:1026A00000300140600A00204438024030380240C7
:1026B0000004024080B50948094908600320084920
:1026C00048604FF4FA6006498860054800F05EFAF9
:1026D000002801D0FEF72DFF01BD00BF00300040F3
:1026E000340C002010B50400002C01D1012014E0AE
:1026F00094F83D00002805D1002084F83C0020001B
:10270000FFF735FF022084F83D00211D206800F00E
:102710004DF9012084F83D00002010BD010008683B
:10272000C06850F001000B68D8600868806810F03D
:1027300007000200062A05D00868006850F0010072
:102740000B6818600020704710B50400206800690D
:1027500080071AD52068C068800716D57FF0020070
:1027600021680861012020772068806910F0030F3C
:1027700003D0200001F00DF905E0200001F00AF976
:10278000200001F008F90020207720680069400748
:102790001AD52068C068400716D57FF0040021686C
:1027A0000861022020772068806910F4407F03D000
:1027B000200001F0EEF805E0200001F0EBF8200029
:1027C00001F0E9F8002020772068006900071AD599
:1027D0002068C068000716D57FF0080021680861EE
:1027E000042020772068C06910F0030F03D0200078
:1027F00001F0CFF805E0200001F0CCF8200001F056
:10280000CAF80020207720680069C0061AD5206821
:10281000C068C00616D57FF0100021680861082046
:1028200020772068C06910F4407F03D0200001F0B9
:10283000B0F805E0200001F0ADF8200001F0ABF8A1
:102840000020207720680069C0070AD52068C0688A
:10285000C00706D57FF00100216808612000FFF75E
:10286000A4FE2068006900060AD52068C06800063A
:1028700006D57FF0800021680861200001F08CF807
:102880002068006940060AD52068C068400606D561
:102890007FF0400021680861200001F07EF8206888
:1028A000006980060AD52068C068800606D57FF0DA
:1028B000200021680861200001F070F810BD70B59B
:1028C00004000D0094F83C00012801D102206CE0C6
:1028D000012084F83C00022084F83D0020688068D4
:1028E000060036F0770636F47F4620688660286852
:1028F00000284ED010284CD020284AD0302848D06C
:1029000040283CD0502826D060282ED0702807D0F0
:10291000B0F5805F03D0B0F5005F0FD03EE03DE042
:10292000EB686A68A968206800F0ECF820688068A5
:10293000060056F07706206886602FE0EB686A682C
:10294000A968206800F0DEF82068806850F48040B4
:102950002168886022E0EA686968206800F0A0F8D1
:102960005021206800F0C5F818E0EA68696820681E
:1029700000F0AAF86021206800F0BBF80EE0EA68D9
:102980006968206800F08CF84021206800F0B1F8F8
:1029900004E02968206800F0ACF8FFE7012084F823
:1029A0003D00002084F83C00002070BD0268130048
:1029B000DFF8C020904212D0B0F1804F0FD0DFF886
:1029C000B82090420BD0DFF8B420904207D0DFF857
:1029D000B020904203D0DFF8AC20904203D133F016
:1029E00070034A681343DFF88C2090422AD0B0F17C
:1029F000804F27D0DFF88020904223D0DFF87C2062
:102A000090421FD0DFF8782090421BD0DFF874206E
:102A1000904217D0DFF87020904213D0DFF86C207E
:102A200090420FD0DFF8682090420BD0DFF864208E
:102A3000904207D0DFF86020904203D0DFF85C209E
:102A4000904203D133F44073CA68134333F08003D8
:102A50004A69134303608A68C2620A688262054A4F
:102A6000904202D0074A904201D10A6902630122D2
:102A7000426170470000014000040040000800402F
:102A8000000C0040000401400040014000440140AF
:102A90000048014000180040001C00400020004099
:102AA00030B4056A2C00056A6D086D000562856901
:102AB0002B0033F0F00353EA021334F00A040C4302
:102AC0008361046230BC704730B4056A35F010058C
:102AD000056285692B00056A2C0033F4704353EAC4
:102AE000023334F0A00454EA01148361046230BC60
:102AF00070478268130033F0700351F007021343EC
:102B00008360704730B485682C0034F47F4452EA07
:102B1000010555EA03252C43846030BC7047000052
:102B2000C0B210490860704770B400240E4D2D6883
:102B30000C4E366806FB00F631000C4E366832004B
:102B40000A4E366833009342FAD0934202D21419E7
:102B5000E41A02E02C19E41A14191A008C42EFD37B
:102B600070BC7047400C002014E000E018E000E06A
:102B700038B5040000200500A4B2A54205D24FF4E8
:102B80007A70FFF7D1FF6D1CF6E731BD38B5040050
:102B9000002C01D1012020E04CF6CC4021680860D7
:102BA00045F2555021680860606821684860A06857
:102BB00021688860FEF728F905002068C0680028B1
:102BC00006D0FEF721F9401B3128F6D3032004E09C
:102BD0004AF6AA2021680860002032BD01004AF6AA
:102BE000AA200A681060002070470000F8B50400B1
:102BF000002C01D10120EAE12078C0076FD5DFF871
:102C0000D003006810F00C0004280BD0DFF8C003DC
:102C1000006810F00C0008280ED1DFF8B803006837
:102C2000400209D5DFF8B0030068800357D560681B
:102C3000002854D10120CAE16068B0F5803F08D176
:102C4000DFF89403006850F48030DFF88C130860DC
:102C500024E06068B0F5A02F10D1DFF87C03006895
:102C600050F48020DFF870130860DFF86C03006810
:102C700050F48030DFF8601308600FE0DFF858038D
:102C8000006830F48030DFF850130860DFF8480344
:102C9000006830F48020DFF8401308606068002886
:102CA0000ED0FEF7B1F80500DFF82C0300688003B2
:102CB00015D4FEF7A9F8401B6528F5D3032086E15B
:102CC000FEF7A2F80500DFF810030068800306D5C0
:102CD000FEF79AF8401B6528F5D3032077E12078AA
:102CE000800754D5DFF8E802006810F00C0F0BD015
:102CF000DFF8DC02006810F00C00082818D1DFF8BB
:102D0000D4020068400213D4DFF8CC0200688007C8
:102D100004D5E068012801D0012058E1AE480068E0
:102D200030F0F800216950EAC100AB4908602EE09C
:102D3000E06800281AD00120A8490860FEF764F86E
:102D40000500A5480068800706D4FEF75DF8401B23
:102D50000328F6D303203AE19F48006830F0F800DA
:102D6000216950EAC1009C49086010E000209B499D
:102D70000860FEF749F8050097480068800706D507
:102D8000FEF742F8401B0328F6D303201FE120780A
:102D9000000724D56069002810D001209049086000
:102DA000FEF732F805008F480068800717D4FEF759
:102DB0002BF8401B0328F6D3032008E100208849A4
:102DC0000860FEF721F8050086480068800706D5F0
:102DD000FEF71AF8401B0328F6D30320F7E020780B
:102DE000400740F17F8000277F480068C0000FD473
:102DF000002000907C48006850F080507A490860BC
:102E00007948006810F08050009000980120070079
:102E100076480068C00513D47448006850F4807088
:102E200072490860FDF7F0FF050070480068C005B2
:102E300006D4FDF7E9FF401B0328F6D30320C6E0C4
:102E4000A068012806D16A48006850F0010068496E
:102E500008601BE0A06805280CD16548006850F0A8
:102E60000400634908606248006850F0010060494E
:102E700008600BE05E480068400840005C4908605C
:102E80005B48006830F0040059490860A0680028D9
:102E90000FD0FDF7B9FF050055480068800718D42A
:102EA000FDF7B2FF401B41F289318842F4D3032081
:102EB0008DE0FDF7A9FF05004D480068800708D5A3
:102EC000FDF7A2FF401B41F289318842F4D3032071
:102ED0007DE0FFB2012F05D14348006830F08050FB
:102EE00041490860A069002870D03948006810F096
:102EF0000C00082846D0A069022832D100203D49A4
:102F00000860FDF781FF050033480068800106D5A1
:102F1000FDF77AFF401B0328F6D3032057E0E16951
:102F2000206A0143606A51EA8011A06A801EC003D2
:102F3000000C00040143E06A51EA00612548016089
:102F400001202C490860FDF75FFF0500224800685A
:102F500080013BD4FDF758FF401B0328F6D3032024
:102F600035E0002023490860FDF74EFF05001A48B0
:102F7000006880012AD5FDF747FF401B0328F6D3E0
:102F8000032024E0A069012801D101201FE011489D
:102F90000068060016F48000E169884214D116F03A
:102FA0003F00216A88420FD147F6C0703040616A05
:102FB000884209D116F44030A16A884204D116F043
:102FC0007060E16A884201D0012000E00020F2BD7B
:102FD00008380240043802400038024000004742EE
:102FE000800E474274380240403802400070004072
:102FF000703802406000474210F00703DFF82411E8
:1030000009680A004FF6FF010A40DFF81C1151EA77
:1030100003210A43DFF80C110A607047DFF804014E
:103020000068C0F30220704740B2002809D4012292
:1030300010F01F018A403D4940B203005B0941F88E
:103040002320704710B440B2002804D40A01384B42
:1030500040B21A5407E00A01364B40B210F00F0498
:10306000234403F8042C10BC704770B4030013F021
:103070000704D4F10706052E01D3042001E0D4F1A2
:103080000700261D072E01D2002500E0E51E0126BF
:1030900016FA00F0401E0140A940012010FA05F583
:1030A0006D1E2A401143080070BC704710B5040023
:1030B000601EB0F1807F01D301200EE0601E1E492A
:1030C00008600F215FF0FF30FFF7BCFF00201B49B5
:1030D000086007201A490860002010BD10B50400E0
:1030E0002000FFF789FF10BDF8B504000D001600A1
:1030F0000027FFF793FF0700320029003800FFF791
:10310000B4FF0100200040B2FFF79CFFF1BD10B5F5
:103110000400200040B2FFF787FF10BD80B5FFF725
:10312000C5FF02BD0CED00E00000FA0500E100E083
:1031300000E400E018ED00E014E000E018E000E03A
:1031400010E000E010B504004FF47A700D490978E2
:10315000B0FBF1F00C490968B1FBF0F0FFF7DEFFBE
:10316000002801D001200CE0102C09D200222100FF
:103170005FF0FF30FFF7B8FF04480460002000E074
:10318000012010BD9C04002008040020040400203D
:103190007047000000B500BF1300964694461039F2
:1031A00028BFA0E80C50FAD85FEA417C28BF0CC0C9
:1031B00048BF40F8042BC90728BF20F8022B48BF9E
:1031C00000F8012B00BD70B505461C0008461646E8
:1031D00004D016F8011BA847641EFAD170BD2DE972
:1031E000F04585B080468A4617461D4607E0012314
:1031F0003A4651464046FFF7E6FF82467F1C387844
:10320000E0B12528F3D17978BF1C252912D058299F
:103210005AD0632915D0642918BF692918D06F299D
:1032200052D0702956D073295BD0752918BF7829E0
:103230004AD0E4E75046C0478246E0E705B0BDE823
:10324000F0852868286050F8041B2860C9B2F1E7AF
:103250002868286050F8046B2860002E03D52D21C3
:103260005046C047824664216F2908BF082305D015
:1032700041F02000782814BF0A2310230B2464296E
:10328000304602D1002E48BF4042B0FBF3FC03FBA6
:103290001C003030641EC0B23A28A4BFA1F1510214
:1032A00010180DF804005FEA0C0001D0002CECDCD3
:1032B0000DEB0406D4F10B045046BDD016F8011BEB
:1032C000C047641EFAD1B7E72868286050F8046B3D
:1032D0002860C9E728682860782150F8046B2860C6
:1032E000C2E72868286050F8046B2860304600F078
:1032F0001DF9040050469FD016F8011BC047641EFC
:10330000FAD199E72DE9F84F84B00C4615460BB178
:1033100000221A608046464600E0761C307800F0B5
:103320003EFB0028F9D130782D2816BF2B2816F83F
:10333000019B4FF02B09002D48D4012D46D0252D9F
:1033400044DA002D0ADD102D04BF3078302802BF8A
:10335000717841F0200178290ED10AE030783028C8
:1033600018BF0A2508D1707840F02000782802D1D3
:103370001025B61C00E00825029600E0761C307887
:103380003028FBD04FF0000A0FF2980137468DF835
:103390000010CDF804A009E09DF80010CDF804A0BD
:1033A000401A5FFA80FB05FB0ABA761C307800F001
:1033B00000FB01462A460FF26C0000F005FB0028D6
:1033C000EAD1029A0199B242504604D10CB1C4F834
:1033D000008000201DE00FF27402F71B525DBF1A3F
:1033E000002F10D406DCB0EB0B0303D3B3FBF5F2D4
:1033F0008A4208D0AFF30080049808B1012101602F
:103400004FF0FF3003E0B9F12D0F08BF404204B187
:10341000266005B0BDE8F08FFFE700230A220021F7
:1034200070E7000030313233343536373839616275
:10343000636465666768696A6B6C6D6E6F707172E4
:10344000737475767778797A000000000000211592
:10345000110E0D0C0B0B0A0A0909090909080808C5
:1034600008080808070707070707070707070707E8
:103470000700000001B58B071AD1830724D1121F62
:1034800021D351F8043BA3F1013C2CEA030C1CF0BE
:10349000803C04BF40F8043BF1E79CFA8CFCBCFA8A
:1034A0008CF1C1F118018B40CB4040F8043B13E094
:1034B000042A09D311F8013B521E00F8013B5BB10D
:1034C0008B07F7D1D9E7121D5AB111F8013B521EF3
:1034D00000F8013B03B1F8D111001CBF0022FEF738
:1034E00003FF01BD38B504000D4609D0204600F0A9
:1034F00038F80444207848B90B4A0021116032BDE5
:1035000009480468002CF1D1002032BD294620462C
:1035100000F086FA2118087810B1002201F8012B7A
:103520002046014A116032BD480C002000F1010321
:10353000810704D010F8011B89B18107FAD1026814
:10354000B2F10131914311F0803F04BF50F8042FD4
:10355000F6E710F8011B11B110F8011BFBE7C01AC8
:10356000704770B4044604E015F8016BB34203D110
:10357000641C23781BB10D462A78002AF4D1201A46
:1035800070BC704762B38B0708D0521E11F8013B24
:1035900000F8013B00F024808B07F6D1830740F050
:1035A000208000BF103A07D330B4B1E83810103A89
:1035B000A0E83810F9D230BC530724BFB1E8081096
:1035C000A0E8081044BF51F8043B40F8043BD20780
:1035D00024BF31F8022B20F8022B44BF0B78037074
:1035E0007047121F17D35B0009D151F8043B20F834
:1035F000023B1B0C121F20F8023BF6D20BE051F8E5
:10360000043B00F8013B1B0A20F8023B1B0C121F75
:1036100000F8013BF3D238BF121D521E24BF11F82F
:10362000013B00F8013BF8D8704700000278C9B2AE
:103630008A421AB11CBF10F8012FF9E718BF002009
:10364000704700005FEA000C80EA01039B0715D178
:10365000830706D011F8013B00F8013BB3B18307A3
:10366000F8D10A68B2F1013323EA020313F0803F74
:1036700002BF40F8042B51F8042FF3E711F8013B87
:1036800000F8013B13B111F8013BF9E760467047C0
:103690000068704701004848814201D2002032E0B2
:1036A0004648814201D201202DE04548814201D2A5
:1036B000022028E04348814201D2032023E042480F
:1036C000814201D204201EE04048814201D20520FF
:1036D00019E03F48814201D2062014E03D48814272
:1036E00001D207200FE03C48814201D208200AE0C5
:1036F0003A48814201D2092005E03948814201D28D
:103700000A2000E00B2070472DE9F04387B0050048
:103710000E0017000024002000905FF000095FF009
:103720000008B5F1006F02D315F0030F00D03FE0A1
:1037300000F0D3F9A94615EB87008046294881455A
:103740001FD2C1451DD24846FFF7A2FF10F1010F5D
:1037500010D0002001904846FFF79CFF0390012005
:10376000049002200590694601A800F09FFA002805
:1037700002D006E019F104094CF2503000F0C8F90B
:10378000DFE74CF2503000F0C3F90400E4B2002C43
:103790000CD145450AD2326800232900022000F0EE
:1037A00051F9002802D12D1D361DF2E700F0A8F9CD
:1037B00007B0BDE8F083000000400008008000086A
:1037C00000C0000800000108000002080000040812
:1037D000000006080000080800000A0800000C08A5
:1037E00000000E080000FF1FF8B504000D001600D1
:1037F00000200700B74207D22000FFF749FF45F835
:103800002700241D7F1CF5E7F1BD000081B00020DA
:1038100000900E48006850F480400C4908600B4846
:10382000006810F480400090009800200090084844
:10383000006850F08050064908600548006810F0A4
:1038400080500090009801B0704700BF443802409B
:103850004038024030B4020092F83C00012801D107
:1038600002203EE0012082F83C00022082F83D0068
:1038700010684068040010688068030034F0700429
:1038800008680443106844601068174DA8421BD0B4
:103890001068B0F1804F17D01068144DA84213D0B3
:1038A0001068134DA8420FD01068124DA8420BD0DB
:1038B0001068114DA84207D01068104DA84203D0DF
:1038C00010680F4DA84205D133F0800348680343C8
:1038D00010688360012082F83D00002082F83C00DF
:1038E000002030BC70470000000001400004004090
:1038F00000080040000C004000040140004001406E
:103900000018004010B50400002C01D101203FE058
:10391000606A00280020A06294F85100002805D1B8
:10392000002084F850002000FEF783FE022084F877
:1039300051002068006830F040002168086061682C
:10394000A0680143E06801432069014360690143C5
:10395000A06910F400700143E0690143206A01434B
:10396000A06A014320680160A169090C11F00401FB
:10397000606A0143206841602068C06930F40060DB
:103980002168C86100206065012084F85100002092
:1039900010BD70477047704770477047704710B54B
:1039A000044600F083FA01462046096ABDE810404B
:1039B000084710B5044600F079FA01462046896AA6
:1039C000BDE8104008470000C9B2830706D0521E68
:1039D00022D310F8013B9942F7D11FE0083A13D3E4
:1039E00002F1040241EA012141EA014150F8043B9D
:1039F000121F21BF4B40A3F1013C2CEA030C1CF029
:103A0000803FF3D0C9B2001F083210F8013B521EAC
:103A100028BF91EA030FF8D818BF0120401E704755
:103A200070B4044600E0641C23783BB10D462A784C
:103A3000002AF8D015F8016BB342F8D1201A70BCF7
:103A4000704700002DE9F0410600884614001D0073
:103A50000127DFF84002007E012801D102203AE070
:103A60000120DFF8301208764CF2503000F050F8A8
:103A70000700FFB2002F28D1002E05D12100C9B2C6
:103A8000404600F0B2F813E0012E05D1210089B2C2
:103A9000404600F096F80BE0022E04D1210040468B
:103AA00000F07BF804E022002B00404600F05BF8B9
:103AB0004CF2503000F02CF80700DFF8DC01006811
:103AC00040084000DFF8D01108600020DFF8C41182
:103AD00008763800C0B2BDE8F08100206E49096860
:103AE00000290BD56E496F4A11606F496D4A11600C
:103AF00069490968002901D501210800C0B2704751
:103B00006548006850F00040634908600020704735
:103B100038B50400002500205E49C861FDF774F93E
:103B200005005E480068C0030BD514F1010FF8D002
:103B3000002C04D0FDF768F9401B8442F1D2032029
:103B400010E056480068C00702D5012053490860BC
:103B50005248006810F0F20F03D000F058F801202E
:103B600000E0002032BD10B44B49096831F44071C7
:103B7000494C21604849096851F44071464C216024
:103B80004549096851F00101434C21600260BFF3CF
:103B90006F8F011D0B6010BC70473F4A126832F4F2
:103BA00040723D4B1A603C4A126852F400723A4B24
:103BB0001A60394A126852F00102374B1A600160EC
:103BC0007047354A126832F44072334B1A60324AF9
:103BD000126852F48072304B1A602F4A126852F009
:103BE00001022D4B1A60018070472B4A126832F493
:103BF0004072294B1A60284A1268274B1A60264ADD
:103C0000126852F00102244B1A6001707047234879
:103C10000068C00608D51F48C06950F010001D4953
:103C2000C86110201D4908601C480068800608D53E
:103C30001848C06950F008001649C861202017498B
:103C4000086016480068400608D51248C06950F060
:103C500004001049C8614020104908600F480068FE
:103C6000000608D50B48C06950F002000949C86138
:103C700080200A49086009480068800708D505487F
:103C8000C06950F020000349C86102200349086060
:103C900070470000EC0B0020103C02400C3C02403E
:103CA00023016745043C0240AB89EFCDF8B5050020
:103CB0000E0001240027DFF8BC01007E012801D19D
:103CC00002204CE00120DFF8AC1108764CF25030B5
:103CD000FFF71EFF0400E4B2002C3AD15FF0FF3082
:103CE00030602868012812D169682869C0B200F0E4
:103CF00037F84CF25030FFF70BFF0400DFF8780183
:103D0000006830F00400DFF8701108601FE0A86858
:103D10000700E968A86841188F4218D22969C9B21A
:103D2000380000F033F84CF25030FFF7F1FE040099
:103D3000DFF84401006830F0FA00DFF83C11086059
:103D4000E4B2002C01D0376001E07F1CE1E700F015
:103D500057F80020DFF81C1108762000C0B2F2BD31
:103D6000454A126832F44072434B1A60424A126864
:103D700052F00402404B1A603F4A1268C0B203027C
:103D800053F480331A433C4B1A60704710B400223E
:103D9000C9B2002902D100231A0010E0C9B20129DA
:103DA00003D14FF480731A0009E0C9B2022903D18C
:103DB0004FF400731A0002E04FF440731A002E4BC8
:103DC0001B6833F440732C4C23602B4B1B6813434C
:103DD000294C2360284B1B6833F0F803264C2360E2
:103DE000254B1B68C40054F002042343224C23607B
:103DF000214B1B6853F480331F4C236010BC704769
:103E00001E480068800517D51C48006830F4007013
:103E10001A4908601948006850F4006017490860A2
:103E20001648006830F400601449086013480068C0
:103E300050F400701149086010480068400517D51B
:103E40000E48006830F480600C4908600B48006838
:103E500050F48050094908600848006830F48050E8
:103E6000064908600548006850F48060034908600E
:103E700070470000EC0B0020103C0240003C024068
:103E8000FFE741381A288041C00F7047A0F10901AF
:103E9000052901D3202801D1012070470020704757
:103EA000A0F141011A2938BF2030704700487047FF
:103EB0000C0400207047FEE7FEE7FEE7FEE77047D0
:103EC0007047704780B500F021F801BD80B50B4800
:103ED000FEF73AFC01BD80B50948FCF7C1FA084875
:103EE000FCF757FF01BD80B50648FDF7AEF801BDF0
:103EF00080B50548FDF7A9F801BD00004C0B002076
:103F00008C0B0020A0090020000A00200348006854
:103F1000034909784018014908607047440C0020A3
:103F20009C040020547970652077726F6E6720635F
:103F30006F6D6D616E64202C706C656173652074AB
:103F4000797065202D6820746F2073686F772074F6
:103F5000686520636F6D6D616E64206C6973742E8B
:103F60000000000019E050F8042BD30744BFA9F16A
:103F700001039A18091F0023042942F8043BF9D2CF
:103F80005FEA817C134604D54FF0000CA2F800C014
:103F90009B1CC90744BF0021197050F8041B00295D
:103FA000E1D17047496620796F75206E65656420A0
:103FB000736F6D652068656C70202C20706C657364
:103FC000652074797065202D6800000010B50749E0
:103FD00079441831064C7C44163404E00A68081D04
:103FE000114488470146A142F8D110BD2C000000C1
:103FF00048000000536F6D657468696E67207772C2
:104000006F6E672C446920796F7520747970652014
:10401000272D273F200D0A004DFFFFFFAC030000B6
:10402000A00800200000000037D3FFFF6E02000050
:10403000E8020000000000200D0A205541525431D2
:104040002049646C6520495152204465746563744D
:104050006564200D0A00000052656365697665207D
:1040600044617461286C656E677468203D20256426
:10407000293A000000F00BF8002801D0FFF7A6FF56
:104080000020AFF30080FDF7A7F900F002F801204F
:10409000704700F001B800000746384600F002F80B
:1040A000FBE7000080B5AFF30080024A1100182042
:1040B000ABBEFBE72600020038B504460D46284695
:1040C00000F006F8A84218BF0024204632BD0000C8
:1040D0000149FCF720BE00BF5404002031323334C4
:1040E00035363738393041424344454600000000F8
:1040F00053544D333220464C415348205445535479
:1041000000000000000000000000000001020304A5
:104110000607080901488047014800472541000873
:10412000414100085FF000600149086070470000ED
:1041300008ED00E03132333435363738393000009D
:10414000AFF30080AFF30080FFF794FF0006101676
:104150000006101600000000010203040000000029
:1041600000000000FFF7FEBFFFF7FEBFFFF7FEBF36
:10417000FFF7FEBFFFF7FEBFFFF7FEBFFFF7FEBF73
:10418000FFF7FEBFFFF7FEBFFFF7FEBFFFF7FEBF63
:10419000FFF7FEBFFFF7FEBFFFF7FEBFFFF7FEBF53
:1041A000FFF7FEBFFFF7FEBFFFF7FEBFFFF7FEBF43
:1041B000FFF7FEBFFFF7FEBFFFF7FEBFFFF7FEBF33
:1041C000FFF7FEBFFFF7FEBFFFF7FEBFFFF7FEBF23
:1041D000FFF7FEBFFFF7FEBFFFF7FEBFFFF7FEBF13
:1041E000FFF7FEBFFFF7FEBFFFF7FEBFFFF7FEBF03
:1041F000FFF7FEBFFFF7FEBFFFF7FEBFFFF7FEBFF3
:10420000FFF7FEBFFFF7FEBFFFF7FEBFFFF7FEBFE2
:10421000FFF7FEBFFFF7FEBFFFF7FEBFFFF7FEBFD2
:10422000FFF7FEBFFFF7FEBFFFF7FEBFFFF7FEBFC2
:10423000FFF7FEBFFFF7FEBFFFF7FEBFFFF7FEBFB2
:10424000FFF7FEBFFFF7FEBFFFF7FEBFFFF7FEBFA2
:10425000FFF7FEBFFFF7FEBFFFF7FEBFFFF7FEBF92
:10426000FFF7FEBFFFF7FEBFFFF7FEBFFFF7FEBF82
:10427000FFF7FEBFFFF7FEBFFFF7FEBFFFF7FEBF72
:10428000FFF7FEBFFFF7FEBFFFF7FEBFFFF7FEBF62
:10429000FFF7FEBFFFF7FEBF4300F001140D0A2039
:1042A00001A0030D0A0D0A2A01B00A2045617379A5
:1042B000205368656C6C2019100D0D0A436F6D6DED
:1042C000616E64204C6973743A3A232D6864100758
:1042D00053686F77207468652033600C7020696EB6
:1042E000666F726D6174696F6E20841112100A20FE
:1042F0006578616D706C653A203E3E372176332DCE
:10430000693EF00B08657420495020616464726551
:10431000737333400E69203139322E3136382E31E5
:1043200037382E353942626D4270014D414343F1B9
:104330000844100E6D2039343A37353A43453A3245
:10434000413A31330C414762734710027375626E14
:1043500007F002016D61736B47436C704730047363
:10436000203235352E04400234302E30436267430C
:10437000F0051347617465776179D4600367203174
:10438000302E03414722702A34035072696E7452F2
:10439000118DF40B0D776F726B20636F6E6669671A
:1043A00075725742704422771EF0030A577269747F
:1043B0006544F00708746F20454550524F4D4E122A
:1043C000771AF2FF0001F199012403080B00201075
:1043D000C0F4060A24F4009842000801CC10038DB2
:1043E0003E0008810412A104F10327613C2006026B
:1043F000040101B80A00205C21082104211B610886
:0E440000F8060F980400208404002037020103
:04000005080041416D
:00000001FF
