:020000040800F2
:1000000028040020292700089125000893250008CE
:100010009525000897250008992500080000000094
:100020000000000000000000000000009B25000808
:100030009D250008000000009F250008A12500085C
:100040006D27000871270008752700087927000828
:100050007D270008812700088527000889270008D8
:100060008D27000891270008952700089927000888
:100070009D270008A1270008A5270008A927000838
:10008000AD270008B1270008B5270008B9270008E8
:10009000BD270008C1270008C5270008C927000898
:1000A000CD270008D1270008D5270008D927000848
:1000B000DD270008A9250008E1270008E52700083A
:1000C000E9270008ED270008F1270008F5270008B8
:1000D000F9270008B3250008FD27000801280008BB
:1000E00005280008092800080D2800081128000824
:1000F00015280008192800081D28000821280008D4
:1001000025280008292800082D2800083128000883
:1001100035280008392800083D2800084128000833
:100120004528000849280008BD2500084D2800087A
:100130005128000855280008592800085D280008A3
:100140006128000865280008692800086D28000853
:100150007128000875280008C725000879280008BC
:100160007D280008812800088528000889280008C3
:100170008D2800089128000895280008000000003C
:10018000992800089D28000810B50400002C01D112
:10019000012033E0A0690028FFD194F8390000283D
:1001A00005D1002084F83800200000F0ADFB2420A9
:1001B00084F839002068C06830F400502168C860B5
:1001C000200000F0E5F92068006930F490402168D3
:1001D00008612068406930F02A0021684861206881
:1001E000C06850F400502168C8600020E0632020FF
:1001F00084F83900202084F83A00002010BD10B4A3
:10020000030093F83900202822D1002902D092B2AD
:10021000002A01D101201CE093F83800012801D107
:10022000022016E0012083F8380019629A84DA84EB
:100230000020D863212083F83900002083F838009B
:100240001868C06850F080001C68E060002000E082
:10025000022010BC704710B4030093F83A00202825
:100260002ED1002902D092B2002A01D1012028E02B
:1002700093F83800012801D1022022E0012083F800
:10028000380099629A85DA850020D863222083F8A5
:100290003A00002083F838001868C06850F4807075
:1002A0001C68E0601868406950F001001C686061DB
:1002B0001868C06850F020001C68E060002000E072
:1002C000022010BC70472DE9F8430600306807682B
:1002D0003068D0F80C803068D0F8149000240025E5
:1002E00017F00F000400002C08D1B80606D55FEA0D
:1002F000886003D5300000F0F4F88BE0002C77D054
:100300005FEAC97002D418F4907F71D017F0010031
:10031000C0B2002806D05FEAC85003D5F06B50F099
:100320000100F063780708D519F00100C0B2002879
:1003300003D0F06B50F00200F063B80708D519F055
:100340000100C0B2002803D0F06B50F00400F0634D
:1003500038070BD55FEA886004D419F00100C0B2F9
:10036000002803D0F06B50F00800F063F06B002819
:100370003DD0B80605D55FEA886002D5300000F0B0
:10038000B0F830684069800910F001000500F06B9A
:10039000000701D4002D25D0300000F03DF8306872
:1003A000406940061AD53068406930F04000316835
:1003B0004861706B00280DD00FF28100716B0865E9
:1003C000706B00F0C0FB002811D0706B716B096D71
:1003D00088470CE0300000F03DFD08E0300000F000
:1003E00039FD04E0300000F035FD0020F06311E03D
:1003F000380606D55FEA086003D5300000F02AF819
:1004000008E0780606D55FEA486003D5300000F0C2
:1004100058F8FFE7BDE8F1830168C96831F49071CD
:100420000268D16001684969490849000268516160
:10043000202180F83A1070470000000038B5040011
:10044000A56B0020E8850020E884280000F002FD6C
:1004500031BD0000010091F8390021282FD18868B2
:10046000B0F5805F11D1086A02001088C005C00D88
:100470000B6858600869002803D1086A801C08626C
:1004800009E0086A401C086205E0086A431C0B6228
:1004900000780B685860C88C401EC88480B2002861
:1004A0000BD10868C06830F080000B68D86008681D
:1004B000C06850F040000B68D860002000E00220C7
:1004C000704710B504002068C06830F04000216813
:1004D000C860202084F83900200000F0BCFC002017
:1004E00010BD38B5040094F83A0022284ED1A06817
:1004F000B0F5805F16D1A06A05002069002808D1F8
:1005000020684068C005C00D2880A06A801CA062D9
:100510001AE02068406800F0FF002880A06A401CB4
:10052000A06211E02069002806D1A06A411CA162E6
:1005300021684968017007E0A06A411CA162216836
:10054000496811F07F010170E08D401EE08580B2A6
:10055000002819D12068C06830F020002168C860E8
:100560002068C06830F480702168C86020684069E5
:100570004008400021684861202084F83A002000AB
:1005800000F0F6FC002002E0002000E0022032BD76
:100590002DE9F04104002068016931F44051E06820
:1005A000014320680161A16820690143606901433A
:1005B000E069014388462068C168BF48014058EAA5
:1005C00001012068C1602068416931F44071A0696F
:1005D000014320684161E069B0F5004F40F0B6800A
:1005E0002068B649884203D02068B549884256D170
:1005F00000F094FD05001920A0FB050162680223AC
:10060000A3FB022300F0F4FD6421B0FBF1F61920F6
:10061000A0FB050162680223A3FB022300F0E8FDB2
:1006200007001920A0FB050162680223A3FB022337
:1006300000F0DEFD6421B0FBF1F1642000FB1171DC
:10064000C80032306421B0FBF1F0400010F4F870C3
:1006500010EB061006001920A0FB050162680223BA
:10066000A3FB022300F0C4FD07001920A0FB050135
:1006700062680223A3FB022300F0BAFD6421B0FBF1
:10068000F1F1642000FB1171C80032306421B0FB2D
:10069000F1F010F0070080192168886009E100F08E
:1006A00032FD05001920A0FB050162680223A3FBAF
:1006B000022300F09DFD6421B0FBF1F61920A0FBA0
:1006C000050162680223A3FB022300F091FD0700ED
:1006D0001920A0FB050162680223A3FB022300F09E
:1006E00087FD6421B0FBF1F1642000FB1171C800AB
:1006F00032306421B0FBF1F0400010F4F87010EBE0
:10070000061006001920A0FB050162680223A3FB66
:10071000022300F06DFD07001920A0FB05016268AF
:100720000223A3FB022300F063FD6421B0FBF1F17F
:10073000642000FB1171C80032306421B0FBF1F07D
:1007400010F00700801921688860B2E020685B49DA
:10075000884203D020685A49884255D100F0DEFC17
:1007600005001920A0FB050162680423A3FB0223F6
:1007700000F03EFD6421B0FBF1F61920A0FB05015D
:1007800062680423A3FB022300F032FD0700192056
:10079000A0FB050162680423A3FB022300F028FDEF
:1007A0006421B0FBF1F1642000FB117108013230CB
:1007B0006421B0FBF1F010F0F00010EB0610060021
:1007C0001920A0FB050162680423A3FB022300F0AB
:1007D0000FFD07001920A0FB050162680423A3FB9D
:1007E000022300F005FD6421B0FBF1F1642000FB61
:1007F0001171080132306421B0FBF1F010F00F00EC
:1008000080192168886054E000F07DFC0500192003
:10081000A0FB050162680423A3FB022300F0E8FCAF
:100820006421B0FBF1F61920A0FB050162680423E6
:10083000A3FB022300F0DCFC07001920A0FB05014C
:1008400062680423A3FB022300F0D2FC6421B0FB06
:10085000F1F1642000FB1171080132306421B0FB1A
:10086000F1F010F0F00010EB061006001920A0FBCC
:10087000050162680423A3FB022300F0B9FC070012
:100880001920A0FB050162680423A3FB022300F0EA
:10089000AFFC6421B0FBF1F1642000FB1171080191
:1008A00032306421B0FBF1F010F00F0080192168A4
:1008B0008860BDE8F0810000F369FFFF001001408F
:1008C0000014014080B55D485D4908604FF4165042
:1008D0005B49486000205A49886000205849C86038
:1008E0000020574908610C205549486100205449AF
:1008F000886100205249C8615148FFF745FC002833
:1009000001D000F055FB01BD10B586B0040001A870
:10091000142100F0E5FC20684849884240F08B80B3
:10092000002000904748006850F0100045490860DA
:100930004448006810F010000090009800200090DB
:100940004148006850F001003F4908603E48006897
:1009500010F00100009000984FF4C0600190022058
:10096000029000200390032004900720059001A925
:10097000364800F0B9FC3648364908605FF0006040
:100980003449486040203349886000203149C860BC
:100990004FF480602F49086100202E4948610020F3
:1009A0002C49886100202B49C8615FF480302949B7
:1009B0000862002027494862264800F051F80028C4
:1009C00001D000F0F5FA23482063224884632248CE
:1009D000224908605FF000602049486000201F49FC
:1009E000886000201D49C8604FF480601B49086181
:1009F00000201A49486100201849886100201749E1
:100A0000C8615FF4803015490862002013494862CC
:100A1000124800F025F8002801D000F0C9FA0F486C
:100A200060630E48846300220321252000F0FEFD50
:100A3000252000F00EFE06B010BD000000100140A1
:100A40008005002044380240303802400000024057
:100A5000B86402402804002040640240880400205A
:100A6000F8B50400002700F00FFE0500002C01D1AE
:100A7000012067E0606A0028002084F8340002202A
:100A800084F835002068006840084000216808604C
:100A900020680068C0070BD500F0F6FD401B062853
:100AA000F6D320206065032084F83500032049E058
:100AB000206800680700DFF8F40207406168A0685A
:100AC0000143E06801432069014360690143A06973
:100AD0000143E0690143206A01430F43606A04282F
:100AE00003D1E16A206B01430F432068076020684F
:100AF00040690700FF08FF00606A0743606A042836
:100B000010D1A06A0743E06A00280BD0200000F053
:100B100053F9002806D040206065012084F8350094
:100B200001200FE020684761200000F025F9060051
:100B30003F21E06D8140B16000206065012084F8B4
:100B400035000020F2BD010091F83500022803D0E5
:100B500080204865012009E0052081F835000868FB
:100B60000068400840000A68106000207047F8B52F
:100B7000040000200090DFF8380200684FF416519E
:100B8000B0FBF1F6A76D386805000821E06D8140E3
:100B90000D4211D02068006840070DD5206800681C
:100BA00030F00400216808600821E06D8140B960E0
:100BB000606D50F001006065E06D2900C140C8071C
:100BC0000BD520684069000607D50121E06D814002
:100BD000B960606D50F0020060650421E06D8140F5
:100BE0000D420BD020680068800707D50421E06D16
:100BF0008140B960606D50F0040060651021E06DC7
:100C000081400D422DD020680068000729D51021B1
:100C1000E06D8140B96020680068400311D520680C
:100C20000068000306D4206C00281AD02000216C34
:100C3000884716E0A06C002813D02000A16C8847DC
:100C40000FE020680068C00505D42068006830F017
:100C5000080021680860206C002802D02000216C68
:100C600088472021E06D81400D4260D020680068F7
:100C7000C0065CD52021E06D8140B96094F8350054
:100C8000052828D12068006830F016002168086027
:100C90002068406930F0800021684861206C00289D
:100CA00002D1A06C002805D02068006830F0080050
:100CB000216808603F21E06D8140B960002084F820
:100CC0003400012084F83500206D002802D0200077
:100CD000216D88474FE020680068400311D52068E7
:100CE0000068000306D4606C002820D02000616CEE
:100CF00088471CE0E06B002819D02000E16B884792
:100D000015E020680068C0050BD42068006830F04A
:100D1000100021680860002084F83400012084F865
:100D20003500E06B002802D02000E16B8847606D41
:100D3000002820D0606DC00717D5052084F8350045
:100D40002068006840084000216808600098401C46
:100D50000090864203D320680068C007F6D40020C4
:100D600084F83400012084F83500E06C002802D0BB
:100D70002000E16C8847F1BD017801F0FF011039D6
:100D80001822B1FBF2F10B4A525CC265042905D36B
:100D90000268920A9202121D826503E00268920ABA
:100DA00092028265806D7047000000003F8010F065
:100DB000040000205427000810B402000020936AA9
:100DC0009169002916D1002B05D0022B03D008D33E
:100DD000032B0DD00DE0D16AC90101D50121080016
:100DE00035E0D16AB1F1C07F01D1012108002EE0C8
:100DF0002DE02CE09169B1F5005F18D1002B05D0F2
:100E0000022B03D005D3032B09D00FE001210800EA
:100E10001DE0D16AC90101D50121080017E0D16A9E
:100E2000B1F1C07F01D10121080010E00FE01900ED
:100E30000029022902D9C91E03D008E001210800B7
:100E400005E0D16AC90101D501210800FFE7C0B260
:100E500010BC70477047704780B500F01BFC00F075
:100E60002FF800F037FC00F0C7FC00F0E7FCFFF7BC
:100E700029FD00F055FD00F0C3FD444800F0F4FDED
:100E8000A82000F0F3FF0D2241494248FFF7E3F9A3
:100E9000414801F021F8414908704048027892B277
:100EA0003D493C48FFF7ABF94FF480613C4800F006
:100EB0001BFBC82001F002F83A4801F050F8F3E7B4
:100EC00000B593B006A8302100F00AFA01A8142159
:100ED00000F006FA002000903348006850F080507F
:100EE000314908603048006810F080500090009848
:100EF000002000902D48006850F480402B49086085
:100F00002A48006810F4804000900098092006905C
:100F10005FF48030079001200B9002200C905FF46A
:100F200080000D9008200E904FF4A8700F900220C2
:100F300010900420119006A801F018F8002801D0A4
:100F400000F036F80F20019002200290002003905C
:100F50004FF4A05004904FF480500590052101A853
:100F600000F028F8002801D000F022F813B000BDEE
:100F700010B504000D2206490648FFF740F90D227E
:100F800003490448FFF767F910BD00004005002041
:100F9000C00500208005002008000020E405002096
:100FA00000140240D005002040380240007000408C
:100FB0007047000070B504000D00002C01D1012025
:100FC0009DE05C48006810F00F00A84209D2594823
:100FD00005705848006810F00F00A84201D00120A9
:100FE0008DE02078800719D52078400705D5524834
:100FF000006850F4E050504908602078000705D59B
:101000004D48006850F460404B4908604A48016808
:1010100031F0F001A0680143474801602078C00723
:1010200036D56068012805D144480068800313D490
:10103000012064E06068022802D06068032805D1BE
:101040003E480068800107D4012058E03B48006812
:10105000800701D4012052E03748016889088900DF
:10106000606801433448016000F00EFB060032481E
:10107000006810F00C006168B0EB810F08D000F040
:1010800003FB801B41F289318842F0D3032036E014
:101090002848006810F00F00854209D225480570E5
:1010A0002448006810F00F00A84201D0012026E07B
:1010B0002078400707D52048016831F4E051E06806
:1010C00001431D4801602078000708D51A480068D0
:1010D00030F46040216950EAC1001749086000F00F
:1010E00037F81749144A1268C2F30312895CC840E2
:1010F000144908601448006801F03EF9002070BDF2
:1011000010480068704780B5FFF7FAFF0F490A4A98
:101110001268C2F38222895CC84002BD80B5FFF725
:10112000EFFF0A49044A1268C2F34232895CC840A0
:1011300002BD0000003C0240083802400038024076
:101140001827000804000020000000205C27000889
:10115000F0B500240025002600272148006810F083
:101160000C00002804D0042805D0082806D032E05E
:101170001C48070031E01C4807002EE01B480068AF
:1011800010F03F0004001948006840020CD51748D1
:101190000068C0F388101449A1FB0001220000235D
:1011A00000F026F805000BE010480068C0F3881036
:1011B0000C49A1FB00012200002300F019F80500F2
:1011C0000A480068C0F30140401C40000600B5FB1F
:1011D000F6F0070001E0034807003800F0BD00BF4B
:1011E000083802400024F40000127A00043802405B
:1011F0001B4213D1094236D12AB18446B0FBF2F02A
:1012000002FB10C2704701F0DDB8FCD300220023BE
:1012100070470B000200002100207047904271EBE4
:10122000030CF6D370B5B1FA81F4B3FA83F52C1B35
:10123000A340C4F1200532FA05F63343A2405FF023
:101240000046E64002E05B085FEA3202841A71EB76
:10125000030524BF204629467641F4D302000B0043
:101260003000002170BD012ACFD970B5140C20D0F8
:10127000B1FA81F4B2FA82F5C4F120046419B4F130
:101280002006D6D3B2405FF00044F440002502E0CF
:1012900052085FEA3303C61A71EB020E24BF3046D0
:1012A000714664416D41F3D302000B002000290018
:1012B00070BD0C46B1FBF2F102FB11452D0445EA6D
:1012C0001045B5FBF2F402FB145580B240EA054527
:1012D000B5FBF2F002FB105240EA044070BD000082
:1012E000002201F071B80000F8B4002400250026A7
:1012F00000221300102B80F0EB8001229A40140092
:101300000A6822401500A54240F0E0804A68012AA0
:1013100008D04A68022A05D04A68112A02D04A68D1
:10132000122A19D18268160003271A00D2B252007D
:101330009740BE43CF681A00D2B2520097403E4356
:1013400086604268160001229A4096434A68C2F3BA
:1013500000129A4016434660C268160003271A001E
:10136000D2B252009740BE438F681A00D2B25200E8
:1013700097403E43C6604A68022A02D04A68122A51
:1013800018D11A00D20800EB8202126A16000F2749
:1013900013F00702D2B292009740BE430F6913F0D8
:1013A0000702D2B2920097403E431A00D20800EBE7
:1013B000820216620268160003271A00D2B2520097
:1013C0009740BE430F7917F003071A00D2B25200BC
:1013D00097403E4306604A68D20077D500220092CB
:1013E000484A126852F48042464F3A60454A1268B1
:1013F00012F480420092009A434A1F00BF0852F83C
:10140000272016000F2713F00302D2B29200974054
:10141000BE433E4A904201D1002723E03C4A90421D
:1014200001D101271EE03B4A904201D1022719E079
:10143000394A904201D1032714E0384A904201D141
:1014400004270FE0364A904201D105270AE0354AC9
:10145000904201D1062705E0334A904201D1072787
:1014600000E00827FFB213F00302D2B292009740C7
:101470003E43254A1F00BF0842F827602B4A1268E6
:101480001600AE434A68D20300D52E43274A1660A1
:10149000274A12681600AE434A68920300D52E43CD
:1014A000234A1660234A12681600AE434A68D202E5
:1014B00000D52E431F4A16601F4A12681600AE431D
:1014C0004A68920200D52E431B4A16605B1C11E746
:1014D000F1BC7047D2B2002A02D089B2816102E029
:1014E00089B20B0483617047426989B20A4089B2AC
:1014F0008A4203D189B20A04826101E089B2816122
:1015000070470000443802400838014000000240A3
:101510000004024000080240000C0240001002409B
:101520000014024000180240001C0240003C014030
:10153000043C0140083C01400C3C014010F0070312
:10154000DFF8241109680A004FF6FF010A40DFF8AE
:101550001C1151EA03210A43DFF80C110A6070479D
:10156000DFF804010068C0F30220704740B2002891
:1015700009D4012210F01F018A403D4940B2030006
:101580005B0941F82320704710B440B2002804D40E
:101590000A01384B40B21A5407E00A01364B40B2F8
:1015A00010F00F04234403F8042C10BC704770B4EF
:1015B000030013F00704D4F10706052E01D304201D
:1015C00001E0D4F10700261D072E01D2002500E01E
:1015D000E51E012616FA00F0401E0140A940012038
:1015E00010FA05F56D1E2A401143080070BC7047C3
:1015F00010B50400601EB0F1807F01D301200EE021
:10160000601E1E4908600F215FF0FF30FFF7BCFF2E
:1016100000201B49086007201A490860002010BDFF
:1016200010B504002000FFF789FF10BDF8B50400D5
:101630000D0016000027FFF793FF07003200290076
:101640003800FFF7B4FF0100200040B2FFF79CFF15
:10165000F1BD10B50400200040B2FFF787FF10BDB8
:1016600080B5FFF7C5FF02BD0CED00E00000FA05F4
:1016700000E100E000E400E018ED00E014E000E02C
:1016800018E000E010E000E001480068704700BF8B
:10169000E005002080B50E48006850F400700C4949
:1016A00008600B48006850F48060094908600848E9
:1016B000006850F48070064908600320FFF7B0FF0F
:1016C000002000F059FE00F099FE002002BD00004D
:1016D000003C024000B587B001A81421FFF700FECE
:1016E000002000903F48006850F010003D4908601D
:1016F0003C48006810F01000009000980020009016
:101700003848006850F020003649086035480068C5
:1017100010F02000009000980020009031480068F0
:1017200050F080002F4908602E48006810F08000BB
:1017300000900098002000902A48006850F00100B6
:10174000284908602748006810F0010000900098C0
:10175000002000902348006850F0020021490860F2
:101760002048006810F002000090009801224FF419
:10177000C0611D48FFF7AEFE00224FF480411B48B8
:10178000FFF7A8FE1C20019000200290012003908A
:1017900001A91748FFF7A8FD4FF4C0600190012090
:1017A0000290012003900220049001A90E48FFF747
:1017B0009BFD01200190002002900220039001A9CE
:1017C0000C48FFF791FD4FF48040019001200290FA
:1017D000012003900220049001A90448FFF784FD32
:1017E00007B000BD3038024000140240000402403F
:1017F000001002400000024080B5002000900E481A
:10180000006850F480000C4908600B48006810F430
:10181000800000900098002200213A20FFF706FF88
:101820003A20FFF716FF002200214620FFF7FEFEB8
:101830004620FFF70EFF01BD3038024000B587B0EB
:1018400002A81021FFF74CFD3048D0E90023CDE974
:1018500000232F482F49086042F2CF002D494860ED
:1018600000202C49886041F287302A49C860002056
:1018700028490861002027498861264800F0D8F8E7
:10188000002801D0FFF794FB4FF48050029002A98A
:10189000204800F0BAF9002801D0FFF789FB0020AA
:1018A00000900020019069461A4800F0CBFD002806
:1018B00001D0FFF77DFB07B000BD10B582B004007A
:1018C00020681349884215D1002000901248006812
:1018D00050F00200104908600F48006810F0020044
:1018E00000900098002201211D20FFF79FFE1D207F
:1018F000FFF7AFFE13BD10B504000648844204D1C3
:101900004FF400710548FFF7EFFD10BD6427000894
:10191000000400404005002040380240001402400E
:1019200080B53248324908604FF4827030494860CF
:1019300000202F49886000202D49C86000202C49D4
:10194000086100202A4948614FF4007028498861E5
:1019500028202749C8610020254908620020244921
:1019600048620020224988620A202149C862204832
:1019700000F0C0FD002801D0FFF71AFB01BD10B533
:1019800086B0040001A81421FFF7AAFC20681749BB
:10199000884229D1002000901648006850F48050F9
:1019A000144908601348006810F4805000900098B3
:1019B000002000901048006850F002000E490860B6
:1019C0000D48006810F00200009000983820019047
:1019D000022002900020039003200490052005902F
:1019E00001A90648FFF780FC06B010BD0030014099
:1019F000E80400204438024030380240000402402D
:101A000080B50948094908600320084948604FF437
:101A1000FA6006498860054800F079FA002801D08C
:101A2000FFF7C6FA01BD00BF00300040D00500201E
:101A300010B50400002C01D1012014E094F83D0001
:101A4000002805D1002084F83C002000FFF735FF76
:101A5000022084F83D00211D206800F04DF901208E
:101A600084F83D00002010BD01000868C06850F0F7
:101A700001000B68D8600868806810F00700020059
:101A8000062A05D00868006850F001000B6818604D
:101A90000020704710B504002068006980071AD53F
:101AA0002068C068800716D57FF0020021680861B1
:101AB000012020772068806910F0030F03D02000F8
:101AC00000F05FFD05E0200000F05CFD200000F06C
:101AD0005AFD002020772068006940071AD5206849
:101AE000C068400716D57FF0040021680861022015
:101AF00020772068806910F4407F03D0200000F038
:101B000040FD05E0200000F03DFD200000F03BFD21
:101B1000002020772068006900071AD52068C06877
:101B2000000716D57FF0080021680861042020779F
:101B30002068C06910F0030F03D0200000F021FDE1
:101B400005E0200000F01EFD200000F01CFD00203C
:101B5000207720680069C0061AD52068C068C006D2
:101B600016D57FF0100021680861082020772068D2
:101B7000C06910F4407F03D0200000F002FD05E0B2
:101B8000200000F0FFFC200000F0FDFC002020778A
:101B900020680069C0070AD52068C068C00706D55C
:101BA0007FF00100216808612000FFF7A4FE206893
:101BB000006900060AD52068C068000606D57FF0D7
:101BC000800021680861200000F0DEFC20680069C8
:101BD00040060AD52068C068400606D57FF0400060
:101BE00021680861200000F0D0FC206800698006B0
:101BF0000AD52068C068800606D57FF020002168DD
:101C00000861200000F0C2FC10BD70B504000D009A
:101C100094F83C00012801D102206CE0012084F8F6
:101C20003C00022084F83D0020688068060036F001
:101C3000770636F47F4620688660286800284ED0F4
:101C400010284CD020284AD0302848D040283CD0FA
:101C5000502826D060282ED0702807D0B0F5805F9D
:101C600003D0B0F5005F0FD03EE03DE0EB686A685E
:101C7000A968206800F0ECF820688068060056F03B
:101C80007706206886602FE0EB686A68A96820689C
:101C900000F0DEF82068806850F480402168886099
:101CA00022E0EA686968206800F0A0F85021206806
:101CB00000F0C5F818E0EA686968206800F0AAF842
:101CC0006021206800F0BBF80EE0EA6869682068CF
:101CD00000F08CF84021206800F0B1F804E0296899
:101CE000206800F0ACF8FFE7012084F83D000020F8
:101CF00084F83C00002070BD02681300DFF8C020AB
:101D0000904212D0B0F1804F0FD0DFF8B82090424F
:101D10000BD0DFF8B420904207D0DFF8B02090421B
:101D200003D0DFF8AC20904203D133F070034A684F
:101D30001343DFF88C2090422AD0B0F1804F27D097
:101D4000DFF88020904223D0DFF87C2090421FD023
:101D5000DFF8782090421BD0DFF87420904217D033
:101D6000DFF87020904213D0DFF86C2090420FD043
:101D7000DFF8682090420BD0DFF86420904207D053
:101D8000DFF86020904203D0DFF85C20904203D15E
:101D900033F44073CA68134333F080034A69134332
:101DA00003608A68C2620A688262054A904202D071
:101DB000074A904201D10A690263012242617047D9
:101DC000000001400004004000080040000C0040FA
:101DD000000401400040014000440140004801402F
:101DE00000180040001C00400020004030B4056A8C
:101DF0002C00056A6D086D00056285692B0033F0C3
:101E0000F00353EA021334F00A040C4383610462C2
:101E100030BC704730B4056A35F01005056285693D
:101E20002B00056A2C0033F4704353EA023334F07C
:101E3000A00454EA01148361046230BC70478268D4
:101E4000130033F0700351F00702134383607047AF
:101E500030B485682C0034F47F4452EA010555EA19
:101E600003252C43846030BC70470000C0B2104989
:101E70000860704770B400240E4D2D680C4E366813
:101E800006FB00F631000C4E366832000A4E36680A
:101E900033009342FAD0934202D21419E41A02E0BA
:101EA0002C19E41A14191A008C42EFD370BC704735
:101EB000DC05002014E000E018E000E038B5040084
:101EC00000200500A4B2A54205D24FF47A70FFF7B6
:101ED000D1FF6D1CF6E731BD00F10103810704D08D
:101EE00010F8011B89B18107FAD10268B2F1013102
:101EF000914311F0803F04BF50F8042FF6E710F82B
:101F0000011B11B110F8011BFBE7C01A704738B56F
:101F10000400002C01D1012020E04CF6CC402168C7
:101F2000086045F255502168086060682168486083
:101F3000A06821688860FFF7A7FB05002068C068DB
:101F4000002806D0FFF7A0FB401B3128F6D3032062
:101F500004E04AF6AA2021680860002032BD010092
:101F60004AF6AA200A68106000207047F8B50400FD
:101F7000002C01D10120EAE12078C0076FD5DFF8FD
:101F8000D003006810F00C0004280BD0DFF8C00369
:101F9000006810F00C0008280ED1DFF8B8030068C4
:101FA000400209D5DFF8B0030068800357D56068A8
:101FB000002854D10120CAE16068B0F5803F08D103
:101FC000DFF89403006850F48030DFF88C13086069
:101FD00024E06068B0F5A02F10D1DFF87C03006822
:101FE00050F48020DFF870130860DFF86C0300689D
:101FF00050F48030DFF8601308600FE0DFF858031A
:10200000006830F48030DFF850130860DFF84803D0
:10201000006830F48020DFF8401308606068002812
:102020000ED0FFF731FB0500DFF82C0300688003BA
:1020300015D4FFF729FB401B6528F5D3032086E163
:10204000FFF722FB0500DFF810030068800306D5C8
:10205000FFF71AFB401B6528F5D3032077E12078B2
:10206000800754D5DFF8E802006810F00C0F0BD0A1
:10207000DFF8DC02006810F00C00082818D1DFF847
:10208000D4020068400213D4DFF8CC020068800755
:1020900004D5E068012801D0012058E1AE4800686D
:1020A00030F0F800216950EAC100AB4908602EE029
:1020B000E06800281AD00120A8490860FFF7E4FA78
:1020C0000500A5480068800706D4FFF7DDFA401B2D
:1020D0000328F6D303203AE19F48006830F0F80067
:1020E000216950EAC1009C49086010E000209B492A
:1020F0000860FFF7C9FA050097480068800706D511
:10210000FFF7C2FA401B0328F6D303201FE1207813
:10211000000724D56069002810D00120904908608C
:10212000FFF7B2FA05008F480068800717D4FFF761
:10213000ABFA401B0328F6D3032008E100208849AE
:102140000860FFF7A1FA050086480068800706D5F9
:10215000FFF79AFA401B0328F6D30320F7E0207814
:10216000400740F17F8000277F480068C0000FD4FF
:10217000002000907C48006850F080507A49086048
:102180007948006810F08050009000980120070006
:1021900076480068C00513D47448006850F4807015
:1021A00072490860FFF770FA050070480068C005C2
:1021B00006D4FFF769FA401B0328F6D30320C6E0D4
:1021C000A068012806D16A48006850F001006849FB
:1021D00008601BE0A06805280CD16548006850F035
:1021E0000400634908606248006850F001006049DB
:1021F00008600BE05E480068400840005C490860E9
:102200005B48006830F0040059490860A068002865
:102210000FD0FFF739FA050055480068800718D439
:10222000FFF732FA401B41F289318842F4D3032090
:102230008DE0FFF729FA05004D480068800708D5B2
:10224000FFF722FA401B41F289318842F4D3032080
:102250007DE0FFB2012F05D14348006830F0805087
:1022600041490860A069002870D03948006810F022
:102270000C00082846D0A069022832D100203D4930
:102280000860FFF701FA050033480068800106D5B1
:10229000FFF7FAF9401B0328F6D3032057E0E16962
:1022A000206A0143606A51EA8011A06A801EC0035F
:1022B000000C00040143E06A51EA00612548016016
:1022C00001202C490860FFF7DFF90500224800686B
:1022D00080013BD4FFF7D8F9401B0328F6D3032035
:1022E00035E0002023490860FFF7CEF905001A48C1
:1022F000006880012AD5FFF7C7F9401B0328F6D3F1
:10230000032024E0A069012801D101201FE0114829
:102310000068060016F48000E169884214D116F0C6
:102320003F00216A88420FD147F6C0703040616A91
:10233000884209D116F44030A16A884204D116F0CF
:102340007060E16A884201D0012000E00020F2BD07
:10235000083802400438024000380240000047427A
:10236000800E4742743802404038024000700040FE
:10237000703802406000474210B504004FF47A7094
:102380000D490978B0FBF1F00C490968B1FBF0F098
:10239000FFF766F9002801D001200CE0102C09D2CB
:1023A000002221005FF0FF30FFF740F9044804608D
:1023B000002000E0012010BD2000002004000020CB
:1023C000000000207047000000B500BF13009646D3
:1023D0009446103928BFA0E80C50FAD85FEA417C37
:1023E00028BF0CC048BF40F8042BC90728BF20F8FD
:1023F000022B48BF00F8012B00BD000081B0002077
:1024000000900E48006850F480400C4908600B486A
:10241000006810F480400090009800200090084868
:10242000006850F08050064908600548006810F0C8
:1024300080500090009801B0704700BF44380240BF
:102440004038024030B4020092F83C00012801D12B
:1024500002203EE0012082F83C00022082F83D008C
:1024600010684068040010688068030034F070044D
:1024700008680443106844601068174DA8421BD0D8
:102480001068B0F1804F17D01068144DA84213D0D7
:102490001068134DA8420FD01068124DA8420BD0FF
:1024A0001068114DA84207D01068104DA84203D003
:1024B00010680F4DA84205D133F0800348680343EC
:1024C00010688360012082F83D00002082F83C0003
:1024D000002030BC704700000000014000040040B4
:1024E00000080040000C0040000401400040014092
:1024F0000018004010B50400002C01D101203FE07D
:10250000606A00280020A06294F85100002805D1DC
:10251000002084F850002000FFF731FA022084F8F0
:1025200051002068006830F0400021680860616850
:10253000A0680143E06801432069014360690143E9
:10254000A06910F400700143E0690143206A01436F
:10255000A06A014320680160A169090C11F004011F
:10256000606A0143206841602068C06930F40060FF
:102570002168C86100206065012084F851000020B6
:1025800010BD704770477047704770477047000034
:102590007047FEE7FEE7FEE7FEE7704770477047CB
:1025A00080B500F01DF801BD80B50948FFF772FA4B
:1025B00001BD80B50748FDF786FE01BD80B5064820
:1025C000FEF7D5FA01BD80B50448FEF7D0FA01BD8B
:1025D00040050020800500208804002028040020F9
:1025E00003480068034909784018014908607047AA
:1025F000E00500202000002019E050F8042BD3074C
:1026000044BFA9F101039A18091F0023042942F8C5
:10261000043BF9D25FEA817C134604D54FF0000CED
:10262000A2F800C09B1CC90744BF0021197050F8D4
:10263000041B0029E1D1704710B450F8041B79B194
:102640000268436802440830DC0744BFA9F1010472
:10265000E31852F8044B43F8044B091FF9D1ECE797
:1026600010BC704710B5074979441831064C7C44BA
:10267000163404E00A68081D114488470146A14247
:10268000F8D110BD2C0000004C000000100000002C
:102690000024F4005553415254312069732072656F
:1026A0006164792E2E2E200D0A000000010000002A
:1026B00049FFFFFFC00100002804002000000000C7
:1026C00079FFFFFF24000000C4FFFFFF000000208F
:1026D0000000000000F00BF8002801D0FFF7C2FF57
:1026E0000020AFF30080FEF7B7FB00F002F80120F6
:1026F000704700F001B800000746384600F002F8C5
:10270000FBE7000080B5AFF30080024A11001820FB
:10271000ABBEFBE726000200000000000000000046
:1027200001020304060708090148804701480047E1
:1027300039270008492700085FF000600149086058
:102740007047000008ED00E0AFF30080AFF30080B9
:10275000FFF7C0FF0006101600061016000000006C
:10276000010203040000000000000000FFF7FEBFAC
:10277000FFF7FEBFFFF7FEBFFFF7FEBFFFF7FEBF8D
:10278000FFF7FEBFFFF7FEBFFFF7FEBFFFF7FEBF7D
:10279000FFF7FEBFFFF7FEBFFFF7FEBFFFF7FEBF6D
:1027A000FFF7FEBFFFF7FEBFFFF7FEBFFFF7FEBF5D
:1027B000FFF7FEBFFFF7FEBFFFF7FEBFFFF7FEBF4D
:1027C000FFF7FEBFFFF7FEBFFFF7FEBFFFF7FEBF3D
:1027D000FFF7FEBFFFF7FEBFFFF7FEBFFFF7FEBF2D
:1027E000FFF7FEBFFFF7FEBFFFF7FEBFFFF7FEBF1D
:1027F000FFF7FEBFFFF7FEBFFFF7FEBFFFF7FEBF0D
:10280000FFF7FEBFFFF7FEBFFFF7FEBFFFF7FEBFFC
:10281000FFF7FEBFFFF7FEBFFFF7FEBFFFF7FEBFEC
:10282000FFF7FEBFFFF7FEBFFFF7FEBFFFF7FEBFDC
:10283000FFF7FEBFFFF7FEBFFFF7FEBFFFF7FEBFCC
:10284000FFF7FEBFFFF7FEBFFFF7FEBFFFF7FEBFBC
:10285000FFF7FEBFFFF7FEBFFFF7FEBFFFF7FEBFAC
:10286000FFF7FEBFFFF7FEBFFFF7FEBFFFF7FEBF9C
:10287000FFF7FEBFFFF7FEBFFFF7FEBFFFF7FEBF8C
:10288000FFF7FEBFFFF7FEBFFFF7FEBFFFF7FEBF7C
:10289000FFF7FEBFFFF7FEBFFFF7FEBFFFF7FEBF6C
:04000005080027497F
:00000001FF
