:020000040800F2
:10000000A80600206D460008E9440008EB440008FB
:10001000ED440008EF440008F1440008000000002F
:10002000000000000000000000000000F344000891
:10003000F544000800000000F7440008F9440008F7
:10004000B7460008BB460008BF460008C346000884
:10005000C7460008CB460008CF460008D346000834
:10006000D7460008DB460008DF460008E3460008E4
:10007000E7460008EB460008EF460008F346000894
:10008000F7460008FB460008FF4600080347000843
:10009000074700080B4700080F47000813470008F0
:1000A000174700081B4700081F47000823470008A0
:1000B00027470008014500082B4700082F47000884
:1000C00033470008374700083B4700083F47000810
:1000D000434700080B450008474700084B47000806
:1000E0004F47000853470008574700085B47000880
:1000F0005F47000863470008674700086B47000830
:100100006F47000873470008774700087B470008DF
:100110007F47000883470008874700088B4700088F
:100120008F470008934700081B45000897470008C1
:100130009B4700089F470008A3470008A7470008FF
:10014000AB470008AF470008B3470008B7470008AF
:10015000BB470008BF470008C3470008C74700085F
:10016000CB470008CF470008D3470008D74700080F
:10017000DB470008DF470008E347000800000000F5
:10018000E7470008EB4700082DE9F0439FB08146A0
:100190002698DFF8F88B8DF83B00174600201E46A6
:1001A00002910B900FF270144FF0FF350AE017F830
:1001B000011B0298C8470028029000F09A800B9813
:1001C000401C0B90387850B12528F0D10020002138
:1001D000059006910790089109900A9103E00B9809
:1001E0009EE041F0010117F8010F2028F9D02328E3
:1001F0000DD02B2804D02D2806D030280AD07AE044
:1002000041F0020189B2EEE741F00401FAE741F062
:100210000801F7E741F01001F4E700200D9009E034
:100220000D98404505DA00EB800302EB4302303ABB
:100230000D927F1C3A78A2F130000A28F0D33A7868
:100240002E2A18BF0C9523D117F8010F2A2807D1A1
:10025000306830607F1C50F8042B30600C9217E03F
:100260002D280CBF17F8010B002000220C920AE089
:1002700040B90C9A424505DA02EB820203EB4203D5
:10028000303B0C937F1C3B78A3F130020A2AEFD35A
:10029000ADF838102046397800F04EFF08B117F855
:1002A000010B8DF83A009DF83A00682804BF3978B0
:1002B000682903D162208DF83A0007E06C2804BF5A
:1002C00038786C2803D171218DF83A107F1C10A862
:1002D0000490324617F8013B6946484600F060F842
:1002E00038B910AA6946484600F0C2F900287FF5DF
:1002F00069AF284614E02A288FD13068306050F862
:10030000042B3060002A0D9204D5524241F00401C2
:100310000D9289B27F1C92E7686A6C747A4C000077
:100320001FB0BDE8F083622820D0682811D06A2869
:1003300003D06C2827D0712825D10868C01D20F073
:1003400007000860D0E9002308300860194610460D
:100350007047002A0A680A60106803D0121D0A60FC
:1003600000B217E0121D0A6080B217E0002A0A6886
:100370000A60106803D0121D0A6040B20AE0121D24
:100380000A60C0B20AE0002A0A680A60106803D056
:10039000121D0A60C1177047121D0A6000217047C4
:1003A0007CB50D4611461C462E69B4F1250200F0BD
:1003B0004D811C3A00F08680121F022A40F2828092
:1003C0000E3A00F00781521F5AD0093A7AD0921E95
:1003D00016D0521E35D0521E022A73D9121F30D0A9
:1003E000521F00F09A80521E4AD0521E00F0E48044
:1003F000D21E00F0FD80921E42D0D21E40D02BE1D2
:1004000095F83A206C2A09D06869421C6A610A682A
:100410000A6052F8043B0A60335427E10A680A6014
:1004200052F8043B0A600021009301914FF0FF3223
:100430002A6329466A4600F0A2F9002840F1168195
:1004400001E195F83A000122FFF76DFFC5E90001CF
:100450000023994204DA6869411C69612D210DE08D
:10046000288F810704D56869411C69612B2105E04B
:10047000C00722D56869411C6961202131541CE004
:1004800095F83A000022FFF74EFFC5E9000195F804
:100490003800010711D5D5E900230020834208BFA9
:1004A00082420AD044F02000782806D168693021C1
:1004B0003154401C411C6961345421466869304400
:1004C000E86083E00868C01D20F007000860D0E9FC
:1004D000002308300860C5E90023D5E90001C80FF2
:1004E00004D06869411C69612D210DE0288F8107C6
:1004F00004D56869411C69612B2105E0C00704D55A
:100500006869411C69612021315468693044E860A0
:100510002146284600F03BFAA8E005F13A0250785F
:1005200020B14FF0FF340FF6143070E010786228DD
:1005300008D0682824D06A2812D06C282ED07128C0
:100540000ED02BE00A680A6052F8040B0A6020B94A
:100550004FF0FF340FF6FC2059E0E96A017085E0A6
:100560000A680A6052F8040B0A6020B94FF0FF34A1
:100570000FF6E0204BE0EA6AD317C0E9002375E0EC
:100580000A680A6052F8040B0A6020B94FF0FF3481
:100590000FF6C0203BE0E96A018067E00A680A6064
:1005A00052F8040B0A6020B94FF0FF340FF6A42074
:1005B0002DE0E96A016059E00A680A6052F8040B0C
:1005C0000A600021C5E90001EE607821284600F0AC
:1005D00036F94BE06C2285F83A200B680B6053F833
:1005E000042B0B6052BB4FF0FF340FF69C200EE043
:1005F00095F83A206C2AF0D00868086050F8044B4F
:100600000860EC603CB94FF0FF340FF6602000F05A
:10061000A7FD201A76BD2E6B002E04D5204600F0D3
:10062000C1FD044608E032460021204600F0D6FD18
:10063000002814BF041B3446AC6117E0294600F0C3
:100640009EF8002812D54FF0FF3076BD6869411C36
:1006500069612521315409E06869411C69612522DD
:100660003254200002D0481C68617454002076BDCA
:100670002DE9F0410F4682B00646796B7869BC6A75
:10068000091A386A091AB869091A786A091AF869D8
:10069000091A97F838000C1B410790460FD4202107
:1006A000002C8DF800100ADD254601236A463946E4
:1006B000304600F0ABFC00285DD16D1EF5D17B69A2
:1006C00042463946304600F0A1FC002853D1302084
:1006D0008DF800003D6A002D09DD01236A46394688
:1006E000304600F093FC002845D16D1EF5D1BB6962
:1006F000FA683946304600F089FC00283BD13020AA
:100700008DF800007D6A002D08DD01236A46394618
:10071000304600F07BFC70BB6D1EF6D1F868B969FD
:10072000FB6942183946304600F070FC18BB302097
:100730008DF80000BD6A002D08DD01236A463946A8
:10074000304600F063FCB0B96D1EF6D197F8380062
:1007500041070DD52021002C8DF8001008DD012364
:100760006A463946304600F051FC20B9641EF6D185
:100770000020BDE8F6814FF0FF30BDE8F6812DE99D
:10078000F0470D46A4B02E6B002E8046914648BF20
:100790006FF0004600F04EFD0246686B0FF6041342
:1007A0001218D3E90001CDE90101812A28BF4FF0D9
:1007B000FF303ED20024002E2FDDD9F8001001AA10
:1007C000684600F041FD0746002F35D4D9F80000F7
:1007D00008B97F1E30D4BE421FDB686938188128F3
:1007E0000AD30020686303AA29464046FFF740FF6A
:1007F000040012D40020686103A8D5F814A03A467A
:100800006946504400F02AFDBA44C5F814A059F8CE
:10081000040B002818BFF61BCDD12CB903AA29461A
:100820004046FFF725FF044614B90020686168635D
:10083000204624B0BDE8F0874FF0FF34F8E72DE9FB
:10084000F04704468A462569BAF16F0F08BF0827AA
:1008500005D04AF02000782814BF0A2710273C262C
:10086000D4E90001BAF1640F18BFBAF1690F8046EC
:10087000894607D10B4600218B4203DAD8F10008E4
:1008800069EB49090020814508BF80451FD1206BD5
:10089000E8B9082F47D194F83800010743D5302034
:1008A0003B2685F83B003EE000280ED594F8380042
:1008B00000F01400102808D1626B6069121A206AD7
:1008C000121A561A002EC8BF2662BDE8F0874046AD
:1008D00049463A46FB1700F015FD3032761ED2B27B
:1008E0003A2AA4BFAAF151008218AA5540464946A7
:1008F0003A46FB1700F006FD8046894600208145F8
:1009000008BF804503D0E068A9198842DFD3082FCB
:1009100009D194F83800010705D5A95D302902D026
:10092000761E3020A855A819E060C6F13C01206B66
:10093000A1618142B8DA411A21624FF6EF70218F2E
:1009400001402187BDE8F0872DE9D04306460F46D8
:1009500014464FF00008DFF8389412E0E00707D59E
:1009600042464B463046394600F044FD06460F46A7
:100970004046494642464B4600F03CFD64108046E6
:100980008946002CEAD130463946BDE8D0832DE9AE
:10099000F04F0446884648F020008DB0D4E9009B13
:1009A000612802AE0BD0206B002802D50620206300
:1009B00005E001BF48F02000672801212163D4E948
:1009C00000A568004015401C0DD129030BD0A8F1EB
:1009D000610103201A29A06102D20FF2D06110E058
:1009E0000FF2CC610DE068004015401C0ED12903C8
:1009F0000CD1A8F1610103201A29A06116D30FF2CE
:100A0000B861E068032200F029FCD1E125F0004143
:100A1000B1F5801F2AF0000211D20027B94208BFA9
:100A2000BA42019705D15046294613E00FF284617E
:100A3000E7E701AA5046294600F0AEFD0AE0DFF8DC
:100A4000542302EB1150DFF8501301900D40D349AD
:100A500050462943C4E9000148F02002612A0DD123
:100A6000E06830210170811CE160B8F1610F0CBFBA
:100A70007821582141706069801C6061D4E900A52B
:100A800025F0004300202AF00002834204BF824286
:100A9000002300F0548148F02000612840F09F803E
:100AA000206B00284CBF2120401C00904846009F2E
:100AB0007F1C59460022002300F0A6FDAB4601989A
:100AC0008DF8082038BF8BF0004BD146001F002F57
:100AD00001900DF1090A40F3408140F2FF7548464C
:100AE00059460022002300F0A7FD80F036815A46C7
:100AF0005000400D00F11C010FD000290DDDA9426E
:100B000005DBA7490BF000400143002012E06FF322
:100B10001E5242EA015148460CE02BF0004129F0F8
:100B20000000994208BF98420FBF59461C225946FF
:100B300000F09AFD81468B4600F034FEFF1F002F27
:100B4000064609DD00F04CFE02460B464846594673
:100B500000F058FE81468B460AF10700072104E0A9
:100B600006F00F0200F8012D3611002E01DD491E9E
:100B7000F6D5491E5CBF002200F8012DF9D5E7E04B
:100B80000020194602AA0A4400E05B1E12F801592F
:100B9000491E8542F9D00F2804D10DF10900425CAD
:100BA000521C4254002904D50198001D02AE5B1C62
:100BB0000190581E0CD43118A8F13A050A78303249
:100BC000D2B2392AC8BFAA18401E01F80129F5D5AA
:100BD000206B002840F1B280591E2163AEE04846E8
:100BE00059460022002300F00FFD019938BF8BF019
:100BF000004B47F2975041436A4A91FBF2F201924F
:100C0000D2F1070204DD48465946FFF79DFE0AE08F
:100C1000524200206449FFF797FE02460B464846C1
:100C2000594600F061FE814648F020006628206B9E
:100C30005E4D06BF019E0A3606263618142EC8BF22
:100C4000142630208B468DF808000DF10907002E80
:100C500033DD4846594600F06BFF01460A4607F16E
:100C6000080304200A27B2FBF7F707EB870EA2EB75
:100C70004E02303203F8012C0A22B7FBF2F202EBEB
:100C8000820EA7EB4E073037401E03F8027DE9D1F4
:100C9000083E002E03F10807D9DD084600F05CFF8E
:100CA00002460B464846594600F0ACFD00222B4652
:100CB00000F0A0FB81468B46CBE70DF10900381A06
:100CC0000DF1090604E00199491E401E0191761CB0
:100CD00031783029F7D048F02002662A02D10199F4
:100CE000491C05E048F0200165290CBF01210021C5
:100CF000236BCB189842B8BF431E002B1ED48342EF
:100D000004DAF05C3528A8BF392000DA3020194613
:100D1000721E02EB010900E05B1E19F801B9491EC1
:100D20008345F9D0392802D1705C401C70540029E9
:100D300004D50198401C16465B1C0190019800B236
:100D400000901BB232464146204600F034F82FE0B6
:100D5000002F00F1070A3FF7C2AE0DF10900AAEB20
:100D6000000100980B468142C8BF0346002B0DF1DD
:100D700009063FF52DAF8B42BFF602AF0DF109001A
:100D8000C05C07287FF7FCAE0F20FAE6CBCCCC0C7A
:100D90000000244002FCFFFFFFFF0F800000E03F47
:100DA0000000F07FA08601000000F03F84D797414B
:100DB0000DB0BDE8F08F2DE9F04784B005468946B7
:100DC00092461F4600F042FA002F406A2E6B90F8C0
:100DD000008002DC01270FF2E42ABDF9304049F01F
:100DE0002000662808BF641C12D0672877D114F150
:100DF000040F7ADBB44278DA95F83800641C0107F6
:100E000002D4B742B8BF3E4624B2361B48BF0026C4
:100E100024B2E868A969002C22DC4A1C3023435420
:100E2000002E03DC95F83800010703D5E86800F8C8
:100E30000280521CE642B8BF744224B2A619604236
:100E4000BE42B8BF3746AA6168623FB2EF61E86848
:100E5000AB693A465146184400F000FAF61B18E018
:100E600022469742084416DA3A46514600F0F6F90F
:100E7000A9697918E01B002EA961686203DC95F866
:100E80003800020705D5E86800F80180E869401CD1
:100E9000E861AE62A3E0514600F0E0F9A8692018CD
:100EA0003F1B002E03DC95F838100A0703D5E968CC
:100EB00001F80080401CA8613FB2BE42B8BF37466F
:100EC000E868AB693FB23A460AEB0401184400F007
:100ED000C5F9A8693818A861F61B6E627FE0B9F100
:100EE000610F14D14FF0700916E0B74204DA95F89B
:100EF00038100A0758BF3E46761E48BF0026B9F193
:100F0000670F14BF4FF045094FF0650904E0B9F1D0
:100F1000410F08BF4FF05009A969EB68481CA86150
:100F2000002E1AF8012B5A5403DC95F838100A07E2
:100F300017D5E968431CAB6101F80080002E10DD75
:100F40007F1E3FB2BE42B8BF3746E8683FB23A465E
:100F50005146184400F082F9A8693818A861F61BB8
:100F60006E62E868A9690844002C80F8009004D4F7
:100F70002B21417000F1020A04E02D21417000F1A3
:100F8000020A644200206A460AE021460A2391FBD5
:100F9000F3F404EB8403A1EB430102F8011B401CB2
:100FA00024B2002CF1DC012806DC49F0200165297F
:100FB00004BF30210AF8011B48B930200AF8010BA0
:100FC00007E0401E1DF8001030310AF8011B002810
:100FD000F7DCE868A9690844AAEB0000E86195F825
:100FE000380000F0140010280DD16969A869411873
:100FF000686A4118E8694118A86A4118686B81421B
:10100000BCBF411A296204B0BDE8F087F8B50546B7
:101010000E4617461C46002074B117F8011BB06835
:10102000A847B06030B1F06A401CF0620020641E36
:10103000F3D1F2BD4FF0FF30F2BD00007072696E67
:1010400074665F733A20256E20646973616C6C6FFF
:10105000776564007072696E74663A20626164201C
:10106000256E20617267756D656E74007072696EB1
:1010700074665F733A206261642025732061726731
:10108000756D656E740000007072696E74665F73D2
:101090003A2062616420256C7320617267756D650A
:1010A0006E74000000000000000000006E616E0021
:1010B0004E414E00696E6600494E46003000F0B465
:1010C000034618689D681A18586802EB5004C00758
:1010D00021D54D441FE0F0BC03F10C00704712F81D
:1010E000017B05F8017B491EF9D1A0B1B60812F8C1
:1010F000011B06F00306032E08BF12F8016B01EB7B
:1011000006214942801C294405D011F8016B05F8DD
:10111000016B401EF9D1A242DDD012F8016B16F02E
:10112000030104BF12F8011BC91C30090F28DAD1D2
:1011300012F8010B0F30D6E70278C9B28A421AB111
:101140001CBF10F8012FF9E718BF00207047B1F558
:10115000807F02D34FF0FF3070470170012070474D
:1011600080B508B90FF21C0005490B681BB122229B
:101170000021984701E000F0FCFC222002BD0000A5
:1011800044090020636F6E73747261696E74206825
:10119000616E646C65723A20626164206D65737380
:1011A0006167650000F10103810704D010F8011B9D
:1011B00089B18107FAD10268B2F10131914311F08E
:1011C000803F04BF50F8042FF6E710F8011B11B15F
:1011D00010F8011BFBE7C01A70470000C9B2830773
:1011E00006D0521E22D310F8013B9942F7D11FE0DE
:1011F000083A13D302F1040241EA012141EA014114
:1012000050F8043B121F21BF4B40A3F1013C2CEAD4
:10121000030C1CF0803FF3D0C9B2001F083210F855
:10122000013B521E28BF91EA030FF8D818BF0120D6
:10123000401E704780B500F003F8006C02BD00004E
:1012400004487047DA6B1047024BFBE702487047CF
:10125000000000005C0200202402002062B38B0723
:1012600008D0521E11F8013B00F8013B00F0248029
:101270008B07F6D1830740F0208000BF103A07D3D8
:1012800030B4B1E83810103AA0E83810F9D230BCC8
:10129000530724BFB1E80810A0E8081044BF51F874
:1012A000043B40F8043BD20724BF31F8022B20F85E
:1012B000022B44BF0B7803707047121F17D35B00DB
:1012C00009D151F8043B20F8023B1B0C121F20F8F7
:1012D000023BF6D20BE051F8043B00F8013B1B0A3D
:1012E00020F8023B1B0C121F00F8013BF3D238BF61
:1012F000121D521E24BF11F8013B00F8013BF8D823
:10130000704700001B4213D1094236D12AB18446EE
:10131000B0FBF2F002FB10C2704700F02DBCFCD312
:101320000022002370470B000200002100207047BC
:10133000904271EB030CF6D370B5B1FA81F4B3FAB5
:1013400083F52C1BA340C4F1200532FA05F6334384
:10135000A2405FF00046E64002E05B085FEA32022E
:10136000841A71EB030524BF204629467641F4D345
:1013700002000B003000002170BD012ACFD970B5EA
:10138000140C20D0B1FA81F4B2FA82F5C4F1200431
:101390006419B4F12006D6D3B2405FF00044F440A3
:1013A000002502E052085FEA3303C61A71EB020E11
:1013B00024BF3046714664416D41F3D302000B00F7
:1013C0002000290070BD0C46B1FBF2F102FB114573
:1013D0002D0445EA1045B5FBF2F402FB145580B22A
:1013E00040EA0545B5FBF2F002FB105240EA04402A
:1013F00070BD0000B0B581EA030C0CF0004C40F267
:10140000FF7515EA11541DBF15EA1357AC42AF42E0
:1014100039E0E41923EA455343F48013C90241F04B
:10142000004141EA505EC7021100A7FB02020028FA
:101430004FF00000EEFB01204FF00001E3FB07211D
:1014400018BF42F00102401800214941E3FB0E01A0
:10145000A4F580640F0302D252004041494154F187
:1014600001046CDD470872F1004250F1000051EBBD
:101470000451A1F580115CBF41EA0C01B0BD4CEAFA
:1014800005510020B0BD05EA1357AC4214BFAF426E
:1014900041E050EA410E1CBF52EA430E02E06146B1
:1014A0000020B0BD24423C441BD15FEA070EF6D0B9
:1014B000090302BF01460020AEF1140EB1FA81F714
:1014C000AEEB070401FA07FE0C37C7F1200100FA62
:1014D00007F7C8404EEA000E23EA455343F4801351
:1014E000A2E733F00043B3FA83F704BFB2FA82FEF7
:1014F00077440B3FE41BB7F1200E2FBF02FA0EF327
:10150000BB40C7F1200E22FA0EFE38BF43EA0E039D
:10151000BA40641C82E750EA410E14BF52EA430EFF
:101520006FF000014FF4001717EB430F8ABF194605
:1015300017EB410FB5E74CEA05510020B0BDD4F1DF
:101540000104B4F120070FDAC4F12007520828BFC4
:1015500042F0010210FA07F501FA07F7E1BF2A434A
:10156000E0403843E1400FE0352C98DCC7F120041F
:1015700052EA400220FA07F218BF42F0010231FAA3
:1015800007F0A1400A43002172F1004250F100002F
:1015900051EB0C01B0BD000010B5144600F002F88C
:1015A000226010BDC1F30A5343B14A0012F5001F77
:1015B00028D2A3F2FE32A1EB0251704750EA410C4F
:1015C00020D001F0004C31EA0C01B1FA81F204BFE5
:1015D000B0FA80F3D2180B3AB2F120032CBF00FA14
:1015E00003F1914041EA0C013EBFC2F1200C20FA08
:1015F0000CF319439040524240F2FD33D21A01EBF2
:1016000003517047002270474FF4001C1CEB410F40
:1016100094BF1CEB430F09E041EA030C50EA4C0C69
:1016200052EA0C0C03D2994208BF9042704714BF93
:101630008B428242704700004FF4001C1CEB410FAC
:1016400094BF1CEB430F09E041EA030C50EA4C0C39
:1016500052EA0C0C03D28B4208BF8242704714BF7F
:101660009942904270470000124254D440F2FF7CED
:101670001CEA11530FD0634531D09B1863453CBF22
:1016800001EB0251704701F0004141EA0C5100208A
:10169000AFF30080704750EA410320D001F0004CC6
:1016A00091EA0C011CD0B1FA81F30B3B9A420DD99F
:1016B000D21A994051EA0C01C3F1200C20FA0CFC1B
:1016C00061449840531C40F2FF7CD7E7914041EAC7
:1016D0000C01C2F1200C20FA0CF319439040704722
:1016E000B0FA80F31533202BE0D3202AEED3203A32
:1016F000203B9A4209D9D21A00FA03F141EA0C01BF
:101700000020531C40F2FF7CB8E700FA02F141EAE6
:101710000C0100207047524240F2FF7C1CEA11533A
:101720000DD06345DBD0B2EB030C3CBFA1EB025103
:1017300070470CF1010221EA035141F4801150EA93
:10174000410CCCD001F0004C352A27DC30B481EAC2
:101750000C01B2F1200309DAC2F12003044601FAB8
:1017600003F5D0402843D1409C400CE0C3F1200257
:10177000450020FA03F418BF44F0010421FA03F0F5
:1017800091400C43002174F1004550F1000051EBF1
:101790000C01244230BC7FF47BAF704761460020CF
:1017A00076E70000C1F30A5340F2FE329B1A14DDC3
:1017B000D3F120034FEAE17208DDC90241EA50513A
:1017C00041F00040D84080185040704703F2E130AB
:1017D00010B1D24382F000407047002070470000F3
:1017E000C11768B14840401AB0FA80F29040D21C4C
:1017F000C907C2F5846241EA025202EBD0214005DA
:101800007047000070B44FF0004591EA030F40F1BB
:10181000B5816B40841A71EB030603D2001BB14102
:10182000121973414FF4001C1CEB410F34BF7CEBC9
:10183000430442E00C0DA4EB1356352E4FDC45EA71
:10184000C323DB0A45EAC121C912B6F120050DDD2B
:1018500063FA05F6EB4086EA0305124218BF45F02D
:101860000105C01851F100010CD213E062FA06F52F
:10187000F2405540F3415A40B340F3405A4080187B
:10188000594107D349085FEA30005FEA350528BFB0
:1018900045F0010501F58011420875F1004250F153
:1018A000000041EB04514E0016F5001F70BC38BF1C
:1018B00070470020090D090570471CEB410F10D23D
:1018C00052EA43060BD0BCEB410F05D80C0DAB43DD
:1018D000661E342EB6DD02E0AB438018594170BC61
:1018E000704770BC70470000F0B540F2FF7581EAA8
:1018F000030C0CF0004C15EA11541DBF15EA1357E8
:10190000AC42AF42E5E0BC41C1F31301C3F31303A2
:10191000801A994143F4801304D2641E4000494167
:1019200080185941C90241EA5051B1FBF3F603FB5B
:101930001611A2FB0675D7EBC020A94102D2761E74
:1019400080185941C90241EA5051B1FBF3FE03FB33
:101950001E11A2FB0E75D7EBC020A94103D2AEF138
:10196000010E80185941890241EA9051760546EAF4
:101970008E2EB1FBF3F603FB1611A2FB0675D7EB17
:101980008020A94102D2761E80185941C90241EA3D
:1019900050514EEA060EB1FBF3F603FB1611A2FB03
:1019A0000675D7EBC020A94102D2761E8018594196
:1019B000C90241EA5051B1FBF3F703FB1711A2FB37
:1019C0000735D3EBC020A94167F100070CBF0042E7
:1019D00047F0010766F3D5274FEA1E31B80814F522
:1019E000806412DDBD0775F1004250EB0E5051EBE3
:1019F000045111F5801F5CBF41EA0C01F0BD4CF0B1
:101A00007F6141F0E0410020F0BDBD076D0840EA74
:101A10000E5041F48011D4F10104B4F120060ADA29
:101A2000C4F120060200E04001FA06F3E140184349
:101A3000B24015430EE0342C13DCC6F1200445EA15
:101A400040056D0820FA06F2154321FA06F0A14080
:101A50000D43002175F1004250F1000051EB0C01E3
:101A6000F0BD00205FEA0C01F0BDCFB992185B41D8
:101A7000B3FA83F704BFB2FA82F6BF190B3FB7F18E
:101A800020062FBF02FA06F3BB40C7F1200622FA58
:101A900006F638BF3343BA401CB1E419641E33E77D
:101AA0007F4231F00041B1FA81F404BFB0FA80F610
:101AB000A4190B3CB4F120062FBF00FA06F1A14097
:101AC000C4F1200620FA06F638BF3143A0403C1B83
:101AD0001AE7AC421ABF05EA1357AF4212E050EAC8
:101AE00041061CBF52EA4306BFE750EA41073046B1
:101AF00061461CBF41EA0551F0BD52EA430C08BFE4
:101B0000C143F0BD00204FF4001616EB410F98BF03
:101B100016EB430F08BF16EB410F24BFC14305E08E
:101B200016EB430F0CBF61464CEA0551F0BD0000B7
:101B3000400D491840EA81200CD2490DA1F5806181
:101B4000491C40F0004005DBD1F11F0154BFC840E3
:101B5000C017704700207047014648B1B0FA80F1C5
:101B60008840C91CC1F58461090501EBD0214005FD
:101B70007047012000F0B6B870470000841A71EB7E
:101B8000030604D26E40001BB141121973414FF499
:101B9000001C1CEB410F34BF7CEB430682E00C0DB4
:101BA000A4EB1356362E7BDC012E45EAC32341DC21
:101BB00043EA525312BFD20292025B08240545EA5F
:101BC000C12141EA5051D2EBC020994125D407D11F
:101BD000B0FA80F610FA06F162D00020203608E054
:101BE000B1FA81F6B140C6F1200220FA02F21143A7
:101BF000B0404FEAF474B4EB465434F001064FEAB7
:101C000074040AD8D6F50016760D04F00044F040AE
:101C100061FA06F25040F1404840C00A40EA4150A3
:101C200021F0004128BF5FEA500550F1000044EB6D
:101C3000D12135E0DB0A45EAC121C90AB6F1200508
:101C40000EDD42EA0242120CC5F1200603FA06F646
:101C5000EB4042EA06056D42984161F100010DE05A
:101C600062FA06F5F240554063FA06FC82EA0C027D
:101C7000F3405A406D42904161EB030111F4801F23
:101C800005D1641E620502D06D004041494121F436
:101C90008011430875F1004350F1000041EB0451FD
:101CA00070BC70471CEB410F15D223F0004352EA81
:101CB00043060BD04FEA4C0CBCEB410F04D80C0D83
:101CC000661E342EB7DDEBE7801A994150EA4106D3
:101CD00008BF0021E4E708BF1CEB430F28BF6FF0EB
:101CE0000001DDE780B5AFF30080024A1100182043
:101CF000ABBEFBE72600020010B50400002C01D1AA
:101D0000012033E0A0690028FFD194F839000028B1
:101D100005D1002084F83800200000F013FD2420B5
:101D200084F839002068C06830F400502168C86029
:101D3000200000F04BFB2068006930F490402168DF
:101D400008612068406930F02A00216848612068F5
:101D5000C06850F400502168C8600020E063202073
:101D600084F83900202084F83A00002010BD2DE9C5
:101D7000F84306000C0015001F005FF0000996F8FC
:101D8000390020285FD1002C02D0ADB2002D01D146
:101D9000012059E096F83800012801D1022053E0D3
:101DA000012086F838000020F063212086F83900F1
:101DB00000F0ACFD8146B584F584002086F838003B
:101DC000F08C00282FD0F08C401EF084B068B0F565
:101DD000805F18D100974B4600228021300000F030
:101DE000F9F9002801D003202EE0A046B8F8000041
:101DF000C005C00D316848603069002801D1A41CBD
:101E0000DEE7641CDCE700974B46002280213000AF
:101E100000F0E0F9002801D0032015E020783168B7
:101E20004860641CCCE700974B46002240213000FC
:101E300000F0D0F9002801D0032005E0202086F82A
:101E40003900002000E00220BDE8F28310B4030056
:101E500093F83900202822D1002902D092B2002A1A
:101E600001D101201CE093F83800012801D10220A3
:101E700016E0012083F8380019629A84DA84002081
:101E8000D863212083F83900002083F838001868CF
:101E9000C06850F080001C68E060002000E0022074
:101EA00010BC704773B50500140095F83A0020285F
:101EB00051D10198002802D0A4B2002C01D10120F8
:101EC0004AE095F83800012801D1022044E00120C1
:101ED00085F838000198A862AC850020E8632220CC
:101EE00085F83A000FF23D20696BC8630FF2792044
:101EF000696B08640FF28120696BC8640020696B0C
:101F0000086501A80600A4B2230032682868011DF4
:101F1000686B00F074FD0020009028680068009055
:101F20002868406800900098002085F838002868EC
:101F3000C06850F480702968C8602868406950F013
:101F40000100296848612868406950F0400029680C
:101F50004861002000E0022076BD38B5050000246D
:101F600028684069C00910F00100040095F83900A4
:101F7000212810D1002C0ED02868406930F0800054
:101F800029684861286B002802D0286B00F07DFD8D
:101F9000280000F056F928684069800910F0010017
:101FA000040095F83A00222810D1002C0ED02868A1
:101FB000406930F0400029684861686B002802D011
:101FC000686B00F062FD280000F045F9002032BD8A
:101FD0002DE9F8430600306807683068D0F80C80B7
:101FE0003068D0F814900024002517F00F0004008A
:101FF000002C08D1B80606D55FEA886003D530000A
:1020000000F08DF98BE0002C77D05FEAC97002D424
:1020100018F4907F71D017F00100C0B2002806D0EC
:102020005FEAC85003D5F06B50F00100F063780709
:1020300008D519F00100C0B2002803D0F06B50F0B1
:102040000200F063B80708D519F00100C0B20028FB
:1020500003D0F06B50F00400F06338070BD55FEA53
:10206000886004D419F00100C0B2002803D0F06BDE
:1020700050F00800F063F06B00283DD0B80605D59D
:102080005FEA886002D5300000F049F930684069A5
:10209000800910F001000500F06B000701D4002D4D
:1020A00025D0300000F0D7F83068406940061AD5D6
:1020B0003068406930F0400031684861706B00283A
:1020C0000DD00FF2B510716B0865706B00F02BFD31
:1020D000002811D0706B716B096D88470CE03000DF
:1020E00000F0BEFE08E0300000F0BAFE04E0300070
:1020F00000F0B6FE0020F06311E0380606D55FEA76
:10210000086003D5300000F0C3F808E0780606D573
:102110005FEA486003D5300000F0F1F8FFE7BDE862
:10212000F183000038B50400A56B20680068C00585
:1021300016D40020E8852868C06830F480702968CB
:10214000C8602868406940084000296848612868DC
:10215000406930F0400029684861202085F83A0045
:10216000280000F029FF31BD38B50400A56B280018
:1021700000F024FF31BD000070B505000024AE6BF7
:1021800030684069C00910F00100040096F8390079
:10219000212806D1002C04D00020F084300000F06B
:1021A00050F830684069800910F00100040096F88A
:1021B0003A00222806D1002C04D00020F0853000FF
:1021C00000F049F8F06B50F01000F063300000F0C0
:1021D00047FE70BD2DE9F04105000E00170098463E
:1021E000069C286800683040B04201D1012000E020
:1021F0000020FFB2B84221D114F1010FF1D0002C20
:1022000005D000F083FBB0EB08008442E9D22868D7
:10221000C06830F4D0702968C860286840694008F8
:10222000400029684861202085F83900202085F881
:102230003A00002085F83800032000E00020BDE8C7
:10224000F0810168C96831F0C0010268D1602021C5
:1022500080F8391070470168C96831F490710268DC
:10226000D16001684969490849000268516120212B
:1022700080F83A107047000038B50400A56B0020C4
:10228000E8850020E884280000F0EAFD31BD000068
:10229000010091F8390021282FD18868B0F5805FBE
:1022A00011D1086A02001088C005C00D0B68586083
:1022B0000869002803D1086A801C086209E0086ADE
:1022C000401C086205E0086A431C0B6200780B683A
:1022D0005860C88C401EC88480B200280BD10868A2
:1022E000C06830F080000B68D8600868C06850F0A3
:1022F00040000B68D860002000E00220704710B555
:1023000004002068C06830F040002168C8602020C8
:1023100084F83900200000F052FE002010BD38B5CE
:10232000040094F83A0022284ED1A068B0F5805FEE
:1023300016D1A06A05002069002808D120684068ED
:10234000C005C00D2880A06A801CA0621AE0206829
:10235000406800F0FF002880A06A401CA06211E0E5
:102360002069002806D1A06A411CA1622168496841
:10237000017007E0A06A411CA1622168496811F060
:102380007F010170E08D401EE08580B2002819D1E8
:102390002068C06830F020002168C8602068C068EC
:1023A00030F480702168C8602068406940084000AF
:1023B00021684861202084F83A00200000F0FCFDEC
:1023C000002002E0002000E0022032BD2DE9F041B3
:1023D00004002068016931F44051E068014320683D
:1023E0000161A1682069014360690143E06901431B
:1023F00088462068C168BF48014058EA010120684A
:10240000C1602068416931F44071A06901432068CE
:102410004161E069B0F5004F40F0B6802068B649F0
:10242000884203D02068B549884256D100F07CFE2E
:1024300005001920A0FB050162680223A3FB02230B
:10244000FEF760FF6421B0FBF1F61920A0FB050147
:1024500062680223A3FB0223FEF754FF0700192042
:10246000A0FB050162680223A3FB0223FEF74AFFDB
:102470006421B0FBF1F1642000FB1171C80032301F
:102480006421B0FBF1F0400010F4F87010EB06107E
:1024900006001920A0FB050162680223A3FB0223AA
:1024A000FEF730FF07001920A0FB05016268022338
:1024B000A3FB0223FEF726FF6421B0FBF1F16420A9
:1024C00000FB1171C80032306421B0FBF1F010F054
:1024D000070080192168886009E100F01AFE0500F4
:1024E0001920A0FB050162680223A3FB0223FEF76B
:1024F00009FF6421B0FBF1F61920A0FB0501626819
:102500000223A3FB0223FEF7FDFE07001920A0FB18
:10251000050162680223A3FB0223FEF7F3FE642198
:10252000B0FBF1F1642000FB1171C800323064216E
:10253000B0FBF1F0400010F4F87010EB061006004C
:102540001920A0FB050162680223A3FB0223FEF70A
:10255000D9FE07001920A0FB050162680223A3FB36
:102560000223FEF7CFFE6421B0FBF1F1642000FBF3
:102570001171C80032306421B0FBF1F010F0070097
:10258000801921688860B2E020685B49884203D0E6
:1025900020685A49884255D100F0C6FD050019202F
:1025A000A0FB050162680423A3FB0223FEF7AAFE39
:1025B0006421B0FBF1F61920A0FB05016268042339
:1025C000A3FB0223FEF79EFE07001920A0FB0501D6
:1025D00062680423A3FB0223FEF794FE6421B0FB90
:1025E000F1F1642000FB1171080132306421B0FB6D
:1025F000F1F010F0F00010EB061006001920A0FB1F
:10260000050162680423A3FB0223FEF77BFE07009B
:102610001920A0FB050162680423A3FB0223FEF737
:1026200071FE6421B0FBF1F1642000FB117108011F
:1026300032306421B0FBF1F010F00F0080192168F6
:10264000886054E000F065FD05001920A0FB05013D
:1026500062680423A3FB0223FEF754FE6421B0FB4F
:10266000F1F61920A0FB050162680423A3FB0223F5
:10267000FEF748FE07001920A0FB0501626804234D
:10268000A3FB0223FEF73EFE6421B0FBF1F16420C0
:1026900000FB1171080132306421B0FBF1F010F041
:1026A000F00010EB061006001920A0FB050162687F
:1026B0000423A3FB0223FEF725FE07001920A0FB3D
:1026C000050162680423A3FB0223FEF71BFE6421BD
:1026D000B0FBF1F1642000FB11710801323064217C
:1026E000B0FBF1F010F00F00801921688860BDE8A0
:1026F000F0810000F369FFFF001001400014014069
:1027000080B57848784908605FF4E13076494860E0
:1027100000207549886000207349C8600020724914
:1027200008610C207049486100206F4988610020D1
:102730006D49C8616C48FFF7DFFA002801D000F04E
:102740003CFC01BD10B586B0040001A8142100F0C6
:1027500055FD20686349884266D100200090634897
:10276000006850F01000614908606048006810F08F
:10277000100000900098002000905D48006850F024
:1027800001005B4908605A48006810F001000090A1
:1027900000984FF4007001900220029000200390F6
:1027A000032004900720059001A9524800F02AFD5B
:1027B0004FF48060019002200290012003900320DA
:1027C00004900720059001A94A4800F01BFD4A48E3
:1027D0004A4908605FF00060484948600020474966
:1027E000886000204549C8604FF480604349086113
:1027F0000020424948610020404988614FF48070C0
:102800003E49C8615FF480303C49086200203B4982
:1028100048623A4800F080F8002801D000F0CDFB73
:10282000364860633548846306B010BD11B581B089
:102830000C004FF6FF73012201A92B48FFF797FA0E
:10284000019816BD2DE9F04104002748FFF785FBEC
:102850002A4800684568D5F1FF05EDB229002848EF
:1028600000F0FAFD4FF40073EDB22A0092B2254950
:102870001D48FFF77CFA1AA000F0EEFDEDB22E0025
:102880000027DFF880803A003100404600F0F8FD74
:1028900000200500FF221B491348FFF703FBBDE89A
:1028A000F08110B582B004000F4800680D498842DD
:1028B00015D10D4800680068C00610D500200090B2
:1028C0000948006800680090074800684068009068
:1028D00000980D4800F0C0FD2000FFF7B3FF13BDC6
:1028E0000D0A000000100140F008002044380240AA
:1028F000303802400000024040640240A807002037
:10290000F0450008A8060020D045000801480068EE
:10291000704700BF40090020F8B504000027FFF70A
:10292000F5FF0500002C01D1012067E0606A002856
:10293000002084F83400022084F835002068006804
:10294000400840002168086020680068C0070BD577
:10295000FFF7DCFF401B0628F6D32020606503202C
:1029600084F83500032049E0206800680700DFF89C
:10297000480407406168A0680143E068014320699A
:10298000014360690143A0690143E0690143206A92
:1029900001430F43606A042803D1E16A206B0143BD
:1029A0000F4320680760206840690700FF08FF00A8
:1029B000606A0743606A042810D1A06A0743E06A8E
:1029C00000280BD0200000F0FDF9002806D04020A0
:1029D0006065012084F8350001200FE02068476120
:1029E000200000F0D0F906003F21E06D8140B16089
:1029F00000206065012084F835000020F2BD2DE93B
:102A0000F84304000D0016001F005FF00008D4F822
:102A1000589094F83400012801D1022033E00120BD
:102A200084F8340094F83500012825D1022084F878
:102A30003500002060653B0032002900200000F0D6
:102A40008BF93F21E06D8140C9F8081020680068CB
:102A500050F0160021680860206C002805D020681E
:102A6000006850F00800216808602068006850F095
:102A700001002168086004E0002084F8340002208E
:102A800080464046C0B2BDE8F28370B50400A56D33
:102A9000FFF73CFF060094F83500022806D080209E
:102AA0006065002084F8340001203BE02068006865
:102AB00030F01600216808602068406930F080001E
:102AC00021684861206C002802D1A06C002805D044
:102AD0002068006830F008002168086020680068FD
:102AE000400840002168086020680068C0070ED5D3
:102AF000FFF70CFF801B0628F6D32020606500201E
:102B000084F83400032084F8350003200AE03F21D4
:102B1000E06D8140A960002084F83400012084F831
:102B20003500002070BD010091F83500022803D067
:102B300080204865012009E0052081F835000868FB
:102B40000068400840000A68106000207047F8B52F
:102B5000040000200090DFF8640200684FF4165172
:102B6000B0FBF1F6A76D386805000821E06D8140E3
:102B70000D4211D02068006840070DD5206800681C
:102B800030F00400216808600821E06D8140B960E0
:102B9000606D50F001006065E06D2900C140C8071C
:102BA0000BD520684069000607D50121E06D814002
:102BB000B960606D50F0020060650421E06D8140F5
:102BC0000D420BD020680068800707D50421E06D16
:102BD0008140B960606D50F0040060651021E06DC7
:102BE00081400D422DD020680068000729D51021B2
:102BF000E06D8140B96020680068400311D520680D
:102C00000068000306D4206C00281AD02000216C34
:102C1000884716E0A06C002813D02000A16C8847DC
:102C20000FE020680068C00505D42068006830F017
:102C3000080021680860206C002802D02000216C68
:102C400088472021E06D81400D4260D020680068F7
:102C5000C0065CD52021E06D8140B96094F8350054
:102C6000052828D12068006830F016002168086027
:102C70002068406930F0800021684861206C00289D
:102C800002D1A06C002805D02068006830F0080050
:102C9000216808603F21E06D8140B960002084F820
:102CA0003400012084F83500206D002802D0200077
:102CB000216D88474FE020680068400311D52068E7
:102CC0000068000306D4606C002820D02000616CEE
:102CD00088471CE0E06B002819D02000E16B884792
:102CE00015E020680068C0050BD42068006830F04B
:102CF000100021680860002084F83400012084F866
:102D00003500E06B002802D02000E16B8847606D41
:102D1000002820D0606DC00717D5052084F8350045
:102D20002068006840084000216808600098401C46
:102D30000090864203D320680068C007F6D40020C4
:102D400084F83400012084F83500E06C002802D0BB
:102D50002000E16C8847F1BD30B40468246834F485
:102D6000802405682C60046863608468402C04D16A
:102D70000468A2600468E16003E00468A16004687C
:102D8000E26030BC7047017801F0FF011039182271
:102D9000B1FBF2F10A4A525CC265042905D302680C
:102DA000920A9202121D826503E00268920A920260
:102DB0008265806D704700003F8010F0D8010020D0
:102DC0009846000810B402000020936A9169002917
:102DD00016D1002B05D0022B03D008D3032B0DD026
:102DE0000DE0D16AC90101D50121080035E0D16AA1
:102DF000B1F1C07F01D1012108002EE02DE02CE0CF
:102E00009169B1F5005F18D1002B05D0022B03D0DA
:102E100005D3032B09D00FE0012108001DE0D16A82
:102E2000C90101D50121080017E0D16AB1F1C07FC5
:102E300001D10121080010E00FE01900002902294A
:102E400002D9C91E03D008E00121080005E0D16ABB
:102E5000C90101D501210800FFE7C0B210BC7047CD
:102E60007047000080B500F03FFB00F033F800F041
:102E70005BFB00F0EBFB00F003FCFFF741FC00F014
:102E800071FC00F0DFFC00F08DF84FF4E9723D4971
:102E90003D48FEF7DBFF3D4800F008FDA82000F0AC
:102EA00007FF39480068C06850F0100036490968CB
:102EB000C860FF2236493448FEF7F4FF4FF48061C2
:102EC000344800F09FFA642000F01AFF324800F006
:102ED0004DFFF3E700B593B006A8302100F08EF95E
:102EE00001A8142100F08AF9002000902B48006806
:102EF00050F08050294908602848006810F0805040
:102F000000900098002000902548006850F4804010
:102F1000234908602248006810F48040009000981F
:102F2000092006905FF48030079001200B9002206A
:102F30000C905FF480000D9008200E904FF4A87064
:102F40000F90022010900420119006A800F016FFA8
:102F5000002801D000F031F80F20019002200290EB
:102F6000002003904FF4A05004904FF4805005903F
:102F7000052101A800F024F8002801D000F01DF878
:102F800013B000BD00000020F0080020B0080020B1
:102F9000A8060020001402403009002040380240FA
:102FA0000070004080B500220321252001F064F963
:102FB000252001F074F901BD7047704770477047D4
:102FC00070B504000D00002C01D101209DE05C488B
:102FD000006810F00F00A84209D2594805705848FF
:102FE000006810F00F00A84201D001208DE0207889
:102FF000800719D52078400705D55248006850F45D
:10300000E050504908602078000705D54D48006819
:1030100050F460404B4908604A48016831F0F001C3
:10302000A0680143474801602078C00736D5606832
:10303000012805D144480068800313D4012064E0CE
:103040006068022802D06068032805D13E48006805
:10305000800107D4012058E03B480068800701D474
:10306000012052E0374801688908890060680143FF
:1030700034480160FFF74AFC06003248006810F04F
:103080000C006168B0EB810F08D0FFF73FFC801B9C
:1030900041F289318842F0D3032036E028480068A5
:1030A00010F00F00854209D22548057024480068B9
:1030B00010F00F00A84201D0012026E02078400740
:1030C00007D52048016831F4E051E06801431D480C
:1030D00001602078000708D51A48006830F4604085
:1030E000216950EAC1001749086000F037F8174914
:1030F000144A1268C2F30312895CC840144908607C
:103100001448006801F0E6F8002070BD104800681F
:10311000704780B5FFF7FAFF0F490A4A1268C2F3F9
:103120008222895CC84002BD80B5FFF7EFFF0A49E3
:10313000044A1268C2F34232895CC84002BD0000F2
:10314000003C024008380240003802405C4600085B
:10315000D8010020D4010020A0460008F0B50024CA
:103160000025002600272148006810F00C000028E8
:1031700004D0042805D0082806D032E01C480700F7
:1031800031E01C4807002EE01B48006810F03F00AB
:1031900004001948006840020CD517480068C0F3C5
:1031A00088101449A1FB000122000023FEF7AAF8B1
:1031B00005000BE010480068C0F388100C49A1FB23
:1031C000000122000023FEF79DF805000A48006870
:1031D000C0F30140401C40000600B5FBF6F00700BC
:1031E00001E0034807003800F0BD00BF0838024086
:1031F0000024F40000127A0004380240002201F09A
:103200008FB80000F8B40024002500260022130027
:10321000102B80F0EB8001229A4014000A682240B3
:103220001500A54240F0E0804A68012A08D04A68AB
:10323000022A05D04A68112A02D04A68122A19D1F6
:103240008268160003271A00D2B252009740BE438C
:10325000CF681A00D2B2520097403E43866042685F
:10326000160001229A4096434A68C2F300129A401F
:1032700016434660C268160003271A00D2B25200F5
:103280009740BE438F681A00D2B2520097403E4327
:10329000C6604A68022A02D04A68122A18D11A0067
:1032A000D20800EB8202126A16000F2713F0070201
:1032B000D2B292009740BE430F6913F00702D2B218
:1032C000920097403E431A00D20800EB8202166239
:1032D0000268160003271A00D2B252009740BE437C
:1032E0000F7917F003071A00D2B2520097403E43FD
:1032F00006604A68D20077D500220092484A1268D8
:1033000052F48042464F3A60454A126812F48042B5
:103310000092009A434A1F00BF0852F82720160067
:103320000F2713F00302D2B292009740BE433E4AE9
:10333000904201D1002723E03C4A904201D101276D
:103340001EE03B4A904201D1022719E0394A9042DF
:1033500001D1032714E0384A904201D104270FE03D
:10336000364A904201D105270AE0354A904201D100
:10337000062705E0334A904201D1072700E00827DD
:10338000FFB213F00302D2B2920097403E43254AA7
:103390001F00BF0842F827602B4A12681600AE4390
:1033A0004A68D20300D52E43274A1660274A12687E
:1033B0001600AE434A68920300D52E43234A166096
:1033C000234A12681600AE434A68D20200D52E4343
:1033D0001F4A16601F4A12681600AE434A689202DE
:1033E00000D52E431B4A16605B1C11E7F1BC7047E9
:1033F000D2B2002A02D089B2816102E089B20B0404
:1034000083617047426989B20A4089B28A4203D116
:1034100089B20A04826101E089B2816170470000CB
:1034200044380240083801400000024000040240D5
:1034300000080240000C024000100240001402404C
:1034400000180240001C0240003C0140043C0140C6
:10345000083C01400C3C01400EB4C0B5024603A834
:1034600000210190009101AB0121044878440C3007
:10347000FCF78AFE06BC5DF810FB00BFBF11000020
:1034800062F30F2262F31F42401810F0030308D0CA
:10349000C91A1FD3DB0748BF00F8012D28BF20F849
:1034A000022D130030B414461546103928BF20E908
:1034B0003C00FAD8490728BF20E90C0048BF40F873
:1034C000042D890028BF20F8022D48BF00F8012DE7
:1034D00030BC7047C91818BF00F8012DCB0728BFB2
:1034E00000F8012D7047000080B50E48006850F4C8
:1034F00000700C4908600B48006850F4806009496E
:1035000008600848006850F480700649086003208D
:1035100000F0ACFE002000F0DDFE00F01BFF0020FC
:1035200002BD0000003C024000B587B001A8142194
:10353000FFF764FE002000903F48006850F0100044
:103540003D4908603C48006810F010000090009869
:10355000002000903848006850F02000364908608C
:103560003548006810F0200000900098002000907E
:103570003148006850F080002F4908602E480068EC
:1035800010F0800000900098002000902A48006809
:1035900050F00100284908602748006810F0010039
:1035A00000900098002000902348006850F002002E
:1035B000214908602048006810F00200009000983F
:1035C00001224FF4C0611D48FFF712FF00224FF4A3
:1035D00080411B48FFF70CFF1C2001900020029047
:1035E0000120039001A91748FFF70CFE4FF4C060BB
:1035F000019001200290012003900220049001A973
:103600000E48FFF7FFFD01200190002002900220EC
:10361000039001A90C48FFF7F5FD4FF4804001909D
:1036200001200290012003900220049001A9044887
:10363000FFF7E8FD07B000BD30380240001402403B
:1036400000040240001002400000024080B500204B
:1036500000900A48006850F4800008490860074854
:10366000006810F4800000900098002200213A20A9
:1036700000F002FE3A2000F012FE01BD3038024098
:1036800000B587B002A81021FFF7B8FD3048D0E997
:103690000023CDE900232F482F49086042F2CF00D4
:1036A0002D49486000202C49886041F287302A4922
:1036B000C860002028490861002027498861264801
:1036C00000F0D8F8002801D0FFF777FC4FF48050C5
:1036D000029002A9204800F0BAF9002801D0FFF7B3
:1036E0006CFC002000900020019069461A4800F010
:1036F00055FE002801D0FFF760FC07B000BD10B5F3
:1037000082B0040020681349884215D1002000903F
:103710001248006850F00200104908600F48006825
:1037200010F0020000900098002201211D2000F0FE
:10373000A3FD1D2000F0B3FD13BD10B50400064825
:10374000844204D14FF400710548FFF75BFE10BDC1
:10375000A846000800040040B0080020403802409D
:103760000014024080B53248324908604FF482703C
:103770003049486000202F49886000202D49C860EA
:1037800000202C49086100202A4948614FF400704C
:103790002849886128202749C861002025490862F6
:1037A0000020244948620020224988620A202149D9
:1037B000C862204800F04AFE002801D0FFF7FDFB58
:1037C00001BD10B586B0040001A81421FFF716FD55
:1037D00020681749884229D10020009016480068C7
:1037E00050F48050144908601348006810F4805069
:1037F00000900098002000901048006850F00200EF
:103800000E4908600D48006810F002000090009812
:1038100038200190022002900020039003200490A1
:103820000520059001A90648FFF7ECFC06B010BD85
:10383000003001400808002044380240303802407F
:103840000004024080B5094809490860032008497E
:1038500048604FF4FA6006498860054800F05EFA57
:10386000002801D0FFF7A9FB01BD00BF00300040D8
:103870003009002010B50400002C01D1012014E013
:1038800094F83D00002805D1002084F83C00200079
:10389000FFF735FF022084F83D00211D206800F06D
:1038A0004DF9012084F83D00002010BD010008689A
:1038B000C06850F001000B68D8600868806810F09C
:1038C00007000200062A05D00868006850F00100D1
:1038D0000B6818600020704710B50400206800696C
:1038E00080071AD52068C068800716D57FF00200CF
:1038F00021680861012020772068806910F0030F9B
:1039000003D0200000F0E9FD05E0200000F0E6FD16
:10391000200000F0E4FD00202077206800694007C7
:103920001AD52068C068400716D57FF004002168CA
:103930000861022020772068806910F4407F03D05E
:10394000200000F0CAFD05E0200000F0C7FD2000C7
:1039500000F0C5FD002020772068006900071AD517
:103960002068C068000716D57FF00800216808614C
:10397000042020772068C06910F0030F03D02000D6
:1039800000F0ABFD05E0200000F0A8FD200000F0F5
:10399000A6FD0020207720680069C0061AD520689F
:1039A000C068C00616D57FF01000216808610820A5
:1039B00020772068C06910F4407F03D0200000F019
:1039C0008CFD05E0200000F089FD200000F087FD5F
:1039D0000020207720680069C0070AD52068C068E9
:1039E000C00706D57FF00100216808612000FFF7BD
:1039F000A4FE2068006900060AD52068C068000699
:103A000006D57FF0800021680861200000F068FD85
:103A10002068006940060AD52068C068400606D5BF
:103A20007FF0400021680861200000F05AFD206806
:103A3000006980060AD52068C068800606D57FF038
:103A4000200021680861200000F04CFD10BD70B519
:103A500004000D0094F83C00012801D102206CE024
:103A6000012084F83C00022084F83D002068806832
:103A7000060036F0770636F47F46206886602868B0
:103A800000284ED010284CD020284AD0302848D0CA
:103A900040283CD0502826D060282ED0702807D04F
:103AA000B0F5805F03D0B0F5005F0FD03EE03DE0A1
:103AB000EB686A68A968206800F0ECF82068806804
:103AC000060056F07706206886602FE0EB686A688B
:103AD000A968206800F0DEF82068806850F4804013
:103AE0002168886022E0EA686968206800F0A0F830
:103AF0005021206800F0C5F818E0EA68696820687D
:103B000000F0AAF86021206800F0BBF80EE0EA6837
:103B10006968206800F08CF84021206800F0B1F856
:103B200004E02968206800F0ACF8FFE7012084F881
:103B30003D00002084F83C00002070BD02681300A6
:103B4000DFF8C020904212D0B0F1804F0FD0DFF8E4
:103B5000B82090420BD0DFF8B420904207D0DFF8B5
:103B6000B020904203D0DFF8AC20904203D133F074
:103B700070034A681343DFF88C2090422AD0B0F1DA
:103B8000804F27D0DFF88020904223D0DFF87C20C0
:103B900090421FD0DFF8782090421BD0DFF87420CD
:103BA000904217D0DFF87020904213D0DFF86C20DD
:103BB00090420FD0DFF8682090420BD0DFF86420ED
:103BC000904207D0DFF86020904203D0DFF85C20FD
:103BD000904203D133F44073CA68134333F0800337
:103BE0004A69134303608A68C2620A688262054AAE
:103BF000904202D0074A904201D10A690263012231
:103C0000426170470000014000040040000800408D
:103C1000000C00400004014000400140004401400D
:103C20000048014000180040001C004000200040F7
:103C300030B4056A2C00056A6D086D00056285695F
:103C40002B0033F0F00353EA021334F00A040C4360
:103C50008361046230BC704730B4056A35F01005EA
:103C6000056285692B00056A2C0033F4704353EA22
:103C7000023334F0A00454EA01148361046230BCBE
:103C800070478268130033F0700351F0070213434A
:103C90008360704730B485682C0034F47F4452EA66
:103CA000010555EA03252C43846030BC70470000B1
:103CB000C0B210490860704770B400240E4D2D68E2
:103CC0000C4E366806FB00F631000C4E36683200AA
:103CD0000A4E366833009342FAD0934202D2141946
:103CE000E41A02E02C19E41A14191A008C42EFD3DA
:103CF00070BC70473C09002014E000E018E000E0D0
:103D000038B5040000200500A4B2A54205D24FF446
:103D10007A70FFF7D1FF6D1CF6E731BD38B50400AE
:103D2000002C01D1012020E04CF6CC402168086035
:103D300045F2555021680860606821684860A068B5
:103D400021688860FEF7E2FD05002068C068002851
:103D500006D0FEF7DBFD401B3128F6D3032004E03C
:103D60004AF6AA2021680860002032BD01004AF608
:103D7000AA200A681060002070470000F8B504000F
:103D8000002C01D10120EAE12078C0076FD5DFF8CF
:103D9000D003006810F00C0004280BD0DFF8C0033B
:103DA000006810F00C0008280ED1DFF8B803006896
:103DB000400209D5DFF8B0030068800357D560687A
:103DC000002854D10120CAE16068B0F5803F08D1D5
:103DD000DFF89403006850F48030DFF88C1308603B
:103DE00024E06068B0F5A02F10D1DFF87C030068F4
:103DF00050F48020DFF870130860DFF86C0300686F
:103E000050F48030DFF8601308600FE0DFF85803EB
:103E1000006830F48030DFF850130860DFF84803A2
:103E2000006830F48020DFF84013086060680028E4
:103E30000ED0FEF76BFD0500DFF82C030068800351
:103E400015D4FEF763FD401B6528F5D3032086E1FA
:103E5000FEF75CFD0500DFF810030068800306D55F
:103E6000FEF754FD401B6528F5D3032077E1207849
:103E7000800754D5DFF8E802006810F00C0F0BD073
:103E8000DFF8DC02006810F00C00082818D1DFF819
:103E9000D4020068400213D4DFF8CC020068800727
:103EA00004D5E068012801D0012058E1AE4800683F
:103EB00030F0F800216950EAC100AB4908602EE0FB
:103EC000E06800281AD00120A8490860FEF71EFD0E
:103ED0000500A5480068800706D4FEF717FD401BC3
:103EE0000328F6D303203AE19F48006830F0F80039
:103EF000216950EAC1009C49086010E000209B49FC
:103F00000860FEF703FD050097480068800706D5A6
:103F1000FEF7FCFC401B0328F6D303201FE12078AA
:103F2000000724D56069002810D00120904908605E
:103F3000FEF7ECFC05008F480068800717D4FEF7F9
:103F4000E5FC401B0328F6D3032008E10020884944
:103F50000860FEF7DBFC050086480068800706D590
:103F6000FEF7D4FC401B0328F6D30320F7E02078AB
:103F7000400740F17F8000277F480068C0000FD4D1
:103F8000002000907C48006850F080507A4908601A
:103F90007948006810F080500090009801200700D8
:103FA00076480068C00513D47448006850F48070E7
:103FB00072490860FEF7AAFC050070480068C00559
:103FC00006D4FEF7A3FC401B0328F6D30320C6E06B
:103FD000A068012806D16A48006850F001006849CD
:103FE00008601BE0A06805280CD16548006850F007
:103FF0000400634908606248006850F001006049AD
:1040000008600BE05E480068400840005C490860BA
:104010005B48006830F0040059490860A068002837
:104020000FD0FEF773FC050055480068800718D4D0
:10403000FEF76CFC401B41F289318842F4D3032027
:104040008DE0FEF763FC05004D480068800708D549
:10405000FEF75CFC401B41F289318842F4D3032017
:104060007DE0FFB2012F05D14348006830F0805059
:1040700041490860A069002870D03948006810F0F4
:104080000C00082846D0A069022832D100203D4902
:104090000860FEF73BFC050033480068800106D548
:1040A000FEF734FC401B0328F6D3032057E0E169F8
:1040B000206A0143606A51EA8011A06A801EC00331
:1040C000000C00040143E06A51EA006125480160E8
:1040D00001202C490860FEF719FC05002248006801
:1040E00080013BD4FEF712FC401B0328F6D30320CB
:1040F00035E0002023490860FEF708FC05001A4857
:10410000006880012AD5FEF701FC401B0328F6D386
:10411000032024E0A069012801D101201FE01148FB
:104120000068060016F48000E169884214D116F098
:104130003F00216A88420FD147F6C0703040616A63
:10414000884209D116F44030A16A884204D116F0A1
:104150007060E16A884201D0012000E00020F2BDD9
:10416000083802400438024000380240000047424C
:10417000800E4742743802404038024000700040D0
:10418000703802406000474210F00703DFF8241146
:1041900009680A004FF6FF010A40DFF81C1151EAD6
:1041A00003210A43DFF80C110A607047DFF80401AD
:1041B0000068C0F30220704740B2002809D40122F1
:1041C00010F01F018A403D4940B203005B0941F8ED
:1041D0002320704710B440B2002804D40A01384BA1
:1041E00040B21A5407E00A01364B40B210F00F04F7
:1041F000234403F8042C10BC704770B4030013F080
:104200000704D4F10706052E01D3042001E0D4F100
:104210000700261D072E01D2002500E0E51E01261D
:1042200016FA00F0401E0140A940012010FA05F5E1
:104230006D1E2A401143080070BC704710B5040081
:10424000601EB0F1807F01D301200EE0601E1E4988
:1042500008600F215FF0FF30FFF7BCFF00201B4913
:10426000086007201A490860002010BD10B504003E
:104270002000FFF789FF10BDF8B504000D001600FF
:104280000027FFF793FF0700320029003800FFF7EF
:10429000B4FF0100200040B2FFF79CFFF1BD10B554
:1042A0000400200040B2FFF787FF10BD80B5FFF784
:1042B000C5FF02BD0CED00E00000FA0500E100E0E2
:1042C00000E400E018ED00E014E000E018E000E099
:1042D00010E000E010B504004FF47A700D49097841
:1042E000B0FBF1F00C490968B1FBF0F0FFF7DEFF1D
:1042F000002801D001200CE0102C09D2002221005E
:104300005FF0FF30FFF7B8FF04480460002000E0D2
:10431000012010BDA4020020D8010020D4010020FB
:1043200000B500BF130096469446103928BFA0E898
:104330000C50FAD85FEA417C28BF0CC048BF40F857
:10434000042BC90728BF20F8022B48BF00F8012B17
:1043500000BD000081B0002000900E48006850F4BD
:1043600080400C4908600B48006810F480400090C1
:104370000098002000900848006850F080500649DE
:1043800008600548006810F080500090009801B067
:10439000704700BF443802404038024030B4020049
:1043A00092F83C00012801D102203EE0012082F871
:1043B0003C00022082F83D0010684068040010684C
:1043C0008068030034F07004086804431068446097
:1043D0001068174DA8421BD01068B0F1804F17D05D
:1043E0001068144DA84213D01068134DA8420FD086
:1043F0001068124DA8420BD01068114DA84207D08A
:104400001068104DA84203D010680F4DA84205D186
:1044100033F080034868034310688360012082F80A
:104420003D00002082F83C00002030BC70470000B6
:10443000000001400004004000080040000C004063
:1044400000040140004001400018004010B5040085
:10445000002C01D101203FE0606A00280020A0620A
:1044600094F85100002805D1002084F85000200065
:10447000FFF7A7F9022084F851002068006830F0A7
:104480004000216808606168A0680143E06801435A
:104490002069014360690143A06910F40070014381
:1044A000E0690143206A0143A06A0143206801607A
:1044B000A169090C11F00401606A014320684160A0
:1044C0002068C06930F400602168C8610020606520
:1044D000012084F85100002010BD704770477047DC
:1044E00070477047704700007047FEE7FEE7FEE741
:1044F000FEE770477047704780B500F019F801BDBE
:1045000080B50848FFF7E8F901BD80B50648FDF71A
:104510005FFD0548FEF7C5F901BD80B50348FEF70C
:1045200016FB01BDB0080020F0080020A8070020FD
:10453000034800680349097840180149086070473A
:1045400040090020A402002019E050F8042BD307F2
:1045500044BFA9F101039A18091F0023042942F856
:10456000043BF9D25FEA817C134604D54FF0000C7E
:10457000A2F800C09B1CC90744BF0021197050F865
:10458000041B0029E1D1704710B50749794418315F
:10459000064C7C44163404E00A68081D1144884720
:1045A0000146A142F8D110BD08000000240000001F
:1045B00099FFFFFFA0020000A806002000000000F5
:1045C000FFCAFFFF2A020000AA020000000000202C
:1045D0000D0A2055415254312049646C65204951DF
:1045E00052204465746563746564200D0A00000000
:1045F000526563656976652044617461286C656EF7
:10460000677468203D202564293A000000F00BF80B
:10461000002801D0FFF7B8FF0020AFF30080FEF7BD
:1046200021FC00F002F80120704700F001B8000002
:1046300007463846FDF756FBFBE738B504460D46FE
:10464000284600F005F8A84218BF0024204632BDD5
:104650000149FEF7EBB800BFDC01002000000000BC
:104660000000000001020304060708090148804712
:10467000014800477D4600088D4600085FF0006055
:10468000014908607047000008ED00E0AFF30080CA
:10469000AFF30080FFF7BAFF0006101600061016F1
:1046A0000000000001020304000000000000000000
:1046B00000002E004300FFF7FEBFFFF7FEBFFFF72D
:1046C000FEBFFFF7FEBFFFF7FEBFFFF7FEBFFFF71E
:1046D000FEBFFFF7FEBFFFF7FEBFFFF7FEBFFFF70E
:1046E000FEBFFFF7FEBFFFF7FEBFFFF7FEBFFFF7FE
:1046F000FEBFFFF7FEBFFFF7FEBFFFF7FEBFFFF7EE
:10470000FEBFFFF7FEBFFFF7FEBFFFF7FEBFFFF7DD
:10471000FEBFFFF7FEBFFFF7FEBFFFF7FEBFFFF7CD
:10472000FEBFFFF7FEBFFFF7FEBFFFF7FEBFFFF7BD
:10473000FEBFFFF7FEBFFFF7FEBFFFF7FEBFFFF7AD
:10474000FEBFFFF7FEBFFFF7FEBFFFF7FEBFFFF79D
:10475000FEBFFFF7FEBFFFF7FEBFFFF7FEBFFFF78D
:10476000FEBFFFF7FEBFFFF7FEBFFFF7FEBFFFF77D
:10477000FEBFFFF7FEBFFFF7FEBFFFF7FEBFFFF76D
:10478000FEBFFFF7FEBFFFF7FEBFFFF7FEBFFFF75D
:10479000FEBFFFF7FEBFFFF7FEBFFFF7FEBFFFF74D
:1047A000FEBFFFF7FEBFFFF7FEBFFFF7FEBFFFF73D
:1047B000FEBFFFF7FEBFFFF7FEBFFFF7FEBFFFF72D
:1047C000FEBFFFF7FEBFFFF7FEBFFFF7FEBFFFF71D
:1047D000FEBFFFF7FEBFFFF7FEBFFFF7FEBFFFF70D
:1047E000FEBFFFF7FEBFFFF7FEBFFFF7FEBFA00152
:1047F0000D0A2A01B00A2045617379205368656C5F
:104800006C201910170D0A48656C7020496E666F90
:10481000726D6174696F6E3A200D0A2D6820011067
:104820000753686F772074686520378001702069AE
:104830002311223220011112100A206578616D7057
:104840006C653A203E3E37130D0A3E32693EF00B4E
:104850000865742049502061646472657373334045
:104860000E69203139322E3136382E3137382E3517
:104870003942626D4270014D414343F10844100ECC
:104880006D2039343A37353A43453A32413A31337B
:104890000C414762734710027375626E07F00201A4
:1048A0006D61736B47436C7047300473203235354C
:1048B0002E04400234302E3043626743F005134724
:1048C000617465776179D46003672031302E0341CC
:1048D0004722702A34035072696E7452118DF40BA2
:1048E0000D776F726B20636F6E6669677572571212
:1048F000701A1003000000100001100A24F40002D6
:1049000004010160080020B004526004211B61080A
:10491000F0070E200200200C0200200001F0020728
:10492000B04600080452FF01F200B214100100006A
:10493000B40C12015DF2122464E101434F113C21D9
:0349400001020170
:040000050800468D1C
:00000001FF
